{
  "address": "0xf0C94feC412ca082834cA38Ccc1040D28ab5eA7D",
  "abi": [
    {
      "inputs": [
        {
          "internalType": "address payable",
          "name": "wallets_",
          "type": "address"
        },
        {
          "internalType": "uint16",
          "name": "maxNumberOfPlayers_",
          "type": "uint16"
        },
        {
          "internalType": "uint256",
          "name": "minWager_",
          "type": "uint256"
        }
      ],
      "stateMutability": "nonpayable",
      "type": "constructor"
    },
    {
      "inputs": [
        {
          "internalType": "enum Coin.Side",
          "name": "availableCoinSide",
          "type": "uint8"
        }
      ],
      "name": "AllMatchingPlaysError",
      "type": "error"
    },
    {
      "inputs": [
        {
          "internalType": "uint16",
          "name": "playID",
          "type": "uint16"
        }
      ],
      "name": "AlreadyPlayedError",
      "type": "error"
    },
    {
      "inputs": [],
      "name": "InOperational",
      "type": "error"
    },
    {
      "inputs": [
        {
          "internalType": "uint256",
          "name": "expectedChanceAndSaltSize",
          "type": "uint256"
        }
      ],
      "name": "IncompleteChanceAndSaltsError",
      "type": "error"
    },
    {
      "inputs": [],
      "name": "InsufficientWalletBalance",
      "type": "error"
    },
    {
      "inputs": [],
      "name": "InvalidExpiryTimestamp",
      "type": "error"
    },
    {
      "inputs": [
        {
          "internalType": "uint256",
          "name": "",
          "type": "uint256"
        },
        {
          "internalType": "enum Game.Status",
          "name": "expected",
          "type": "uint8"
        },
        {
          "internalType": "enum Game.Status",
          "name": "actual",
          "type": "uint8"
        }
      ],
      "name": "InvalidGameStatus",
      "type": "error"
    },
    {
      "inputs": [],
      "name": "InvalidProofOfChance",
      "type": "error"
    },
    {
      "inputs": [],
      "name": "InvalidServiceChargePercent",
      "type": "error"
    },
    {
      "inputs": [],
      "name": "MaxNumberOfPlayersError",
      "type": "error"
    },
    {
      "inputs": [],
      "name": "MinimumPlayCountError",
      "type": "error"
    },
    {
      "inputs": [
        {
          "internalType": "address",
          "name": "owner",
          "type": "address"
        }
      ],
      "name": "OwnableInvalidOwner",
      "type": "error"
    },
    {
      "inputs": [
        {
          "internalType": "address",
          "name": "account",
          "type": "address"
        }
      ],
      "name": "OwnableUnauthorizedAccount",
      "type": "error"
    },
    {
      "anonymous": false,
      "inputs": [
        {
          "indexed": true,
          "internalType": "uint256",
          "name": "gameID",
          "type": "uint256"
        },
        {
          "indexed": false,
          "internalType": "uint256",
          "name": "refundedAmountPerPlayer",
          "type": "uint256"
        }
      ],
      "name": "ExpiredGameRefunded",
      "type": "event"
    },
    {
      "anonymous": false,
      "inputs": [
        {
          "indexed": true,
          "internalType": "uint256",
          "name": "gameID",
          "type": "uint256"
        },
        {
          "indexed": false,
          "internalType": "enum Coin.Side",
          "name": "coinSide",
          "type": "uint8"
        },
        {
          "indexed": false,
          "internalType": "uint256",
          "name": "amountForEachWinner",
          "type": "uint256"
        }
      ],
      "name": "GameCompleted",
      "type": "event"
    },
    {
      "anonymous": false,
      "inputs": [
        {
          "indexed": true,
          "internalType": "uint256",
          "name": "gameID",
          "type": "uint256"
        },
        {
          "indexed": true,
          "internalType": "address",
          "name": "creator",
          "type": "address"
        },
        {
          "indexed": false,
          "internalType": "uint16",
          "name": "numberOfPlayers",
          "type": "uint16"
        },
        {
          "indexed": false,
          "internalType": "uint256",
          "name": "expiryTimestamp",
          "type": "uint256"
        },
        {
          "indexed": false,
          "internalType": "uint256",
          "name": "wager",
          "type": "uint256"
        }
      ],
      "name": "GameCreated",
      "type": "event"
    },
    {
      "anonymous": false,
      "inputs": [
        {
          "indexed": true,
          "internalType": "uint256",
          "name": "gameID",
          "type": "uint256"
        },
        {
          "indexed": false,
          "internalType": "uint256",
          "name": "expiryTimestamp",
          "type": "uint256"
        }
      ],
      "name": "GameExpiryAdjusted",
      "type": "event"
    },
    {
      "anonymous": false,
      "inputs": [
        {
          "indexed": true,
          "internalType": "uint256",
          "name": "gameID",
          "type": "uint256"
        },
        {
          "indexed": true,
          "internalType": "uint16",
          "name": "gamePlayID",
          "type": "uint16"
        },
        {
          "indexed": false,
          "internalType": "bytes",
          "name": "chanceAndSalt",
          "type": "bytes"
        }
      ],
      "name": "GamePlayChanceRevealed",
      "type": "event"
    },
    {
      "anonymous": false,
      "inputs": [
        {
          "indexed": true,
          "internalType": "uint256",
          "name": "gameID",
          "type": "uint256"
        },
        {
          "indexed": true,
          "internalType": "uint16",
          "name": "gamePlayID",
          "type": "uint16"
        },
        {
          "indexed": true,
          "internalType": "address",
          "name": "player",
          "type": "address"
        },
        {
          "indexed": false,
          "internalType": "enum Coin.Side",
          "name": "coinSide",
          "type": "uint8"
        },
        {
          "indexed": false,
          "internalType": "bytes32",
          "name": "proofOfChance",
          "type": "bytes32"
        }
      ],
      "name": "GamePlayCreated",
      "type": "event"
    },
    {
      "anonymous": false,
      "inputs": [
        {
          "indexed": true,
          "internalType": "address",
          "name": "previousOwner",
          "type": "address"
        },
        {
          "indexed": true,
          "internalType": "address",
          "name": "newOwner",
          "type": "address"
        }
      ],
      "name": "OwnershipTransferred",
      "type": "event"
    },
    {
      "inputs": [
        {
          "internalType": "uint256",
          "name": "gameID",
          "type": "uint256"
        },
        {
          "internalType": "uint256",
          "name": "newExpiryTimestamp",
          "type": "uint256"
        }
      ],
      "name": "adjustExpiryForGame",
      "outputs": [],
      "stateMutability": "nonpayable",
      "type": "function"
    },
    {
      "inputs": [
        {
          "internalType": "uint256[]",
          "name": "gameIDs",
          "type": "uint256[]"
        },
        {
          "internalType": "uint256",
          "name": "newExpiryTimestamp",
          "type": "uint256"
        }
      ],
      "name": "adjustExpiryForGames",
      "outputs": [],
      "stateMutability": "nonpayable",
      "type": "function"
    },
    {
      "inputs": [
        {
          "internalType": "uint256",
          "name": "wager",
          "type": "uint256"
        },
        {
          "internalType": "uint16",
          "name": "numberOfPlayers",
          "type": "uint16"
        },
        {
          "internalType": "uint256",
          "name": "expiryTimestamp",
          "type": "uint256"
        },
        {
          "internalType": "enum Coin.Side",
          "name": "coinSide",
          "type": "uint8"
        },
        {
          "internalType": "bytes32",
          "name": "proofOfChance",
          "type": "bytes32"
        }
      ],
      "name": "createGame",
      "outputs": [],
      "stateMutability": "payable",
      "type": "function"
    },
    {
      "inputs": [],
      "name": "gamesCount",
      "outputs": [
        {
          "internalType": "uint256",
          "name": "",
          "type": "uint256"
        }
      ],
      "stateMutability": "view",
      "type": "function"
    },
    {
      "inputs": [
        {
          "internalType": "uint256",
          "name": "amount",
          "type": "uint256"
        }
      ],
      "name": "getServiceCharge",
      "outputs": [
        {
          "internalType": "uint256",
          "name": "",
          "type": "uint256"
        }
      ],
      "stateMutability": "view",
      "type": "function"
    },
    {
      "inputs": [],
      "name": "getServiceProviderWallet",
      "outputs": [
        {
          "internalType": "address",
          "name": "",
          "type": "address"
        }
      ],
      "stateMutability": "view",
      "type": "function"
    },
    {
      "inputs": [],
      "name": "maxNumberOfPlayers",
      "outputs": [
        {
          "internalType": "uint16",
          "name": "",
          "type": "uint16"
        }
      ],
      "stateMutability": "view",
      "type": "function"
    },
    {
      "inputs": [],
      "name": "minWager",
      "outputs": [
        {
          "internalType": "uint256",
          "name": "",
          "type": "uint256"
        }
      ],
      "stateMutability": "view",
      "type": "function"
    },
    {
      "inputs": [],
      "name": "owner",
      "outputs": [
        {
          "internalType": "address",
          "name": "",
          "type": "address"
        }
      ],
      "stateMutability": "view",
      "type": "function"
    },
    {
      "inputs": [
        {
          "internalType": "uint256",
          "name": "gameID",
          "type": "uint256"
        }
      ],
      "name": "playCounts",
      "outputs": [
        {
          "internalType": "uint16",
          "name": "playCount",
          "type": "uint16"
        }
      ],
      "stateMutability": "view",
      "type": "function"
    },
    {
      "inputs": [
        {
          "internalType": "uint256",
          "name": "gameID",
          "type": "uint256"
        },
        {
          "internalType": "enum Coin.Side",
          "name": "coinSide",
          "type": "uint8"
        },
        {
          "internalType": "bytes32",
          "name": "proofOfChance",
          "type": "bytes32"
        }
      ],
      "name": "playGame",
      "outputs": [],
      "stateMutability": "payable",
      "type": "function"
    },
    {
      "inputs": [
        {
          "internalType": "uint256",
          "name": "gameID",
          "type": "uint256"
        },
        {
          "internalType": "uint16",
          "name": "playID",
          "type": "uint16"
        }
      ],
      "name": "proofOfChances",
      "outputs": [
        {
          "internalType": "bytes32",
          "name": "proofOfChance",
          "type": "bytes32"
        }
      ],
      "stateMutability": "view",
      "type": "function"
    },
    {
      "inputs": [
        {
          "internalType": "uint256[]",
          "name": "gameIDs",
          "type": "uint256[]"
        }
      ],
      "name": "refundExpiredGamePlayersForAllGames",
      "outputs": [],
      "stateMutability": "nonpayable",
      "type": "function"
    },
    {
      "inputs": [
        {
          "internalType": "uint256",
          "name": "gameID",
          "type": "uint256"
        },
        {
          "internalType": "bytes[]",
          "name": "chanceAndSalts",
          "type": "bytes[]"
        }
      ],
      "name": "revealChancesAndCreditWinners",
      "outputs": [],
      "stateMutability": "nonpayable",
      "type": "function"
    },
    {
      "inputs": [],
      "name": "serviceChargePercent",
      "outputs": [
        {
          "internalType": "uint8",
          "name": "",
          "type": "uint8"
        }
      ],
      "stateMutability": "view",
      "type": "function"
    },
    {
      "inputs": [
        {
          "internalType": "bool",
          "name": "isOperational_",
          "type": "bool"
        }
      ],
      "name": "setIsOperational",
      "outputs": [],
      "stateMutability": "nonpayable",
      "type": "function"
    },
    {
      "inputs": [
        {
          "internalType": "address",
          "name": "newOwner",
          "type": "address"
        }
      ],
      "name": "transferOwnership",
      "outputs": [],
      "stateMutability": "nonpayable",
      "type": "function"
    },
    {
      "inputs": [
        {
          "internalType": "uint16",
          "name": "maxNumberOfPlayers_",
          "type": "uint16"
        }
      ],
      "name": "updateMaxNumberOfPlayers",
      "outputs": [],
      "stateMutability": "nonpayable",
      "type": "function"
    },
    {
      "inputs": [
        {
          "internalType": "uint16",
          "name": "minWager_",
          "type": "uint16"
        }
      ],
      "name": "updateMinWagerOfPlayers",
      "outputs": [],
      "stateMutability": "nonpayable",
      "type": "function"
    },
    {
      "inputs": [
        {
          "internalType": "uint8",
          "name": "serviceChargePercent_",
          "type": "uint8"
        }
      ],
      "name": "updateServiceChargePercent",
      "outputs": [],
      "stateMutability": "nonpayable",
      "type": "function"
    },
    {
      "inputs": [
        {
          "internalType": "address payable",
          "name": "wallets_",
          "type": "address"
        }
      ],
      "name": "updateWallets",
      "outputs": [],
      "stateMutability": "nonpayable",
      "type": "function"
    },
    {
      "inputs": [],
      "name": "wallets",
      "outputs": [
        {
          "internalType": "contract Wallets",
          "name": "",
          "type": "address"
        }
      ],
      "stateMutability": "view",
      "type": "function"
    },
    {
      "stateMutability": "payable",
      "type": "receive"
    }
  ],
  "transactionHash": "0x4f159cd21eb7d59c34bff501cb4af10bcbda86b41a57ce205ea0ac1f318948ff",
  "args": [
    "0x42c95416B24046031310029a0531BA49592bAcbF",
    20,
    "1000000000000000000"
  ],
  "numDeployments": 1,
  "solcInputHash": "76bb3b4c0c47a91f5e5c39f63279adf3",
  "bytecode": "0x60806040526001600a60146101000a81548160ff0219169083151502179055506008600a60156101000a81548160ff021916908360ff1602179055503480156200004857600080fd5b50604051620030193803806200301983398181016040528101906200006e919062000297565b6200007f33620000ed60201b60201c565b82600e60006101000a81548173ffffffffffffffffffffffffffffffffffffffff021916908373ffffffffffffffffffffffffffffffffffffffff16021790555081600c60006101000a81548161ffff021916908361ffff16021790555080600b81905550505050620002f3565b6000600a60009054906101000a900473ffffffffffffffffffffffffffffffffffffffff16905081600a60006101000a81548173ffffffffffffffffffffffffffffffffffffffff021916908373ffffffffffffffffffffffffffffffffffffffff1602179055508173ffffffffffffffffffffffffffffffffffffffff168173ffffffffffffffffffffffffffffffffffffffff167f8be0079c531659141344cd1fd0a4f28419497f9722a3daafe3b4186f6b6457e060405160405180910390a35050565b600080fd5b600073ffffffffffffffffffffffffffffffffffffffff82169050919050565b6000620001e582620001b8565b9050919050565b620001f781620001d8565b81146200020357600080fd5b50565b6000815190506200021781620001ec565b92915050565b600061ffff82169050919050565b62000236816200021d565b81146200024257600080fd5b50565b60008151905062000256816200022b565b92915050565b6000819050919050565b62000271816200025c565b81146200027d57600080fd5b50565b600081519050620002918162000266565b92915050565b600080600060608486031215620002b357620002b2620001b3565b5b6000620002c38682870162000206565b9350506020620002d68682870162000245565b9250506040620002e98682870162000280565b9150509250925092565b612d1680620003036000396000f3fe6080604052600436106101395760003560e01c80637d627c16116100ab578063c5409ead1161006f578063c5409ead14610416578063cfd9520a1461043f578063d2f4a50a14610468578063f2fde38b14610493578063fb632b7c146104bc578063fee445cc146104e757610148565b80637d627c16146103435780638da5cb5b1461036c578063b5ece92314610397578063bb9c3f2b146103c0578063c122212f146103eb57610148565b806332d54997116100fd57806332d549971461020d57806339a21b0b1461024a57806353e636fc14610273578063728fdffa146102b05780637737f50d146102db5780637cb4baf91461031857610148565b8063106608591461014d57806318e70bd8146101765780631a7d9cad1461019f5780632851a5cf146101bb5780632cda6e77146101e457610148565b3661014857610146610503565b005b600080fd5b34801561015957600080fd5b50610174600480360381019061016f9190611de5565b610593565b005b34801561018257600080fd5b5061019d60048036038101906101989190611fd7565b610627565b005b6101b960048036038101906101b491906120c8565b610a14565b005b3480156101c757600080fd5b506101e260048036038101906101dd91906121a1565b610ba9565b005b3480156101f057600080fd5b5061020b60048036038101906102069190612207565b610bf5565b005b34801561021957600080fd5b50610234600480360381019061022f9190612234565b610c58565b6040516102419190612270565b60405180910390f35b34801561025657600080fd5b50610271600480360381019061026c919061228b565b610c8b565b005b34801561027f57600080fd5b5061029a600480360381019061029591906122d4565b610cd7565b6040516102a79190612323565b60405180910390f35b3480156102bc57600080fd5b506102c5610cfc565b6040516102d2919061234d565b60405180910390f35b3480156102e757600080fd5b5061030260048036038101906102fd9190612234565b610d10565b60405161030f919061234d565b60405180910390f35b34801561032457600080fd5b5061032d610d31565b60405161033a9190612377565b60405180910390f35b34801561034f57600080fd5b5061036a60048036038101906103659190612392565b610d44565b005b34801561037857600080fd5b50610381610d6c565b60405161038e91906123e0565b60405180910390f35b3480156103a357600080fd5b506103be60048036038101906103b99190612433565b610d96565b005b3480156103cc57600080fd5b506103d5610dbb565b6040516103e29190612270565b60405180910390f35b3480156103f757600080fd5b50610400610dc1565b60405161040d91906123e0565b60405180910390f35b34801561042257600080fd5b5061043d60048036038101906104389190612460565b610dd0565b005b34801561044b57600080fd5b5061046660048036038101906104619190612392565b610e1e565b005b34801561047457600080fd5b5061047d610e34565b60405161048a91906124ff565b60405180910390f35b34801561049f57600080fd5b506104ba60048036038101906104b59190612546565b610e5a565b005b3480156104c857600080fd5b506104d1610e6e565b6040516104de9190612270565b60405180910390f35b61050160048036038101906104fc9190612573565b610e74565b005b600e60009054906101000a900473ffffffffffffffffffffffffffffffffffffffff1673ffffffffffffffffffffffffffffffffffffffff166312314e9734336040518363ffffffff1660e01b815260040161055f91906123e0565b6000604051808303818588803b15801561057857600080fd5b505af115801561058c573d6000803e3d6000fd5b5050505050565b61059b6111e0565b60005b82518160ff161015610622576000838260ff16815181106105c2576105c16125c6565b5b602002602001015190506105d68184611259565b807fd617e9095b23d7bb3907d94521de27edce9fd9923dfb73805aa57d4f5338bb54846040516106069190612270565b60405180910390a250808061061a90612624565b91505061059e565b505050565b61062f6111e0565b816002600061063d836112ae565b90508160038111156106525761065161264d565b5b8160038111156106655761066461264d565b5b146106ab578282826040517f7765da350000000000000000000000000000000000000000000000000000000081526004016106a2939291906126c4565b60405180910390fd5b600080600090505b6001600088815260200190815260200160002060009054906101000a900461ffff1661ffff168161ffff1610156108e7576000868261ffff16815181106106fd576106fc6125c6565b5b60200260200101519050600060018361071691906126fb565b9050600660008a815260200190815260200160002060008261ffff1661ffff1681526020019081526020016000205460028360405161075591906127a2565b602060405180830381855afa158015610772573d6000803e3d6000fd5b5050506040513d601f19601f8201168201806040525081019061079591906127ce565b146107cc576040517f402fb0a400000000000000000000000000000000000000000000000000000000815260040160405180910390fd5b6000828060200190518101906107e291906128ab565b50905060005b60108160ff161015610893576000828260ff166010811061080c5761080b6125c6565b5b1a60f81b9050600060f81b817effffffffffffffffffffffffffffffffffffffffffffffffffffffffffffff1916036108455750610893565b600060018111156108595761085861264d565b5b87600181111561086c5761086b61264d565b5b0361087a576001965061087f565b600096505b50808061088b90612624565b9150506107e8565b508161ffff168a7fa1ffc642177ab118fa3d9c64797cbc129024fdd953e7fc92c64eb358d2eaccfa856040516108c99190612935565b60405180910390a350505080806108df90612957565b9150506106b3565b5060006003600088815260200190815260200160002060008360018111156109125761091161264d565b5b60018111156109245761092361264d565b5b81526020019081526020016000208054806020026020016040519081016040528092919081815260200182805480156109b257602002820191906000526020600020905b8160009054906101000a900473ffffffffffffffffffffffffffffffffffffffff1673ffffffffffffffffffffffffffffffffffffffff1681526020019060010190808311610968575b5050505050905060006109c588836112fd565b90506109d0886113ec565b877fa3f5520e27ebcfe38fd78c3854e39d00e8e9f7061551105f86fe8d1596ef84b88483604051610a029291906129c9565b60405180910390a25050505050505050565b600a60149054906101000a900460ff16610a5a576040517ffececd2700000000000000000000000000000000000000000000000000000000815260040160405180910390fd5b600260ff168461ffff161015610a9c576040517f72cc005700000000000000000000000000000000000000000000000000000000815260040160405180910390fd5b600c60009054906101000a900461ffff1661ffff168461ffff161115610aee576040517f5473ed1a00000000000000000000000000000000000000000000000000000000815260040160405180910390fd5b60006001600d54610aff91906129f2565b9050610b0961142b565b610b13818761143f565b610b1d818761145b565b610b2781866114f0565b610b318185611259565b600d600081548092919060010191905055503373ffffffffffffffffffffffffffffffffffffffff16817fff4ce5d936207f27c07633704e6d1a8aa0d1ae75aad73192582381fe9a2ed20687878a604051610b8e93929190612a26565b60405180910390a3610ba1818484611522565b505050505050565b610bb16111e0565b80600e60006101000a81548173ffffffffffffffffffffffffffffffffffffffff021916908373ffffffffffffffffffffffffffffffffffffffff16021790555050565b610bfd6111e0565b60648160ff1610610c3a576040517f4756d23c00000000000000000000000000000000000000000000000000000000815260040160405180910390fd5b80600a60156101000a81548160ff021916908360ff16021790555050565b60006064600a60159054906101000a900460ff1660ff1683610c7a9190612a5d565b610c849190612ace565b9050919050565b60005b81518160ff161015610cd357610cc0828260ff1681518110610cb357610cb26125c6565b5b6020026020010151611834565b8080610ccb90612624565b915050610c8e565b5050565b6006602052816000526040600020602052806000526040600020600091509150505481565b600c60009054906101000a900461ffff1681565b60016020528060005260406000206000915054906101000a900461ffff1681565b600a60159054906101000a900460ff1681565b610d4c6111e0565b80600c60006101000a81548161ffff021916908361ffff16021790555050565b6000600a60009054906101000a900473ffffffffffffffffffffffffffffffffffffffff16905090565b610d9e6111e0565b80600a60146101000a81548160ff02191690831515021790555050565b600b5481565b6000610dcb610d6c565b905090565b610dd86111e0565b610de28282611259565b817fd617e9095b23d7bb3907d94521de27edce9fd9923dfb73805aa57d4f5338bb5482604051610e129190612270565b60405180910390a25050565b610e266111e0565b8061ffff16600b8190555050565b600e60009054906101000a900473ffffffffffffffffffffffffffffffffffffffff1681565b610e626111e0565b610e6b81611a64565b50565b600d5481565b600a60149054906101000a900460ff16610eba576040517ffececd2700000000000000000000000000000000000000000000000000000000815260040160405180910390fd5b82600080610ec7836112ae565b9050816003811115610edc57610edb61264d565b5b816003811115610eef57610eee61264d565b5b14610f35578282826040517f7765da35000000000000000000000000000000000000000000000000000000008152600401610f2c939291906126c4565b60405180910390fd5b858560006001600084815260200190815260200160002060009054906101000a900461ffff166002600085815260200190815260200160002060009054906101000a900461ffff16610f879190612aff565b90506000600460008581526020019081526020016000206000806001811115610fb357610fb261264d565b5b6001811115610fc557610fc461264d565b5b815260200190815260200160002060009054906101000a900461ffff169050600060046000868152602001908152602001600020600060018081111561100e5761100d61264d565b5b60018111156110205761101f61264d565b5b815260200190815260200160002060009054906101000a900461ffff16905060018361ffff16148015611066575060008261ffff161480611065575060008161ffff16145b5b156110f0576000808361ffff16036110815760009050611086565b600190505b8060018111156110995761109861264d565b5b8560018111156110ac576110ab61264d565b5b146110ee57806040517f14759b500000000000000000000000000000000000000000000000000000000081526004016110e59190612b35565b60405180910390fd5b505b8a600080600083815260200190815260200160002060003373ffffffffffffffffffffffffffffffffffffffff1673ffffffffffffffffffffffffffffffffffffffff16815260200190815260200160002060009054906101000a900461ffff16905060008161ffff16111561119d57806040517fccfdba1f000000000000000000000000000000000000000000000000000000008152600401611194919061234d565b60405180910390fd5b6111a561142b565b60006111b08e611b2a565b90506111bc8e8261145b565b6111c78e8e8e611522565b6111d08e611b47565b5050505050505050505050505050565b3373ffffffffffffffffffffffffffffffffffffffff166111ff610d6c565b73ffffffffffffffffffffffffffffffffffffffff161461125757336040517f118cdaa700000000000000000000000000000000000000000000000000000000815260040161124e91906123e0565b60405180910390fd5b565b428111611292576040517f4257cab200000000000000000000000000000000000000000000000000000000815260040160405180910390fd5b8060096000848152602001908152602001600020819055505050565b600042600960008481526020019081526020016000205410156112d457600190506112f8565b6008600083815260200190815260200160002060009054906101000a900460ff1690505b919050565b60008061130984611b2a565b905060006001600086815260200190815260200160002060009054906101000a900461ffff1661ffff168261133e9190612a5d565b9050600061134d828651611bb1565b9050600e60009054906101000a900473ffffffffffffffffffffffffffffffffffffffff1673ffffffffffffffffffffffffffffffffffffffff1663c288e4048787846040518463ffffffff1660e01b81526004016113ae93929190612c0e565b600060405180830381600087803b1580156113c857600080fd5b505af11580156113dc573d6000803e3d6000fd5b5050505080935050505092915050565b60036008600083815260200190815260200160002060006101000a81548160ff021916908360038111156114235761142261264d565b5b021790555050565b600034111561143d5761143c610503565b5b565b8060076000848152602001908152602001600020819055505050565b600e60009054906101000a900473ffffffffffffffffffffffffffffffffffffffff1673ffffffffffffffffffffffffffffffffffffffff1663037e34e58333846040518463ffffffff1660e01b81526004016114ba93929190612c4c565b600060405180830381600087803b1580156114d457600080fd5b505af11580156114e8573d6000803e3d6000fd5b505050505050565b806002600084815260200190815260200160002060006101000a81548161ffff021916908361ffff1602179055505050565b6000600180600086815260200190815260200160002060009054906101000a900461ffff1661155191906126fb565b90508060008086815260200190815260200160002060003373ffffffffffffffffffffffffffffffffffffffff1673ffffffffffffffffffffffffffffffffffffffff16815260200190815260200160002060006101000a81548161ffff021916908361ffff160217905550816006600086815260200190815260200160002060008361ffff1661ffff168152602001908152602001600020819055506003600085815260200190815260200160002060008460018111156116165761161561264d565b5b60018111156116285761162761264d565b5b8152602001908152602001600020339080600181540180825580915050600190039060005260206000200160009091909190916101000a81548173ffffffffffffffffffffffffffffffffffffffff021916908373ffffffffffffffffffffffffffffffffffffffff16021790555060056000858152602001908152602001600020339080600181540180825580915050600190039060005260206000200160009091909190916101000a81548173ffffffffffffffffffffffffffffffffffffffff021916908373ffffffffffffffffffffffffffffffffffffffff1602179055506004600085815260200190815260200160002060008460018111156117335761173261264d565b5b60018111156117455761174461264d565b5b8152602001908152602001600020600081819054906101000a900461ffff168092919061177190612957565b91906101000a81548161ffff021916908361ffff1602179055505060016000858152602001908152602001600020600081819054906101000a900461ffff16809291906117bd90612957565b91906101000a81548161ffff021916908361ffff160217905550503373ffffffffffffffffffffffffffffffffffffffff168161ffff16857fe7b36541da149ae31f5dd2085cea9f899aa58f8b33bb0db2be6acfe1d31515e58686604051611826929190612c83565b60405180910390a450505050565b61183c6111e0565b806001600061184a836112ae565b905081600381111561185f5761185e61264d565b5b8160038111156118725761187161264d565b5b146118b8578282826040517f7765da350000000000000000000000000000000000000000000000000000000081526004016118af939291906126c4565b60405180910390fd5b60006005600086815260200190815260200160002080548060200260200160405190810160405280929190818152602001828054801561194d57602002820191906000526020600020905b8160009054906101000a900473ffffffffffffffffffffffffffffffffffffffff1673ffffffffffffffffffffffffffffffffffffffff1681526020019060010190808311611903575b5050505050905060008151905060008161ffff1661196a88611b2a565b6119749190612a5d565b90506000611986828461ffff16611bb1565b9050600e60009054906101000a900473ffffffffffffffffffffffffffffffffffffffff1673ffffffffffffffffffffffffffffffffffffffff1663c288e4048986846040518463ffffffff1660e01b81526004016119e793929190612c0e565b600060405180830381600087803b158015611a0157600080fd5b505af1158015611a15573d6000803e3d6000fd5b50505050611a22886113ec565b877f483a9ad42b66e69a3096814ad798345a0ed09694552a5b8a04abce8a0ba6fa2582604051611a529190612270565b60405180910390a25050505050505050565b6000600a60009054906101000a900473ffffffffffffffffffffffffffffffffffffffff16905081600a60006101000a81548173ffffffffffffffffffffffffffffffffffffffff021916908373ffffffffffffffffffffffffffffffffffffffff1602179055508173ffffffffffffffffffffffffffffffffffffffff168173ffffffffffffffffffffffffffffffffffffffff167f8be0079c531659141344cd1fd0a4f28419497f9722a3daafe3b4186f6b6457e060405160405180910390a35050565b600060076000838152602001908152602001600020549050919050565b60006001600083815260200190815260200160002060009054906101000a900461ffff16905060006002600084815260200190815260200160002060009054906101000a900461ffff1690508061ffff168261ffff1603611bac57611bab83611c03565b5b505050565b6000808284611bc09190612ace565b90506064600a60159054906101000a900460ff1660ff1682611be29190612a5d565b611bec9190612ace565b81611bf79190612cac565b90508091505092915050565b60026008600083815260200190815260200160002060006101000a81548160ff02191690836003811115611c3a57611c3961264d565b5b021790555050565b6000604051905090565b600080fd5b600080fd5b600080fd5b6000601f19601f8301169050919050565b7f4e487b7100000000000000000000000000000000000000000000000000000000600052604160045260246000fd5b611ca482611c5b565b810181811067ffffffffffffffff82111715611cc357611cc2611c6c565b5b80604052505050565b6000611cd6611c42565b9050611ce28282611c9b565b919050565b600067ffffffffffffffff821115611d0257611d01611c6c565b5b602082029050602081019050919050565b600080fd5b6000819050919050565b611d2b81611d18565b8114611d3657600080fd5b50565b600081359050611d4881611d22565b92915050565b6000611d61611d5c84611ce7565b611ccc565b90508083825260208201905060208402830185811115611d8457611d83611d13565b5b835b81811015611dad5780611d998882611d39565b845260208401935050602081019050611d86565b5050509392505050565b600082601f830112611dcc57611dcb611c56565b5b8135611ddc848260208601611d4e565b91505092915050565b60008060408385031215611dfc57611dfb611c4c565b5b600083013567ffffffffffffffff811115611e1a57611e19611c51565b5b611e2685828601611db7565b9250506020611e3785828601611d39565b9150509250929050565b600067ffffffffffffffff821115611e5c57611e5b611c6c565b5b602082029050602081019050919050565b600080fd5b600067ffffffffffffffff821115611e8d57611e8c611c6c565b5b611e9682611c5b565b9050602081019050919050565b82818337600083830152505050565b6000611ec5611ec084611e72565b611ccc565b905082815260208101848484011115611ee157611ee0611e6d565b5b611eec848285611ea3565b509392505050565b600082601f830112611f0957611f08611c56565b5b8135611f19848260208601611eb2565b91505092915050565b6000611f35611f3084611e41565b611ccc565b90508083825260208201905060208402830185811115611f5857611f57611d13565b5b835b81811015611f9f57803567ffffffffffffffff811115611f7d57611f7c611c56565b5b808601611f8a8982611ef4565b85526020850194505050602081019050611f5a565b5050509392505050565b600082601f830112611fbe57611fbd611c56565b5b8135611fce848260208601611f22565b91505092915050565b60008060408385031215611fee57611fed611c4c565b5b6000611ffc85828601611d39565b925050602083013567ffffffffffffffff81111561201d5761201c611c51565b5b61202985828601611fa9565b9150509250929050565b600061ffff82169050919050565b61204a81612033565b811461205557600080fd5b50565b60008135905061206781612041565b92915050565b6002811061207a57600080fd5b50565b60008135905061208c8161206d565b92915050565b6000819050919050565b6120a581612092565b81146120b057600080fd5b50565b6000813590506120c28161209c565b92915050565b600080600080600060a086880312156120e4576120e3611c4c565b5b60006120f288828901611d39565b955050602061210388828901612058565b945050604061211488828901611d39565b93505060606121258882890161207d565b9250506080612136888289016120b3565b9150509295509295909350565b600073ffffffffffffffffffffffffffffffffffffffff82169050919050565b600061216e82612143565b9050919050565b61217e81612163565b811461218957600080fd5b50565b60008135905061219b81612175565b92915050565b6000602082840312156121b7576121b6611c4c565b5b60006121c58482850161218c565b91505092915050565b600060ff82169050919050565b6121e4816121ce565b81146121ef57600080fd5b50565b600081359050612201816121db565b92915050565b60006020828403121561221d5761221c611c4c565b5b600061222b848285016121f2565b91505092915050565b60006020828403121561224a57612249611c4c565b5b600061225884828501611d39565b91505092915050565b61226a81611d18565b82525050565b60006020820190506122856000830184612261565b92915050565b6000602082840312156122a1576122a0611c4c565b5b600082013567ffffffffffffffff8111156122bf576122be611c51565b5b6122cb84828501611db7565b91505092915050565b600080604083850312156122eb576122ea611c4c565b5b60006122f985828601611d39565b925050602061230a85828601612058565b9150509250929050565b61231d81612092565b82525050565b60006020820190506123386000830184612314565b92915050565b61234781612033565b82525050565b6000602082019050612362600083018461233e565b92915050565b612371816121ce565b82525050565b600060208201905061238c6000830184612368565b92915050565b6000602082840312156123a8576123a7611c4c565b5b60006123b684828501612058565b91505092915050565b60006123ca82612143565b9050919050565b6123da816123bf565b82525050565b60006020820190506123f560008301846123d1565b92915050565b60008115159050919050565b612410816123fb565b811461241b57600080fd5b50565b60008135905061242d81612407565b92915050565b60006020828403121561244957612448611c4c565b5b60006124578482850161241e565b91505092915050565b6000806040838503121561247757612476611c4c565b5b600061248585828601611d39565b925050602061249685828601611d39565b9150509250929050565b6000819050919050565b60006124c56124c06124bb84612143565b6124a0565b612143565b9050919050565b60006124d7826124aa565b9050919050565b60006124e9826124cc565b9050919050565b6124f9816124de565b82525050565b600060208201905061251460008301846124f0565b92915050565b612523816123bf565b811461252e57600080fd5b50565b6000813590506125408161251a565b92915050565b60006020828403121561255c5761255b611c4c565b5b600061256a84828501612531565b91505092915050565b60008060006060848603121561258c5761258b611c4c565b5b600061259a86828701611d39565b93505060206125ab8682870161207d565b92505060406125bc868287016120b3565b9150509250925092565b7f4e487b7100000000000000000000000000000000000000000000000000000000600052603260045260246000fd5b7f4e487b7100000000000000000000000000000000000000000000000000000000600052601160045260246000fd5b600061262f826121ce565b915060ff8203612642576126416125f5565b5b600182019050919050565b7f4e487b7100000000000000000000000000000000000000000000000000000000600052602160045260246000fd5b6004811061268d5761268c61264d565b5b50565b600081905061269e8261267c565b919050565b60006126ae82612690565b9050919050565b6126be816126a3565b82525050565b60006060820190506126d96000830186612261565b6126e660208301856126b5565b6126f360408301846126b5565b949350505050565b600061270682612033565b915061271183612033565b9250828201905061ffff81111561272b5761272a6125f5565b5b92915050565b600081519050919050565b600081905092915050565b60005b8381101561276557808201518184015260208101905061274a565b60008484015250505050565b600061277c82612731565b612786818561273c565b9350612796818560208601612747565b80840191505092915050565b60006127ae8284612771565b915081905092915050565b6000815190506127c88161209c565b92915050565b6000602082840312156127e4576127e3611c4c565b5b60006127f2848285016127b9565b91505092915050565b60007fffffffffffffffffffffffffffffffff0000000000000000000000000000000082169050919050565b612830816127fb565b811461283b57600080fd5b50565b60008151905061284d81612827565b92915050565b60007fffffffffffffffff00000000000000000000000000000000000000000000000082169050919050565b61288881612853565b811461289357600080fd5b50565b6000815190506128a58161287f565b92915050565b600080604083850312156128c2576128c1611c4c565b5b60006128d08582860161283e565b92505060206128e185828601612896565b9150509250929050565b600082825260208201905092915050565b600061290782612731565b61291181856128eb565b9350612921818560208601612747565b61292a81611c5b565b840191505092915050565b6000602082019050818103600083015261294f81846128fc565b905092915050565b600061296282612033565b915061ffff8203612976576129756125f5565b5b600182019050919050565b600281106129925761299161264d565b5b50565b60008190506129a382612981565b919050565b60006129b382612995565b9050919050565b6129c3816129a8565b82525050565b60006040820190506129de60008301856129ba565b6129eb6020830184612261565b9392505050565b60006129fd82611d18565b9150612a0883611d18565b9250828201905080821115612a2057612a1f6125f5565b5b92915050565b6000606082019050612a3b600083018661233e565b612a486020830185612261565b612a556040830184612261565b949350505050565b6000612a6882611d18565b9150612a7383611d18565b9250828202612a8181611d18565b91508282048414831517612a9857612a976125f5565b5b5092915050565b7f4e487b7100000000000000000000000000000000000000000000000000000000600052601260045260246000fd5b6000612ad982611d18565b9150612ae483611d18565b925082612af457612af3612a9f565b5b828204905092915050565b6000612b0a82612033565b9150612b1583612033565b9250828203905061ffff811115612b2f57612b2e6125f5565b5b92915050565b6000602082019050612b4a60008301846129ba565b92915050565b600081519050919050565b600082825260208201905092915050565b6000819050602082019050919050565b612b85816123bf565b82525050565b6000612b978383612b7c565b60208301905092915050565b6000602082019050919050565b6000612bbb82612b50565b612bc58185612b5b565b9350612bd083612b6c565b8060005b83811015612c01578151612be88882612b8b565b9750612bf383612ba3565b925050600181019050612bd4565b5085935050505092915050565b6000606082019050612c236000830186612261565b8181036020830152612c358185612bb0565b9050612c446040830184612261565b949350505050565b6000606082019050612c616000830186612261565b612c6e60208301856123d1565b612c7b6040830184612261565b949350505050565b6000604082019050612c9860008301856129ba565b612ca56020830184612314565b9392505050565b6000612cb782611d18565b9150612cc283611d18565b9250828203905081811115612cda57612cd96125f5565b5b9291505056fea2646970667358221220bf8d8cfe195cf4bd565660598108e65a47d74a8aaa0e74f05fbbb80d085d08ee64736f6c63430008140033",
  "devdoc": {
    "errors": {
      "OwnableInvalidOwner(address)": [
        {
          "details": "The owner is not a valid owner account."
        }
      ]
    },
    "kind": "dev",
    "methods": {
      "createGame(uint256,uint16,uint256,uint8,bytes32)": {
        "params": {
          "coinSide": "predicted coin side by you, the creator",
          "expiryTimestamp": "Expiry timestamp of the game",
          "numberOfPlayers": "number of participating players",
          "proofOfChance": "SHA256 hash of your chance (lucky word[s]) and a random salt combined",
          "wager": "ether value required paticipating players to pay before playing"
        }
      },
      "getServiceProviderWallet()": {
        "details": "Returns the service provider wallet owner"
      },
      "owner()": {
        "details": "Returns the address of the current owner."
      },
      "playGame(uint256,uint8,bytes32)": {
        "params": {
          "coinSide": "coin side outcome prediction",
          "gameID": "already created game ID",
          "proofOfChance": "SHA256 hash of your chance (lucky word[s]) and a random salt combined"
        }
      },
      "refundExpiredGamePlayersForAllGames(uint256[])": {
        "params": {
          "gameIDs": "game IDs of expired games"
        }
      },
      "revealChancesAndCreditWinners(uint256,bytes[])": {
        "params": {
          "chanceAndSalts": "list of the chance and salts combined in the order of their respecitive play IDs",
          "gameID": "already created game ID"
        }
      },
      "setIsOperational(bool)": {
        "details": "Sets contract operations on/off When isOperational is false, all affected write transactions except for this one will fail"
      },
      "transferOwnership(address)": {
        "details": "Transfers ownership of the contract to a new account (`newOwner`). Can only be called by the current owner."
      }
    },
    "version": 1
  },
  "userdoc": {
    "errors": {
      "OwnableUnauthorizedAccount(address)": [
        {
          "notice": "The caller account is not authorized to perform an operation."
        }
      ]
    },
    "kind": "user",
    "methods": {
      "createGame(uint256,uint16,uint256,uint8,bytes32)": {
        "notice": "Creates a new game"
      },
      "playGame(uint256,uint8,bytes32)": {
        "notice": "Allows playing an already created game"
      },
      "refundExpiredGamePlayersForAllGames(uint256[])": {
        "notice": "Batch refunds expired game players"
      },
      "revealChancesAndCreditWinners(uint256,bytes[])": {
        "notice": "Reveals the chances (lucky words) of all plays for a given game. After, it computes and stores the coinflip outcome for the given game. Then, it credits players that predicted the coinflip outcome correctly with the combined wager shared equally (after service charge deduction)"
      },
      "updateMaxNumberOfPlayers(uint16)": {
        "notice": "Updates max number of players to avoid concluding games with very high gas fee"
      },
      "updateMinWagerOfPlayers(uint16)": {
        "notice": "Updates min wager allowed"
      },
      "updateWallets(address)": {
        "notice": "Allow updating Wallets conrtact in case a PPV is ever discovered"
      }
    },
    "version": 1
  },
  "storageLayout": {
    "storage": [
      {
        "astId": 8837,
        "contract": "src/Coinflip.sol:Coinflip",
        "label": "playRecord",
        "offset": 0,
        "slot": "0",
        "type": "t_mapping(t_uint256,t_mapping(t_address,t_uint16))"
      },
      {
        "astId": 8841,
        "contract": "src/Coinflip.sol:Coinflip",
        "label": "playCounts",
        "offset": 0,
        "slot": "1",
        "type": "t_mapping(t_uint256,t_uint16)"
      },
      {
        "astId": 8845,
        "contract": "src/Coinflip.sol:Coinflip",
        "label": "numberOfPlayersPerGame",
        "offset": 0,
        "slot": "2",
        "type": "t_mapping(t_uint256,t_uint16)"
      },
      {
        "astId": 8853,
        "contract": "src/Coinflip.sol:Coinflip",
        "label": "players",
        "offset": 0,
        "slot": "3",
        "type": "t_mapping(t_uint256,t_mapping(t_enum(Side)8810,t_array(t_address)dyn_storage))"
      },
      {
        "astId": 8860,
        "contract": "src/Coinflip.sol:Coinflip",
        "label": "coinSideCounts",
        "offset": 0,
        "slot": "4",
        "type": "t_mapping(t_uint256,t_mapping(t_enum(Side)8810,t_uint16))"
      },
      {
        "astId": 8865,
        "contract": "src/Coinflip.sol:Coinflip",
        "label": "allPlayers",
        "offset": 0,
        "slot": "5",
        "type": "t_mapping(t_uint256,t_array(t_address)dyn_storage)"
      },
      {
        "astId": 8871,
        "contract": "src/Coinflip.sol:Coinflip",
        "label": "proofOfChances",
        "offset": 0,
        "slot": "6",
        "type": "t_mapping(t_uint256,t_mapping(t_uint16,t_bytes32))"
      },
      {
        "astId": 9232,
        "contract": "src/Coinflip.sol:Coinflip",
        "label": "wagers",
        "offset": 0,
        "slot": "7",
        "type": "t_mapping(t_uint256,t_uint256)"
      },
      {
        "astId": 9102,
        "contract": "src/Coinflip.sol:Coinflip",
        "label": "statuses",
        "offset": 0,
        "slot": "8",
        "type": "t_mapping(t_uint256,t_enum(Status)8823)"
      },
      {
        "astId": 9106,
        "contract": "src/Coinflip.sol:Coinflip",
        "label": "expiryTimestamps",
        "offset": 0,
        "slot": "9",
        "type": "t_mapping(t_uint256,t_uint256)"
      },
      {
        "astId": 9300,
        "contract": "src/Coinflip.sol:Coinflip",
        "label": "_owner",
        "offset": 0,
        "slot": "10",
        "type": "t_address"
      },
      {
        "astId": 9268,
        "contract": "src/Coinflip.sol:Coinflip",
        "label": "isOperational",
        "offset": 20,
        "slot": "10",
        "type": "t_bool"
      },
      {
        "astId": 9403,
        "contract": "src/Coinflip.sol:Coinflip",
        "label": "serviceChargePercent",
        "offset": 21,
        "slot": "10",
        "type": "t_uint8"
      },
      {
        "astId": 8118,
        "contract": "src/Coinflip.sol:Coinflip",
        "label": "minWager",
        "offset": 0,
        "slot": "11",
        "type": "t_uint256"
      },
      {
        "astId": 8120,
        "contract": "src/Coinflip.sol:Coinflip",
        "label": "maxNumberOfPlayers",
        "offset": 0,
        "slot": "12",
        "type": "t_uint16"
      },
      {
        "astId": 8122,
        "contract": "src/Coinflip.sol:Coinflip",
        "label": "gamesCount",
        "offset": 0,
        "slot": "13",
        "type": "t_uint256"
      },
      {
        "astId": 8125,
        "contract": "src/Coinflip.sol:Coinflip",
        "label": "wallets",
        "offset": 0,
        "slot": "14",
        "type": "t_contract(Wallets)10035"
      }
    ],
    "types": {
      "t_address": {
        "encoding": "inplace",
        "label": "address",
        "numberOfBytes": "20"
      },
      "t_array(t_address)dyn_storage": {
        "base": "t_address",
        "encoding": "dynamic_array",
        "label": "address[]",
        "numberOfBytes": "32"
      },
      "t_bool": {
        "encoding": "inplace",
        "label": "bool",
        "numberOfBytes": "1"
      },
      "t_bytes32": {
        "encoding": "inplace",
        "label": "bytes32",
        "numberOfBytes": "32"
      },
      "t_contract(Wallets)10035": {
        "encoding": "inplace",
        "label": "contract Wallets",
        "numberOfBytes": "20"
      },
      "t_enum(Side)8810": {
        "encoding": "inplace",
        "label": "enum Coin.Side",
        "numberOfBytes": "1"
      },
      "t_enum(Status)8823": {
        "encoding": "inplace",
        "label": "enum Game.Status",
        "numberOfBytes": "1"
      },
      "t_mapping(t_address,t_uint16)": {
        "encoding": "mapping",
        "key": "t_address",
        "label": "mapping(address => uint16)",
        "numberOfBytes": "32",
        "value": "t_uint16"
      },
      "t_mapping(t_enum(Side)8810,t_array(t_address)dyn_storage)": {
        "encoding": "mapping",
        "key": "t_enum(Side)8810",
        "label": "mapping(enum Coin.Side => address[])",
        "numberOfBytes": "32",
        "value": "t_array(t_address)dyn_storage"
      },
      "t_mapping(t_enum(Side)8810,t_uint16)": {
        "encoding": "mapping",
        "key": "t_enum(Side)8810",
        "label": "mapping(enum Coin.Side => uint16)",
        "numberOfBytes": "32",
        "value": "t_uint16"
      },
      "t_mapping(t_uint16,t_bytes32)": {
        "encoding": "mapping",
        "key": "t_uint16",
        "label": "mapping(uint16 => bytes32)",
        "numberOfBytes": "32",
        "value": "t_bytes32"
      },
      "t_mapping(t_uint256,t_array(t_address)dyn_storage)": {
        "encoding": "mapping",
        "key": "t_uint256",
        "label": "mapping(uint256 => address[])",
        "numberOfBytes": "32",
        "value": "t_array(t_address)dyn_storage"
      },
      "t_mapping(t_uint256,t_enum(Status)8823)": {
        "encoding": "mapping",
        "key": "t_uint256",
        "label": "mapping(uint256 => enum Game.Status)",
        "numberOfBytes": "32",
        "value": "t_enum(Status)8823"
      },
      "t_mapping(t_uint256,t_mapping(t_address,t_uint16))": {
        "encoding": "mapping",
        "key": "t_uint256",
        "label": "mapping(uint256 => mapping(address => uint16))",
        "numberOfBytes": "32",
        "value": "t_mapping(t_address,t_uint16)"
      },
      "t_mapping(t_uint256,t_mapping(t_enum(Side)8810,t_array(t_address)dyn_storage))": {
        "encoding": "mapping",
        "key": "t_uint256",
        "label": "mapping(uint256 => mapping(enum Coin.Side => address[]))",
        "numberOfBytes": "32",
        "value": "t_mapping(t_enum(Side)8810,t_array(t_address)dyn_storage)"
      },
      "t_mapping(t_uint256,t_mapping(t_enum(Side)8810,t_uint16))": {
        "encoding": "mapping",
        "key": "t_uint256",
        "label": "mapping(uint256 => mapping(enum Coin.Side => uint16))",
        "numberOfBytes": "32",
        "value": "t_mapping(t_enum(Side)8810,t_uint16)"
      },
      "t_mapping(t_uint256,t_mapping(t_uint16,t_bytes32))": {
        "encoding": "mapping",
        "key": "t_uint256",
        "label": "mapping(uint256 => mapping(uint16 => bytes32))",
        "numberOfBytes": "32",
        "value": "t_mapping(t_uint16,t_bytes32)"
      },
      "t_mapping(t_uint256,t_uint16)": {
        "encoding": "mapping",
        "key": "t_uint256",
        "label": "mapping(uint256 => uint16)",
        "numberOfBytes": "32",
        "value": "t_uint16"
      },
      "t_mapping(t_uint256,t_uint256)": {
        "encoding": "mapping",
        "key": "t_uint256",
        "label": "mapping(uint256 => uint256)",
        "numberOfBytes": "32",
        "value": "t_uint256"
      },
      "t_uint16": {
        "encoding": "inplace",
        "label": "uint16",
        "numberOfBytes": "2"
      },
      "t_uint256": {
        "encoding": "inplace",
        "label": "uint256",
        "numberOfBytes": "32"
      },
      "t_uint8": {
        "encoding": "inplace",
        "label": "uint8",
        "numberOfBytes": "1"
      }
    }
  }
}