{
  "address": "0xbDB0F46D40646B9dA057c1F74930fC75411A5e27",
  "abi": [
    {
      "inputs": [
        {
          "internalType": "address payable",
          "name": "wallets_",
          "type": "address"
        },
        {
          "internalType": "uint16",
          "name": "maxNumberOfPlayers_",
          "type": "uint16"
        },
        {
          "internalType": "uint256",
          "name": "minWager_",
          "type": "uint256"
        }
      ],
      "stateMutability": "nonpayable",
      "type": "constructor"
    },
    {
      "inputs": [
        {
          "internalType": "enum Coin.Side",
          "name": "availableCoinSide",
          "type": "uint8"
        }
      ],
      "name": "AllMatchingPlaysError",
      "type": "error"
    },
    {
      "inputs": [
        {
          "internalType": "uint16",
          "name": "playID",
          "type": "uint16"
        }
      ],
      "name": "AlreadyPlayedError",
      "type": "error"
    },
    {
      "inputs": [],
      "name": "InOperational",
      "type": "error"
    },
    {
      "inputs": [],
      "name": "InvalidExpiryTimestamp",
      "type": "error"
    },
    {
      "inputs": [
        {
          "internalType": "uint256",
          "name": "",
          "type": "uint256"
        },
        {
          "internalType": "enum Game.Status",
          "name": "expected",
          "type": "uint8"
        },
        {
          "internalType": "enum Game.Status",
          "name": "actual",
          "type": "uint8"
        }
      ],
      "name": "InvalidGameStatus",
      "type": "error"
    },
    {
      "inputs": [],
      "name": "InvalidProofOfChance",
      "type": "error"
    },
    {
      "inputs": [],
      "name": "InvalidServiceChargePercent",
      "type": "error"
    },
    {
      "inputs": [],
      "name": "MaxNumberOfPlayersError",
      "type": "error"
    },
    {
      "inputs": [],
      "name": "MinimumWagerNotMet",
      "type": "error"
    },
    {
      "inputs": [
        {
          "internalType": "address",
          "name": "owner",
          "type": "address"
        }
      ],
      "name": "OwnableInvalidOwner",
      "type": "error"
    },
    {
      "inputs": [
        {
          "internalType": "address",
          "name": "account",
          "type": "address"
        }
      ],
      "name": "OwnableUnauthorizedAccount",
      "type": "error"
    },
    {
      "anonymous": false,
      "inputs": [
        {
          "indexed": true,
          "internalType": "uint256",
          "name": "gameID",
          "type": "uint256"
        },
        {
          "indexed": false,
          "internalType": "uint256",
          "name": "refundedAmountPerPlayer",
          "type": "uint256"
        }
      ],
      "name": "ExpiredGameRefunded",
      "type": "event"
    },
    {
      "anonymous": false,
      "inputs": [
        {
          "indexed": true,
          "internalType": "uint256",
          "name": "gameID",
          "type": "uint256"
        },
        {
          "indexed": false,
          "internalType": "enum Coin.Side",
          "name": "coinSide",
          "type": "uint8"
        },
        {
          "indexed": false,
          "internalType": "uint256",
          "name": "amountForEachWinner",
          "type": "uint256"
        }
      ],
      "name": "GameCompleted",
      "type": "event"
    },
    {
      "anonymous": false,
      "inputs": [
        {
          "indexed": true,
          "internalType": "uint256",
          "name": "gameID",
          "type": "uint256"
        },
        {
          "indexed": true,
          "internalType": "address",
          "name": "creator",
          "type": "address"
        },
        {
          "indexed": false,
          "internalType": "uint16",
          "name": "numberOfPlayers",
          "type": "uint16"
        },
        {
          "indexed": false,
          "internalType": "uint256",
          "name": "expiryTimestamp",
          "type": "uint256"
        },
        {
          "indexed": false,
          "internalType": "uint256",
          "name": "wager",
          "type": "uint256"
        }
      ],
      "name": "GameCreated",
      "type": "event"
    },
    {
      "anonymous": false,
      "inputs": [
        {
          "indexed": true,
          "internalType": "uint256",
          "name": "gameID",
          "type": "uint256"
        },
        {
          "indexed": false,
          "internalType": "uint256",
          "name": "expiryTimestamp",
          "type": "uint256"
        }
      ],
      "name": "GameExpiryAdjusted",
      "type": "event"
    },
    {
      "anonymous": false,
      "inputs": [
        {
          "indexed": true,
          "internalType": "uint256",
          "name": "gameID",
          "type": "uint256"
        },
        {
          "indexed": true,
          "internalType": "uint16",
          "name": "gamePlayID",
          "type": "uint16"
        },
        {
          "indexed": false,
          "internalType": "bytes",
          "name": "chanceAndSalt",
          "type": "bytes"
        }
      ],
      "name": "GamePlayChanceRevealed",
      "type": "event"
    },
    {
      "anonymous": false,
      "inputs": [
        {
          "indexed": true,
          "internalType": "uint256",
          "name": "gameID",
          "type": "uint256"
        },
        {
          "indexed": true,
          "internalType": "uint16",
          "name": "gamePlayID",
          "type": "uint16"
        },
        {
          "indexed": true,
          "internalType": "address",
          "name": "player",
          "type": "address"
        },
        {
          "indexed": false,
          "internalType": "enum Coin.Side",
          "name": "coinSide",
          "type": "uint8"
        },
        {
          "indexed": false,
          "internalType": "bytes32",
          "name": "proofOfChance",
          "type": "bytes32"
        }
      ],
      "name": "GamePlayCreated",
      "type": "event"
    },
    {
      "anonymous": false,
      "inputs": [
        {
          "indexed": true,
          "internalType": "address",
          "name": "previousOwner",
          "type": "address"
        },
        {
          "indexed": true,
          "internalType": "address",
          "name": "newOwner",
          "type": "address"
        }
      ],
      "name": "OwnershipTransferred",
      "type": "event"
    },
    {
      "inputs": [
        {
          "internalType": "uint256",
          "name": "gameID",
          "type": "uint256"
        },
        {
          "internalType": "uint256",
          "name": "newExpiryTimestamp",
          "type": "uint256"
        }
      ],
      "name": "adjustExpiryForGame",
      "outputs": [],
      "stateMutability": "nonpayable",
      "type": "function"
    },
    {
      "inputs": [
        {
          "internalType": "uint256[]",
          "name": "gameIDs",
          "type": "uint256[]"
        },
        {
          "internalType": "uint256",
          "name": "newExpiryTimestamp",
          "type": "uint256"
        }
      ],
      "name": "adjustExpiryForGames",
      "outputs": [],
      "stateMutability": "nonpayable",
      "type": "function"
    },
    {
      "inputs": [
        {
          "internalType": "uint256",
          "name": "wager",
          "type": "uint256"
        },
        {
          "internalType": "uint16",
          "name": "numberOfPlayers",
          "type": "uint16"
        },
        {
          "internalType": "uint256",
          "name": "expiryTimestamp",
          "type": "uint256"
        },
        {
          "internalType": "enum Coin.Side",
          "name": "coinSide",
          "type": "uint8"
        },
        {
          "internalType": "bytes32",
          "name": "proofOfChance",
          "type": "bytes32"
        }
      ],
      "name": "createGame",
      "outputs": [],
      "stateMutability": "payable",
      "type": "function"
    },
    {
      "inputs": [],
      "name": "gamesCount",
      "outputs": [
        {
          "internalType": "uint256",
          "name": "",
          "type": "uint256"
        }
      ],
      "stateMutability": "view",
      "type": "function"
    },
    {
      "inputs": [
        {
          "internalType": "uint256",
          "name": "amount",
          "type": "uint256"
        }
      ],
      "name": "getServiceCharge",
      "outputs": [
        {
          "internalType": "uint256",
          "name": "",
          "type": "uint256"
        }
      ],
      "stateMutability": "view",
      "type": "function"
    },
    {
      "inputs": [],
      "name": "getServiceProviderWallet",
      "outputs": [
        {
          "internalType": "address",
          "name": "",
          "type": "address"
        }
      ],
      "stateMutability": "view",
      "type": "function"
    },
    {
      "inputs": [],
      "name": "maxNumberOfPlayers",
      "outputs": [
        {
          "internalType": "uint16",
          "name": "",
          "type": "uint16"
        }
      ],
      "stateMutability": "view",
      "type": "function"
    },
    {
      "inputs": [],
      "name": "minWager",
      "outputs": [
        {
          "internalType": "uint256",
          "name": "",
          "type": "uint256"
        }
      ],
      "stateMutability": "view",
      "type": "function"
    },
    {
      "inputs": [],
      "name": "owner",
      "outputs": [
        {
          "internalType": "address",
          "name": "",
          "type": "address"
        }
      ],
      "stateMutability": "view",
      "type": "function"
    },
    {
      "inputs": [
        {
          "internalType": "uint256",
          "name": "gameID",
          "type": "uint256"
        }
      ],
      "name": "playCounts",
      "outputs": [
        {
          "internalType": "uint16",
          "name": "playCount",
          "type": "uint16"
        }
      ],
      "stateMutability": "view",
      "type": "function"
    },
    {
      "inputs": [
        {
          "internalType": "uint256",
          "name": "gameID",
          "type": "uint256"
        },
        {
          "internalType": "enum Coin.Side",
          "name": "coinSide",
          "type": "uint8"
        },
        {
          "internalType": "bytes32",
          "name": "proofOfChance",
          "type": "bytes32"
        }
      ],
      "name": "playGame",
      "outputs": [],
      "stateMutability": "payable",
      "type": "function"
    },
    {
      "inputs": [
        {
          "internalType": "uint256",
          "name": "gameID",
          "type": "uint256"
        },
        {
          "internalType": "uint16",
          "name": "playID",
          "type": "uint16"
        }
      ],
      "name": "proofOfChances",
      "outputs": [
        {
          "internalType": "bytes32",
          "name": "proofOfChance",
          "type": "bytes32"
        }
      ],
      "stateMutability": "view",
      "type": "function"
    },
    {
      "inputs": [
        {
          "internalType": "uint256[]",
          "name": "gameIDs",
          "type": "uint256[]"
        }
      ],
      "name": "refundExpiredGamePlayersForAllGames",
      "outputs": [],
      "stateMutability": "nonpayable",
      "type": "function"
    },
    {
      "inputs": [
        {
          "internalType": "uint256",
          "name": "gameID",
          "type": "uint256"
        },
        {
          "internalType": "bytes[]",
          "name": "chanceAndSalts",
          "type": "bytes[]"
        }
      ],
      "name": "revealChancesAndCreditWinners",
      "outputs": [],
      "stateMutability": "nonpayable",
      "type": "function"
    },
    {
      "inputs": [],
      "name": "serviceChargePercent",
      "outputs": [
        {
          "internalType": "uint8",
          "name": "",
          "type": "uint8"
        }
      ],
      "stateMutability": "view",
      "type": "function"
    },
    {
      "inputs": [
        {
          "internalType": "bool",
          "name": "isOperational_",
          "type": "bool"
        }
      ],
      "name": "setIsOperational",
      "outputs": [],
      "stateMutability": "nonpayable",
      "type": "function"
    },
    {
      "inputs": [
        {
          "internalType": "address",
          "name": "newOwner",
          "type": "address"
        }
      ],
      "name": "transferOwnership",
      "outputs": [],
      "stateMutability": "nonpayable",
      "type": "function"
    },
    {
      "inputs": [
        {
          "internalType": "uint16",
          "name": "maxNumberOfPlayers_",
          "type": "uint16"
        }
      ],
      "name": "updateMaxNumberOfPlayers",
      "outputs": [],
      "stateMutability": "nonpayable",
      "type": "function"
    },
    {
      "inputs": [
        {
          "internalType": "uint256",
          "name": "minWager_",
          "type": "uint256"
        }
      ],
      "name": "updateMinWagerOfPlayers",
      "outputs": [],
      "stateMutability": "nonpayable",
      "type": "function"
    },
    {
      "inputs": [
        {
          "internalType": "uint8",
          "name": "serviceChargePercent_",
          "type": "uint8"
        }
      ],
      "name": "updateServiceChargePercent",
      "outputs": [],
      "stateMutability": "nonpayable",
      "type": "function"
    },
    {
      "inputs": [
        {
          "internalType": "address payable",
          "name": "wallets_",
          "type": "address"
        }
      ],
      "name": "updateWallets",
      "outputs": [],
      "stateMutability": "nonpayable",
      "type": "function"
    },
    {
      "inputs": [],
      "name": "wallets",
      "outputs": [
        {
          "internalType": "contract Wallets",
          "name": "",
          "type": "address"
        }
      ],
      "stateMutability": "view",
      "type": "function"
    },
    {
      "stateMutability": "payable",
      "type": "receive"
    }
  ],
  "transactionHash": "0x9e0d9b25f8fee8a6eabcc8a185f6708c3768dcc25e2f4634f4703420380b991e",
  "args": [
    "0x3BBFDf3f21Ca7E6A8141C8cBb092ea67ccB6822B",
    20,
    "40000000000000000"
  ],
  "numDeployments": 6,
  "solcInputHash": "c70b963124ee36744805d84a85670cb3",
  "bytecode": "0x6080604052600a805461ffff60a01b191661080160a01b1790553480156200002657600080fd5b5060405162001bef38038062001bef8339810160408190526200004991620000e6565b620000543362000094565b600e80546001600160a01b0319166001600160a01b039490941693909317909255600c805461ffff191661ffff92909216919091179055600b556200013f565b600a80546001600160a01b038381166001600160a01b0319831681179093556040519116919082907f8be0079c531659141344cd1fd0a4f28419497f9722a3daafe3b4186f6b6457e090600090a35050565b600080600060608486031215620000fc57600080fd5b83516001600160a01b03811681146200011457600080fd5b602085015190935061ffff811681146200012d57600080fd5b80925050604084015190509250925092565b611aa0806200014f6000396000f3fe6080604052600436106101395760003560e01c80637d627c16116100ab578063c122212f1161006f578063c122212f146103a5578063c5409ead146103ba578063d2f4a50a146103da578063f2fde38b146103fa578063fb632b7c1461041a578063fee445cc1461043057600080fd5b80637d627c16146102fd5780638da5cb5b1461031d578063b5ece9231461034f578063bb9c3f2b1461036f578063bd16f8771461038557600080fd5b806332d54997116100fd57806332d54997146101e057806339a21b0b1461021357806353e636fc14610233578063728fdffa1461026b5780637737f50d146102995780637cb4baf9146102ca57600080fd5b8063106608591461014d57806318e70bd81461016d5780631a7d9cad1461018d5780632851a5cf146101a05780632cda6e77146101c057600080fd5b3661014857610146610443565b005b600080fd5b34801561015957600080fd5b50610146610168366004611469565b6104a4565b34801561017957600080fd5b506101466101883660046114ae565b61052e565b61014661019b3660046115e6565b61084c565b3480156101ac57600080fd5b506101466101bb366004611649565b61099b565b3480156101cc57600080fd5b506101466101db36600461166d565b6109c5565b3480156101ec57600080fd5b506102006101fb366004611690565b610a11565b6040519081526020015b60405180910390f35b34801561021f57600080fd5b5061014661022e3660046116a9565b610a3e565b34801561023f57600080fd5b5061020061024e3660046116de565b600660209081526000928352604080842090915290825290205481565b34801561027757600080fd5b50600c546102869061ffff1681565b60405161ffff909116815260200161020a565b3480156102a557600080fd5b506102866102b4366004611690565b60016020526000908152604090205461ffff1681565b3480156102d657600080fd5b50600a546102eb90600160a81b900460ff1681565b60405160ff909116815260200161020a565b34801561030957600080fd5b5061014661031836600461170a565b610a7e565b34801561032957600080fd5b50600a546001600160a01b03165b6040516001600160a01b03909116815260200161020a565b34801561035b57600080fd5b5061014661036a366004611725565b610a9e565b34801561037b57600080fd5b50610200600b5481565b34801561039157600080fd5b506101466103a0366004611690565b610ac4565b3480156103b157600080fd5b50610337610ad1565b3480156103c657600080fd5b506101466103d5366004611747565b610aea565b3480156103e657600080fd5b50600e54610337906001600160a01b031681565b34801561040657600080fd5b50610146610415366004611649565b610b3a565b34801561042657600080fd5b50610200600d5481565b61014661043e366004611769565b610b4e565b600e546040516312314e9760e01b81523360048201526001600160a01b03909116906312314e979034906024016000604051808303818588803b15801561048957600080fd5b505af115801561049d573d6000803e3d6000fd5b5050505050565b6104ac610d3c565b60005b82518160ff161015610529576000838260ff16815181106104d2576104d261179e565b602002602001015190506104e68184610d7a565b807fd617e9095b23d7bb3907d94521de27edce9fd9923dfb73805aa57d4f5338bb548460405161051891815260200190565b60405180910390a2506001016104af565b505050565b610536610d3c565b816002600061054483610dac565b9050816003811115610558576105586117b4565b81600381111561056a5761056a6117b4565b1461059757828282604051637765da3560e01b815260040161058e939291906117de565b60405180910390fd5b6000805b60008781526001602052604090205461ffff9081169082161015610755576000868261ffff16815181106105d1576105d161179e565b6020026020010151905060008260016105ea9190611815565b60008a815260066020908152604080832061ffff85168452909152908190205490519192509060029061061e90859061185b565b602060405180830381855afa15801561063b573d6000803e3d6000fd5b5050506040513d601f19601f8201168201806040525081019061065e9190611877565b1461067c5760405163100bec2960e21b815260040160405180910390fd5b6000828060200190518101906106929190611890565b50905060005b60108160ff161015610709576000828260ff16601081106106bb576106bb61179e565b1a60f81b90506001600160f81b031981166000036106d95750610709565b60008760018111156106ed576106ed6117b4565b036106fb5760019650610700565b600096505b50600101610698565b508161ffff168a7fa1ffc642177ab118fa3d9c64797cbc129024fdd953e7fc92c64eb358d2eaccfa8560405161073f91906118ed565b60405180910390a383600101935050505061059b565b50600086815260036020526040812081836001811115610777576107776117b4565b6001811115610788576107886117b4565b81526020019081526020016000208054806020026020016040519081016040528092919081815260200182805480156107ea57602002820191906000526020600020905b81546001600160a01b031681526001909101906020018083116107cc575b5050505050905060006107fd8883610de0565b905061080888610e8a565b877fa3f5520e27ebcfe38fd78c3854e39d00e8e9f7061551105f86fe8d1596ef84b8848360405161083a929190611930565b60405180910390a25050505050505050565b600a54600160a01b900460ff166108765760405163fececd2760e01b815260040160405180910390fd5b600b548510156108995760405163139196d360e01b815260040160405180910390fd5b600261ffff851610156108ae576108ae61194b565b600c5461ffff90811690851611156108d957604051632a39f68d60e11b815260040160405180910390fd5b6000600d5460016108ea9190611961565b90506108f4610eae565b600081815260076020526040902086905561090f8187610ebc565b6000818152600260205260409020805461ffff191661ffff87161790556109368185610d7a565b600d805460010190556040805161ffff8716815260208101869052908101879052339082907fff4ce5d936207f27c07633704e6d1a8aa0d1ae75aad73192582381fe9a2ed2069060600160405180910390a3610993818484610f23565b505050505050565b6109a3610d3c565b600e80546001600160a01b0319166001600160a01b0392909216919091179055565b6109cd610d3c565b60648160ff16106109f1576040516311d5b48f60e21b815260040160405180910390fd5b600a805460ff909216600160a81b0260ff60a81b19909216919091179055565b600a54600090606490610a2e90600160a81b900460ff1684611974565b610a38919061198b565b92915050565b60005b81518160ff161015610a7a57610a72828260ff1681518110610a6557610a6561179e565b6020026020010151611100565b600101610a41565b5050565b610a86610d3c565b600c805461ffff191661ffff92909216919091179055565b610aa6610d3c565b600a8054911515600160a01b0260ff60a01b19909216919091179055565b610acc610d3c565b600b55565b6000610ae5600a546001600160a01b031690565b905090565b610af2610d3c565b610afc8282610d7a565b817fd617e9095b23d7bb3907d94521de27edce9fd9923dfb73805aa57d4f5338bb5482604051610b2e91815260200190565b60405180910390a25050565b610b42610d3c565b610b4b816112a8565b50565b600a54600160a01b900460ff16610b785760405163fececd2760e01b815260040160405180910390fd5b82600080610b8583610dac565b9050816003811115610b9957610b996117b4565b816003811115610bab57610bab6117b4565b14610bcf57828282604051637765da3560e01b815260040161058e939291906117de565b6000868152600160209081526040808320546002909252822054889288929091610c009161ffff90811691166119ad565b6000848152600460209081526040808320838052909152808220546001808452919092205492935061ffff918216928216918416148015610c4f575061ffff82161580610c4f575061ffff8116155b15610cb45760008261ffff16600003610c6a57506000610c6e565b5060015b806001811115610c8057610c806117b4565b856001811115610c9257610c926117b4565b14610cb2578060405163014759b560e41b815260040161058e91906119c8565b505b60008b8152602081815260408083203384529091529020548b9061ffff168015610cf75760405163ccfdba1f60e01b815261ffff8216600482015260240161058e565b610cff610eae565b60008d815260076020526040902054610d188e82610ebc565b610d238e8e8e610f23565b610d2c8e6112fa565b5050505050505050505050505050565b33610d4f600a546001600160a01b031690565b6001600160a01b031614610d785760405163118cdaa760e01b815233600482015260240161058e565b565b428111610d9a5760405163212be55960e11b815260040160405180910390fd5b60009182526009602052604090912055565b600081815260096020526040812054421115610dca57506001919050565b5060009081526008602052604090205460ff1690565b60008281526007602090815260408083205460019092528220548290610e0a9061ffff1683611974565b90506000610e1982865161132d565b600e546040516330a2390160e21b81529192506001600160a01b03169063c288e40490610e4e908990899086906004016119d6565b600060405180830381600087803b158015610e6857600080fd5b505af1158015610e7c573d6000803e3d6000fd5b509298975050505050505050565b600081815260086020526040902080546003919060ff19166001835b021790555050565b3415610d7857610d78610443565b600e5460405163037e34e560e01b815260048101849052336024820152604481018390526001600160a01b039091169063037e34e590606401600060405180830381600087803b158015610f0f57600080fd5b505af1158015610993573d6000803e3d6000fd5b6000838152600160208190526040822054610f449161ffff90911690611815565b6000858152602081815260408083203384528252808320805461ffff191661ffff861690811790915588845260068352818420908452825280832086905587835260039091528120919250846001811115610fa157610fa16117b4565b6001811115610fb257610fb26117b4565b815260208082019290925260409081016000908120805460018082018355918352848320018054336001600160a01b0319918216811790925589845260058652848420805480850182559085528685200180549091169091179055878252600490935290812091859081111561102a5761102a6117b4565b600181111561103b5761103b6117b4565b815260208101919091526040016000908120805461ffff169161105d83611a36565b82546101009290920a61ffff81810219909316918316021790915560008681526001602052604081208054909216925061109683611a36565b91906101000a81548161ffff021916908361ffff16021790555050336001600160a01b03168161ffff16857fe7b36541da149ae31f5dd2085cea9f899aa58f8b33bb0db2be6acfe1d31515e586866040516110f2929190611930565b60405180910390a450505050565b611108610d3c565b806001600061111683610dac565b905081600381111561112a5761112a6117b4565b81600381111561113c5761113c6117b4565b1461116057828282604051637765da3560e01b815260040161058e939291906117de565b6000848152600560209081526040808320805482518185028101850190935280835291929091908301828280156111c057602002820191906000526020600020905b81546001600160a01b031681526001909101906020018083116111a2575b5050505050905060008151905060008161ffff166111ea8860009081526007602052604090205490565b6111f49190611974565b90506000611206828461ffff1661132d565b600e546040516330a2390160e21b81529192506001600160a01b03169063c288e4049061123b908b90889086906004016119d6565b600060405180830381600087803b15801561125557600080fd5b505af1158015611269573d6000803e3d6000fd5b5050505061127688610e8a565b877f483a9ad42b66e69a3096814ad798345a0ed09694552a5b8a04abce8a0ba6fa258260405161083a91815260200190565b600a80546001600160a01b038381166001600160a01b0319831681179093556040519116919082907f8be0079c531659141344cd1fd0a4f28419497f9722a3daafe3b4186f6b6457e090600090a35050565b60008181526001602090815260408083205460029092529091205461ffff91821691168082036105295761052983611373565b60008061133a838561198b565b600a5490915060649061135790600160a81b900460ff1683611974565b611361919061198b565b61136b9082611a57565b949350505050565b600081815260086020526040902080546002919060ff1916600183610ea6565b634e487b7160e01b600052604160045260246000fd5b604051601f8201601f1916810167ffffffffffffffff811182821017156113d2576113d2611393565b604052919050565b600067ffffffffffffffff8211156113f4576113f4611393565b5060051b60200190565b600082601f83011261140f57600080fd5b8135602061142461141f836113da565b6113a9565b82815260059290921b8401810191818101908684111561144357600080fd5b8286015b8481101561145e5780358352918301918301611447565b509695505050505050565b6000806040838503121561147c57600080fd5b823567ffffffffffffffff81111561149357600080fd5b61149f858286016113fe565b95602094909401359450505050565b60008060408084860312156114c257600080fd5b8335925060208085013567ffffffffffffffff808211156114e257600080fd5b8187019150601f88818401126114f757600080fd5b823561150561141f826113da565b81815260059190911b8401850190858101908b83111561152457600080fd5b8686015b838110156115ad578035868111156115405760008081fd5b8701603f81018e136115525760008081fd5b888101358781111561156657611566611393565b611577818801601f19168b016113a9565b8181528f8c83850101111561158c5760008081fd5b818c84018c83013760009181018b0191909152845250918701918701611528565b5080985050505050505050509250929050565b803561ffff811681146115d257600080fd5b919050565b8035600281106115d257600080fd5b600080600080600060a086880312156115fe57600080fd5b8535945061160e602087016115c0565b935060408601359250611623606087016115d7565b949793965091946080013592915050565b6001600160a01b0381168114610b4b57600080fd5b60006020828403121561165b57600080fd5b813561166681611634565b9392505050565b60006020828403121561167f57600080fd5b813560ff8116811461166657600080fd5b6000602082840312156116a257600080fd5b5035919050565b6000602082840312156116bb57600080fd5b813567ffffffffffffffff8111156116d257600080fd5b61136b848285016113fe565b600080604083850312156116f157600080fd5b82359150611701602084016115c0565b90509250929050565b60006020828403121561171c57600080fd5b611666826115c0565b60006020828403121561173757600080fd5b8135801515811461166657600080fd5b6000806040838503121561175a57600080fd5b50508035926020909101359150565b60008060006060848603121561177e57600080fd5b8335925061178e602085016115d7565b9150604084013590509250925092565b634e487b7160e01b600052603260045260246000fd5b634e487b7160e01b600052602160045260246000fd5b600481106117da576117da6117b4565b9052565b838152606081016117f260208301856117ca565b61136b60408301846117ca565b634e487b7160e01b600052601160045260246000fd5b61ffff818116838216019080821115611830576118306117ff565b5092915050565b60005b8381101561185257818101518382015260200161183a565b50506000910152565b6000825161186d818460208701611837565b9190910192915050565b60006020828403121561188957600080fd5b5051919050565b600080604083850312156118a357600080fd5b82516fffffffffffffffffffffffffffffffff19811681146118c457600080fd5b60208401519092506001600160c01b0319811681146118e257600080fd5b809150509250929050565b602081526000825180602084015261190c816040850160208701611837565b601f01601f19169190910160400192915050565b600281106117da576117da6117b4565b6040810161193e8285611920565b8260208301529392505050565b634e487b7160e01b600052600160045260246000fd5b80820180821115610a3857610a386117ff565b8082028115828204841417610a3857610a386117ff565b6000826119a857634e487b7160e01b600052601260045260246000fd5b500490565b61ffff828116828216039080821115611830576118306117ff565b60208101610a388284611920565b6000606082018583526020606081850152818651808452608086019150828801935060005b81811015611a205784516001600160a01b0316835293830193918301916001016119fb565b5050809350505050826040830152949350505050565b600061ffff808316818103611a4d57611a4d6117ff565b6001019392505050565b81810381811115610a3857610a386117ff56fea264697066735822122019349c8349c0c7f933a34597a96dfefaba8bda4692399c6339d5c4219c83762b64736f6c63430008140033",
  "devdoc": {
    "errors": {
      "OwnableInvalidOwner(address)": [
        {
          "details": "The owner is not a valid owner account."
        }
      ]
    },
    "kind": "dev",
    "methods": {
      "createGame(uint256,uint16,uint256,uint8,bytes32)": {
        "params": {
          "coinSide": "predicted coin side by you, the creator",
          "expiryTimestamp": "Expiry timestamp of the game",
          "numberOfPlayers": "number of participating players",
          "proofOfChance": "SHA256 hash of your chance (lucky word[s]) and a random salt combined",
          "wager": "ether value required paticipating players to pay before playing"
        }
      },
      "getServiceProviderWallet()": {
        "details": "Returns the service provider wallet owner"
      },
      "owner()": {
        "details": "Returns the address of the current owner."
      },
      "playGame(uint256,uint8,bytes32)": {
        "params": {
          "coinSide": "coin side outcome prediction",
          "gameID": "already created game ID",
          "proofOfChance": "SHA256 hash of your chance (lucky word[s]) and a random salt combined"
        }
      },
      "refundExpiredGamePlayersForAllGames(uint256[])": {
        "params": {
          "gameIDs": "game IDs of expired games"
        }
      },
      "revealChancesAndCreditWinners(uint256,bytes[])": {
        "params": {
          "chanceAndSalts": "list of the chance and salts combined in the order of their respecitive play IDs",
          "gameID": "already created game ID"
        }
      },
      "setIsOperational(bool)": {
        "details": "Sets contract operations on/off When isOperational is false, all affected write transactions except for this one will fail"
      },
      "transferOwnership(address)": {
        "details": "Transfers ownership of the contract to a new account (`newOwner`). Can only be called by the current owner."
      }
    },
    "version": 1
  },
  "userdoc": {
    "errors": {
      "OwnableUnauthorizedAccount(address)": [
        {
          "notice": "The caller account is not authorized to perform an operation."
        }
      ]
    },
    "kind": "user",
    "methods": {
      "createGame(uint256,uint16,uint256,uint8,bytes32)": {
        "notice": "Creates a new game"
      },
      "playGame(uint256,uint8,bytes32)": {
        "notice": "Allows playing an already created game"
      },
      "refundExpiredGamePlayersForAllGames(uint256[])": {
        "notice": "Batch refunds expired game players"
      },
      "revealChancesAndCreditWinners(uint256,bytes[])": {
        "notice": "Reveals the chances (lucky words) of all plays for a given game. After, it computes and stores the coinflip outcome for the given game. Then, it credits players that predicted the coinflip outcome correctly with the combined wager shared equally (after service charge deduction)"
      },
      "updateMaxNumberOfPlayers(uint16)": {
        "notice": "Updates max number of players to avoid concluding games with very high gas fee"
      },
      "updateMinWagerOfPlayers(uint256)": {
        "notice": "Updates min wager allowed"
      },
      "updateWallets(address)": {
        "notice": "Allow updating Wallets conrtact in case a PPV is ever discovered"
      }
    },
    "version": 1
  },
  "storageLayout": {
    "storage": [
      {
        "astId": 751,
        "contract": "src/Coinflip.sol:Coinflip",
        "label": "playRecord",
        "offset": 0,
        "slot": "0",
        "type": "t_mapping(t_uint256,t_mapping(t_address,t_uint16))"
      },
      {
        "astId": 755,
        "contract": "src/Coinflip.sol:Coinflip",
        "label": "playCounts",
        "offset": 0,
        "slot": "1",
        "type": "t_mapping(t_uint256,t_uint16)"
      },
      {
        "astId": 759,
        "contract": "src/Coinflip.sol:Coinflip",
        "label": "numberOfPlayersPerGame",
        "offset": 0,
        "slot": "2",
        "type": "t_mapping(t_uint256,t_uint16)"
      },
      {
        "astId": 767,
        "contract": "src/Coinflip.sol:Coinflip",
        "label": "players",
        "offset": 0,
        "slot": "3",
        "type": "t_mapping(t_uint256,t_mapping(t_enum(Side)725,t_array(t_address)dyn_storage))"
      },
      {
        "astId": 774,
        "contract": "src/Coinflip.sol:Coinflip",
        "label": "coinSideCounts",
        "offset": 0,
        "slot": "4",
        "type": "t_mapping(t_uint256,t_mapping(t_enum(Side)725,t_uint16))"
      },
      {
        "astId": 779,
        "contract": "src/Coinflip.sol:Coinflip",
        "label": "allPlayers",
        "offset": 0,
        "slot": "5",
        "type": "t_mapping(t_uint256,t_array(t_address)dyn_storage)"
      },
      {
        "astId": 785,
        "contract": "src/Coinflip.sol:Coinflip",
        "label": "proofOfChances",
        "offset": 0,
        "slot": "6",
        "type": "t_mapping(t_uint256,t_mapping(t_uint16,t_bytes32))"
      },
      {
        "astId": 1146,
        "contract": "src/Coinflip.sol:Coinflip",
        "label": "wagers",
        "offset": 0,
        "slot": "7",
        "type": "t_mapping(t_uint256,t_uint256)"
      },
      {
        "astId": 1016,
        "contract": "src/Coinflip.sol:Coinflip",
        "label": "statuses",
        "offset": 0,
        "slot": "8",
        "type": "t_mapping(t_uint256,t_enum(Status)738)"
      },
      {
        "astId": 1020,
        "contract": "src/Coinflip.sol:Coinflip",
        "label": "expiryTimestamps",
        "offset": 0,
        "slot": "9",
        "type": "t_mapping(t_uint256,t_uint256)"
      },
      {
        "astId": 1214,
        "contract": "src/Coinflip.sol:Coinflip",
        "label": "_owner",
        "offset": 0,
        "slot": "10",
        "type": "t_address"
      },
      {
        "astId": 1182,
        "contract": "src/Coinflip.sol:Coinflip",
        "label": "isOperational",
        "offset": 20,
        "slot": "10",
        "type": "t_bool"
      },
      {
        "astId": 1317,
        "contract": "src/Coinflip.sol:Coinflip",
        "label": "serviceChargePercent",
        "offset": 21,
        "slot": "10",
        "type": "t_uint8"
      },
      {
        "astId": 33,
        "contract": "src/Coinflip.sol:Coinflip",
        "label": "minWager",
        "offset": 0,
        "slot": "11",
        "type": "t_uint256"
      },
      {
        "astId": 35,
        "contract": "src/Coinflip.sol:Coinflip",
        "label": "maxNumberOfPlayers",
        "offset": 0,
        "slot": "12",
        "type": "t_uint16"
      },
      {
        "astId": 37,
        "contract": "src/Coinflip.sol:Coinflip",
        "label": "gamesCount",
        "offset": 0,
        "slot": "13",
        "type": "t_uint256"
      },
      {
        "astId": 40,
        "contract": "src/Coinflip.sol:Coinflip",
        "label": "wallets",
        "offset": 0,
        "slot": "14",
        "type": "t_contract(Wallets)1949"
      }
    ],
    "types": {
      "t_address": {
        "encoding": "inplace",
        "label": "address",
        "numberOfBytes": "20"
      },
      "t_array(t_address)dyn_storage": {
        "base": "t_address",
        "encoding": "dynamic_array",
        "label": "address[]",
        "numberOfBytes": "32"
      },
      "t_bool": {
        "encoding": "inplace",
        "label": "bool",
        "numberOfBytes": "1"
      },
      "t_bytes32": {
        "encoding": "inplace",
        "label": "bytes32",
        "numberOfBytes": "32"
      },
      "t_contract(Wallets)1949": {
        "encoding": "inplace",
        "label": "contract Wallets",
        "numberOfBytes": "20"
      },
      "t_enum(Side)725": {
        "encoding": "inplace",
        "label": "enum Coin.Side",
        "numberOfBytes": "1"
      },
      "t_enum(Status)738": {
        "encoding": "inplace",
        "label": "enum Game.Status",
        "numberOfBytes": "1"
      },
      "t_mapping(t_address,t_uint16)": {
        "encoding": "mapping",
        "key": "t_address",
        "label": "mapping(address => uint16)",
        "numberOfBytes": "32",
        "value": "t_uint16"
      },
      "t_mapping(t_enum(Side)725,t_array(t_address)dyn_storage)": {
        "encoding": "mapping",
        "key": "t_enum(Side)725",
        "label": "mapping(enum Coin.Side => address[])",
        "numberOfBytes": "32",
        "value": "t_array(t_address)dyn_storage"
      },
      "t_mapping(t_enum(Side)725,t_uint16)": {
        "encoding": "mapping",
        "key": "t_enum(Side)725",
        "label": "mapping(enum Coin.Side => uint16)",
        "numberOfBytes": "32",
        "value": "t_uint16"
      },
      "t_mapping(t_uint16,t_bytes32)": {
        "encoding": "mapping",
        "key": "t_uint16",
        "label": "mapping(uint16 => bytes32)",
        "numberOfBytes": "32",
        "value": "t_bytes32"
      },
      "t_mapping(t_uint256,t_array(t_address)dyn_storage)": {
        "encoding": "mapping",
        "key": "t_uint256",
        "label": "mapping(uint256 => address[])",
        "numberOfBytes": "32",
        "value": "t_array(t_address)dyn_storage"
      },
      "t_mapping(t_uint256,t_enum(Status)738)": {
        "encoding": "mapping",
        "key": "t_uint256",
        "label": "mapping(uint256 => enum Game.Status)",
        "numberOfBytes": "32",
        "value": "t_enum(Status)738"
      },
      "t_mapping(t_uint256,t_mapping(t_address,t_uint16))": {
        "encoding": "mapping",
        "key": "t_uint256",
        "label": "mapping(uint256 => mapping(address => uint16))",
        "numberOfBytes": "32",
        "value": "t_mapping(t_address,t_uint16)"
      },
      "t_mapping(t_uint256,t_mapping(t_enum(Side)725,t_array(t_address)dyn_storage))": {
        "encoding": "mapping",
        "key": "t_uint256",
        "label": "mapping(uint256 => mapping(enum Coin.Side => address[]))",
        "numberOfBytes": "32",
        "value": "t_mapping(t_enum(Side)725,t_array(t_address)dyn_storage)"
      },
      "t_mapping(t_uint256,t_mapping(t_enum(Side)725,t_uint16))": {
        "encoding": "mapping",
        "key": "t_uint256",
        "label": "mapping(uint256 => mapping(enum Coin.Side => uint16))",
        "numberOfBytes": "32",
        "value": "t_mapping(t_enum(Side)725,t_uint16)"
      },
      "t_mapping(t_uint256,t_mapping(t_uint16,t_bytes32))": {
        "encoding": "mapping",
        "key": "t_uint256",
        "label": "mapping(uint256 => mapping(uint16 => bytes32))",
        "numberOfBytes": "32",
        "value": "t_mapping(t_uint16,t_bytes32)"
      },
      "t_mapping(t_uint256,t_uint16)": {
        "encoding": "mapping",
        "key": "t_uint256",
        "label": "mapping(uint256 => uint16)",
        "numberOfBytes": "32",
        "value": "t_uint16"
      },
      "t_mapping(t_uint256,t_uint256)": {
        "encoding": "mapping",
        "key": "t_uint256",
        "label": "mapping(uint256 => uint256)",
        "numberOfBytes": "32",
        "value": "t_uint256"
      },
      "t_uint16": {
        "encoding": "inplace",
        "label": "uint16",
        "numberOfBytes": "2"
      },
      "t_uint256": {
        "encoding": "inplace",
        "label": "uint256",
        "numberOfBytes": "32"
      },
      "t_uint8": {
        "encoding": "inplace",
        "label": "uint8",
        "numberOfBytes": "1"
      }
    }
  }
}