{
  "address": "0xC16d5c6457436cBb7aBEAE1bcB745451292e355d",
  "abi": [
    {
      "inputs": [
        {
          "internalType": "address payable",
          "name": "wallets_",
          "type": "address"
        },
        {
          "internalType": "uint16",
          "name": "maxNumberOfPlayers_",
          "type": "uint16"
        },
        {
          "internalType": "uint256",
          "name": "minWager_",
          "type": "uint256"
        }
      ],
      "stateMutability": "nonpayable",
      "type": "constructor"
    },
    {
      "inputs": [
        {
          "internalType": "enum Coin.Side",
          "name": "availableCoinSide",
          "type": "uint8"
        }
      ],
      "name": "AllMatchingPlaysError",
      "type": "error"
    },
    {
      "inputs": [
        {
          "internalType": "uint16",
          "name": "playID",
          "type": "uint16"
        }
      ],
      "name": "AlreadyPlayedError",
      "type": "error"
    },
    {
      "inputs": [],
      "name": "InOperational",
      "type": "error"
    },
    {
      "inputs": [],
      "name": "InvalidExpiryTimestamp",
      "type": "error"
    },
    {
      "inputs": [
        {
          "internalType": "uint256",
          "name": "",
          "type": "uint256"
        },
        {
          "internalType": "enum Game.Status",
          "name": "expected",
          "type": "uint8"
        },
        {
          "internalType": "enum Game.Status",
          "name": "actual",
          "type": "uint8"
        }
      ],
      "name": "InvalidGameStatus",
      "type": "error"
    },
    {
      "inputs": [],
      "name": "InvalidProofOfChance",
      "type": "error"
    },
    {
      "inputs": [],
      "name": "InvalidServiceChargePercent",
      "type": "error"
    },
    {
      "inputs": [],
      "name": "MaxNumberOfPlayersError",
      "type": "error"
    },
    {
      "inputs": [],
      "name": "MinimumWagerNotMet",
      "type": "error"
    },
    {
      "inputs": [
        {
          "internalType": "address",
          "name": "owner",
          "type": "address"
        }
      ],
      "name": "OwnableInvalidOwner",
      "type": "error"
    },
    {
      "inputs": [
        {
          "internalType": "address",
          "name": "account",
          "type": "address"
        }
      ],
      "name": "OwnableUnauthorizedAccount",
      "type": "error"
    },
    {
      "anonymous": false,
      "inputs": [
        {
          "indexed": true,
          "internalType": "uint256",
          "name": "gameID",
          "type": "uint256"
        },
        {
          "indexed": false,
          "internalType": "uint256",
          "name": "refundedAmountPerPlayer",
          "type": "uint256"
        }
      ],
      "name": "ExpiredGameRefunded",
      "type": "event"
    },
    {
      "anonymous": false,
      "inputs": [
        {
          "indexed": true,
          "internalType": "uint256",
          "name": "gameID",
          "type": "uint256"
        },
        {
          "indexed": false,
          "internalType": "enum Coin.Side",
          "name": "coinSide",
          "type": "uint8"
        },
        {
          "indexed": false,
          "internalType": "uint256",
          "name": "amountForEachWinner",
          "type": "uint256"
        }
      ],
      "name": "GameCompleted",
      "type": "event"
    },
    {
      "anonymous": false,
      "inputs": [
        {
          "indexed": true,
          "internalType": "uint256",
          "name": "gameID",
          "type": "uint256"
        },
        {
          "indexed": true,
          "internalType": "address",
          "name": "creator",
          "type": "address"
        },
        {
          "indexed": false,
          "internalType": "uint16",
          "name": "numberOfPlayers",
          "type": "uint16"
        },
        {
          "indexed": false,
          "internalType": "uint256",
          "name": "expiryTimestamp",
          "type": "uint256"
        },
        {
          "indexed": false,
          "internalType": "uint256",
          "name": "wager",
          "type": "uint256"
        }
      ],
      "name": "GameCreated",
      "type": "event"
    },
    {
      "anonymous": false,
      "inputs": [
        {
          "indexed": true,
          "internalType": "uint256",
          "name": "gameID",
          "type": "uint256"
        },
        {
          "indexed": false,
          "internalType": "uint256",
          "name": "expiryTimestamp",
          "type": "uint256"
        }
      ],
      "name": "GameExpiryAdjusted",
      "type": "event"
    },
    {
      "anonymous": false,
      "inputs": [
        {
          "indexed": true,
          "internalType": "uint256",
          "name": "gameID",
          "type": "uint256"
        },
        {
          "indexed": true,
          "internalType": "uint16",
          "name": "gamePlayID",
          "type": "uint16"
        },
        {
          "indexed": false,
          "internalType": "bytes",
          "name": "chanceAndSalt",
          "type": "bytes"
        }
      ],
      "name": "GamePlayChanceRevealed",
      "type": "event"
    },
    {
      "anonymous": false,
      "inputs": [
        {
          "indexed": true,
          "internalType": "uint256",
          "name": "gameID",
          "type": "uint256"
        },
        {
          "indexed": true,
          "internalType": "uint16",
          "name": "gamePlayID",
          "type": "uint16"
        },
        {
          "indexed": true,
          "internalType": "address",
          "name": "player",
          "type": "address"
        },
        {
          "indexed": false,
          "internalType": "enum Coin.Side",
          "name": "coinSide",
          "type": "uint8"
        },
        {
          "indexed": false,
          "internalType": "bytes32",
          "name": "proofOfChance",
          "type": "bytes32"
        }
      ],
      "name": "GamePlayCreated",
      "type": "event"
    },
    {
      "anonymous": false,
      "inputs": [
        {
          "indexed": true,
          "internalType": "address",
          "name": "previousOwner",
          "type": "address"
        },
        {
          "indexed": true,
          "internalType": "address",
          "name": "newOwner",
          "type": "address"
        }
      ],
      "name": "OwnershipTransferred",
      "type": "event"
    },
    {
      "inputs": [
        {
          "internalType": "uint256",
          "name": "gameID",
          "type": "uint256"
        },
        {
          "internalType": "uint256",
          "name": "newExpiryTimestamp",
          "type": "uint256"
        }
      ],
      "name": "adjustExpiryForGame",
      "outputs": [],
      "stateMutability": "nonpayable",
      "type": "function"
    },
    {
      "inputs": [
        {
          "internalType": "uint256[]",
          "name": "gameIDs",
          "type": "uint256[]"
        },
        {
          "internalType": "uint256",
          "name": "newExpiryTimestamp",
          "type": "uint256"
        }
      ],
      "name": "adjustExpiryForGames",
      "outputs": [],
      "stateMutability": "nonpayable",
      "type": "function"
    },
    {
      "inputs": [
        {
          "internalType": "uint256",
          "name": "wager",
          "type": "uint256"
        },
        {
          "internalType": "uint16",
          "name": "numberOfPlayers",
          "type": "uint16"
        },
        {
          "internalType": "uint256",
          "name": "expiryTimestamp",
          "type": "uint256"
        },
        {
          "internalType": "enum Coin.Side",
          "name": "coinSide",
          "type": "uint8"
        },
        {
          "internalType": "bytes32",
          "name": "proofOfChance",
          "type": "bytes32"
        }
      ],
      "name": "createGame",
      "outputs": [],
      "stateMutability": "payable",
      "type": "function"
    },
    {
      "inputs": [],
      "name": "gamesCount",
      "outputs": [
        {
          "internalType": "uint256",
          "name": "",
          "type": "uint256"
        }
      ],
      "stateMutability": "view",
      "type": "function"
    },
    {
      "inputs": [
        {
          "internalType": "uint256",
          "name": "amount",
          "type": "uint256"
        }
      ],
      "name": "getServiceCharge",
      "outputs": [
        {
          "internalType": "uint256",
          "name": "",
          "type": "uint256"
        }
      ],
      "stateMutability": "view",
      "type": "function"
    },
    {
      "inputs": [],
      "name": "getServiceProviderWallet",
      "outputs": [
        {
          "internalType": "address",
          "name": "",
          "type": "address"
        }
      ],
      "stateMutability": "view",
      "type": "function"
    },
    {
      "inputs": [],
      "name": "maxNumberOfPlayers",
      "outputs": [
        {
          "internalType": "uint16",
          "name": "",
          "type": "uint16"
        }
      ],
      "stateMutability": "view",
      "type": "function"
    },
    {
      "inputs": [],
      "name": "minWager",
      "outputs": [
        {
          "internalType": "uint256",
          "name": "",
          "type": "uint256"
        }
      ],
      "stateMutability": "view",
      "type": "function"
    },
    {
      "inputs": [],
      "name": "owner",
      "outputs": [
        {
          "internalType": "address",
          "name": "",
          "type": "address"
        }
      ],
      "stateMutability": "view",
      "type": "function"
    },
    {
      "inputs": [
        {
          "internalType": "uint256",
          "name": "gameID",
          "type": "uint256"
        }
      ],
      "name": "playCounts",
      "outputs": [
        {
          "internalType": "uint16",
          "name": "playCount",
          "type": "uint16"
        }
      ],
      "stateMutability": "view",
      "type": "function"
    },
    {
      "inputs": [
        {
          "internalType": "uint256",
          "name": "gameID",
          "type": "uint256"
        },
        {
          "internalType": "enum Coin.Side",
          "name": "coinSide",
          "type": "uint8"
        },
        {
          "internalType": "bytes32",
          "name": "proofOfChance",
          "type": "bytes32"
        }
      ],
      "name": "playGame",
      "outputs": [],
      "stateMutability": "payable",
      "type": "function"
    },
    {
      "inputs": [
        {
          "internalType": "uint256",
          "name": "gameID",
          "type": "uint256"
        },
        {
          "internalType": "uint16",
          "name": "playID",
          "type": "uint16"
        }
      ],
      "name": "proofOfChances",
      "outputs": [
        {
          "internalType": "bytes32",
          "name": "proofOfChance",
          "type": "bytes32"
        }
      ],
      "stateMutability": "view",
      "type": "function"
    },
    {
      "inputs": [
        {
          "internalType": "uint256[]",
          "name": "gameIDs",
          "type": "uint256[]"
        }
      ],
      "name": "refundExpiredGamePlayersForAllGames",
      "outputs": [],
      "stateMutability": "nonpayable",
      "type": "function"
    },
    {
      "inputs": [
        {
          "internalType": "uint256",
          "name": "gameID",
          "type": "uint256"
        },
        {
          "internalType": "bytes[]",
          "name": "chanceAndSalts",
          "type": "bytes[]"
        }
      ],
      "name": "revealChancesAndCreditWinners",
      "outputs": [],
      "stateMutability": "nonpayable",
      "type": "function"
    },
    {
      "inputs": [],
      "name": "serviceChargePercent",
      "outputs": [
        {
          "internalType": "uint8",
          "name": "",
          "type": "uint8"
        }
      ],
      "stateMutability": "view",
      "type": "function"
    },
    {
      "inputs": [
        {
          "internalType": "bool",
          "name": "isOperational_",
          "type": "bool"
        }
      ],
      "name": "setIsOperational",
      "outputs": [],
      "stateMutability": "nonpayable",
      "type": "function"
    },
    {
      "inputs": [
        {
          "internalType": "address",
          "name": "newOwner",
          "type": "address"
        }
      ],
      "name": "transferOwnership",
      "outputs": [],
      "stateMutability": "nonpayable",
      "type": "function"
    },
    {
      "inputs": [
        {
          "internalType": "uint16",
          "name": "maxNumberOfPlayers_",
          "type": "uint16"
        }
      ],
      "name": "updateMaxNumberOfPlayers",
      "outputs": [],
      "stateMutability": "nonpayable",
      "type": "function"
    },
    {
      "inputs": [
        {
          "internalType": "uint256",
          "name": "minWager_",
          "type": "uint256"
        }
      ],
      "name": "updateMinWagerOfPlayers",
      "outputs": [],
      "stateMutability": "nonpayable",
      "type": "function"
    },
    {
      "inputs": [
        {
          "internalType": "uint8",
          "name": "serviceChargePercent_",
          "type": "uint8"
        }
      ],
      "name": "updateServiceChargePercent",
      "outputs": [],
      "stateMutability": "nonpayable",
      "type": "function"
    },
    {
      "inputs": [
        {
          "internalType": "address payable",
          "name": "wallets_",
          "type": "address"
        }
      ],
      "name": "updateWallets",
      "outputs": [],
      "stateMutability": "nonpayable",
      "type": "function"
    },
    {
      "inputs": [],
      "name": "wallets",
      "outputs": [
        {
          "internalType": "contract Wallets",
          "name": "",
          "type": "address"
        }
      ],
      "stateMutability": "view",
      "type": "function"
    },
    {
      "stateMutability": "payable",
      "type": "receive"
    }
  ],
  "transactionHash": "0xfea6deb3252e6f4fad7837ca7aaab525c134f8e4a4051803156ce5475631bbbe",
  "args": [
    "0x42c95416B24046031310029a0531BA49592bAcbF",
    20,
    "40000000000000000"
  ],
  "numDeployments": 5,
  "solcInputHash": "bc71372a41b5d81c070a3fdd6d121679",
  "bytecode": "0x60806040526001600a60146101000a81548160ff0219169083151502179055506008600a60156101000a81548160ff021916908360ff1602179055503480156200004857600080fd5b50604051620030573803806200305783398181016040528101906200006e919062000297565b6200007f33620000ed60201b60201c565b82600e60006101000a81548173ffffffffffffffffffffffffffffffffffffffff021916908373ffffffffffffffffffffffffffffffffffffffff16021790555081600c60006101000a81548161ffff021916908361ffff16021790555080600b81905550505050620002f3565b6000600a60009054906101000a900473ffffffffffffffffffffffffffffffffffffffff16905081600a60006101000a81548173ffffffffffffffffffffffffffffffffffffffff021916908373ffffffffffffffffffffffffffffffffffffffff1602179055508173ffffffffffffffffffffffffffffffffffffffff168173ffffffffffffffffffffffffffffffffffffffff167f8be0079c531659141344cd1fd0a4f28419497f9722a3daafe3b4186f6b6457e060405160405180910390a35050565b600080fd5b600073ffffffffffffffffffffffffffffffffffffffff82169050919050565b6000620001e582620001b8565b9050919050565b620001f781620001d8565b81146200020357600080fd5b50565b6000815190506200021781620001ec565b92915050565b600061ffff82169050919050565b62000236816200021d565b81146200024257600080fd5b50565b60008151905062000256816200022b565b92915050565b6000819050919050565b62000271816200025c565b81146200027d57600080fd5b50565b600081519050620002918162000266565b92915050565b600080600060608486031215620002b357620002b2620001b3565b5b6000620002c38682870162000206565b9350506020620002d68682870162000245565b9250506040620002e98682870162000280565b9150509250925092565b612d5480620003036000396000f3fe6080604052600436106101395760003560e01c80637d627c16116100ab578063c122212f1161006f578063c122212f14610414578063c5409ead1461043f578063d2f4a50a14610468578063f2fde38b14610493578063fb632b7c146104bc578063fee445cc146104e757610148565b80637d627c16146103435780638da5cb5b1461036c578063b5ece92314610397578063bb9c3f2b146103c0578063bd16f877146103eb57610148565b806332d54997116100fd57806332d549971461020d57806339a21b0b1461024a57806353e636fc14610273578063728fdffa146102b05780637737f50d146102db5780637cb4baf91461031857610148565b8063106608591461014d57806318e70bd8146101765780631a7d9cad1461019f5780632851a5cf146101bb5780632cda6e77146101e457610148565b3661014857610146610503565b005b600080fd5b34801561015957600080fd5b50610174600480360381019061016f9190611df4565b610593565b005b34801561018257600080fd5b5061019d60048036038101906101989190611fe6565b610627565b005b6101b960048036038101906101b491906120d7565b610a14565b005b3480156101c757600080fd5b506101e260048036038101906101dd91906121b0565b610bbc565b005b3480156101f057600080fd5b5061020b60048036038101906102069190612216565b610c08565b005b34801561021957600080fd5b50610234600480360381019061022f9190612243565b610c6b565b604051610241919061227f565b60405180910390f35b34801561025657600080fd5b50610271600480360381019061026c919061229a565b610c9e565b005b34801561027f57600080fd5b5061029a600480360381019061029591906122e3565b610cea565b6040516102a79190612332565b60405180910390f35b3480156102bc57600080fd5b506102c5610d0f565b6040516102d2919061235c565b60405180910390f35b3480156102e757600080fd5b5061030260048036038101906102fd9190612243565b610d23565b60405161030f919061235c565b60405180910390f35b34801561032457600080fd5b5061032d610d44565b60405161033a9190612386565b60405180910390f35b34801561034f57600080fd5b5061036a600480360381019061036591906123a1565b610d57565b005b34801561037857600080fd5b50610381610d7f565b60405161038e91906123ef565b60405180910390f35b3480156103a357600080fd5b506103be60048036038101906103b99190612442565b610da9565b005b3480156103cc57600080fd5b506103d5610dce565b6040516103e2919061227f565b60405180910390f35b3480156103f757600080fd5b50610412600480360381019061040d9190612243565b610dd4565b005b34801561042057600080fd5b50610429610de6565b60405161043691906123ef565b60405180910390f35b34801561044b57600080fd5b506104666004803603810190610461919061246f565b610df5565b005b34801561047457600080fd5b5061047d610e43565b60405161048a919061250e565b60405180910390f35b34801561049f57600080fd5b506104ba60048036038101906104b59190612555565b610e69565b005b3480156104c857600080fd5b506104d1610e7d565b6040516104de919061227f565b60405180910390f35b61050160048036038101906104fc9190612582565b610e83565b005b600e60009054906101000a900473ffffffffffffffffffffffffffffffffffffffff1673ffffffffffffffffffffffffffffffffffffffff166312314e9734336040518363ffffffff1660e01b815260040161055f91906123ef565b6000604051808303818588803b15801561057857600080fd5b505af115801561058c573d6000803e3d6000fd5b5050505050565b61059b6111ef565b60005b82518160ff161015610622576000838260ff16815181106105c2576105c16125d5565b5b602002602001015190506105d68184611268565b807fd617e9095b23d7bb3907d94521de27edce9fd9923dfb73805aa57d4f5338bb5484604051610606919061227f565b60405180910390a250808061061a90612633565b91505061059e565b505050565b61062f6111ef565b816002600061063d836112bd565b90508160038111156106525761065161265c565b5b8160038111156106655761066461265c565b5b146106ab578282826040517f7765da350000000000000000000000000000000000000000000000000000000081526004016106a2939291906126d3565b60405180910390fd5b600080600090505b6001600088815260200190815260200160002060009054906101000a900461ffff1661ffff168161ffff1610156108e7576000868261ffff16815181106106fd576106fc6125d5565b5b602002602001015190506000600183610716919061270a565b9050600660008a815260200190815260200160002060008261ffff1661ffff1681526020019081526020016000205460028360405161075591906127b1565b602060405180830381855afa158015610772573d6000803e3d6000fd5b5050506040513d601f19601f8201168201806040525081019061079591906127dd565b146107cc576040517f402fb0a400000000000000000000000000000000000000000000000000000000815260040160405180910390fd5b6000828060200190518101906107e291906128ba565b50905060005b60108160ff161015610893576000828260ff166010811061080c5761080b6125d5565b5b1a60f81b9050600060f81b817effffffffffffffffffffffffffffffffffffffffffffffffffffffffffffff1916036108455750610893565b600060018111156108595761085861265c565b5b87600181111561086c5761086b61265c565b5b0361087a576001965061087f565b600096505b50808061088b90612633565b9150506107e8565b508161ffff168a7fa1ffc642177ab118fa3d9c64797cbc129024fdd953e7fc92c64eb358d2eaccfa856040516108c99190612944565b60405180910390a350505080806108df90612966565b9150506106b3565b5060006003600088815260200190815260200160002060008360018111156109125761091161265c565b5b60018111156109245761092361265c565b5b81526020019081526020016000208054806020026020016040519081016040528092919081815260200182805480156109b257602002820191906000526020600020905b8160009054906101000a900473ffffffffffffffffffffffffffffffffffffffff1673ffffffffffffffffffffffffffffffffffffffff1681526020019060010190808311610968575b5050505050905060006109c5888361130c565b90506109d0886113fb565b877fa3f5520e27ebcfe38fd78c3854e39d00e8e9f7061551105f86fe8d1596ef84b88483604051610a029291906129d8565b60405180910390a25050505050505050565b600a60149054906101000a900460ff16610a5a576040517ffececd2700000000000000000000000000000000000000000000000000000000815260040160405180910390fd5b600b54851015610a96576040517f139196d300000000000000000000000000000000000000000000000000000000815260040160405180910390fd5b600260ff168461ffff161015610aaf57610aae612a01565b5b600c60009054906101000a900461ffff1661ffff168461ffff161115610b01576040517f5473ed1a00000000000000000000000000000000000000000000000000000000815260040160405180910390fd5b60006001600d54610b129190612a30565b9050610b1c61143a565b610b26818761144e565b610b30818761146a565b610b3a81866114ff565b610b448185611268565b600d600081548092919060010191905055503373ffffffffffffffffffffffffffffffffffffffff16817fff4ce5d936207f27c07633704e6d1a8aa0d1ae75aad73192582381fe9a2ed20687878a604051610ba193929190612a64565b60405180910390a3610bb4818484611531565b505050505050565b610bc46111ef565b80600e60006101000a81548173ffffffffffffffffffffffffffffffffffffffff021916908373ffffffffffffffffffffffffffffffffffffffff16021790555050565b610c106111ef565b60648160ff1610610c4d576040517f4756d23c00000000000000000000000000000000000000000000000000000000815260040160405180910390fd5b80600a60156101000a81548160ff021916908360ff16021790555050565b60006064600a60159054906101000a900460ff1660ff1683610c8d9190612a9b565b610c979190612b0c565b9050919050565b60005b81518160ff161015610ce657610cd3828260ff1681518110610cc657610cc56125d5565b5b6020026020010151611843565b8080610cde90612633565b915050610ca1565b5050565b6006602052816000526040600020602052806000526040600020600091509150505481565b600c60009054906101000a900461ffff1681565b60016020528060005260406000206000915054906101000a900461ffff1681565b600a60159054906101000a900460ff1681565b610d5f6111ef565b80600c60006101000a81548161ffff021916908361ffff16021790555050565b6000600a60009054906101000a900473ffffffffffffffffffffffffffffffffffffffff16905090565b610db16111ef565b80600a60146101000a81548160ff02191690831515021790555050565b600b5481565b610ddc6111ef565b80600b8190555050565b6000610df0610d7f565b905090565b610dfd6111ef565b610e078282611268565b817fd617e9095b23d7bb3907d94521de27edce9fd9923dfb73805aa57d4f5338bb5482604051610e37919061227f565b60405180910390a25050565b600e60009054906101000a900473ffffffffffffffffffffffffffffffffffffffff1681565b610e716111ef565b610e7a81611a73565b50565b600d5481565b600a60149054906101000a900460ff16610ec9576040517ffececd2700000000000000000000000000000000000000000000000000000000815260040160405180910390fd5b82600080610ed6836112bd565b9050816003811115610eeb57610eea61265c565b5b816003811115610efe57610efd61265c565b5b14610f44578282826040517f7765da35000000000000000000000000000000000000000000000000000000008152600401610f3b939291906126d3565b60405180910390fd5b858560006001600084815260200190815260200160002060009054906101000a900461ffff166002600085815260200190815260200160002060009054906101000a900461ffff16610f969190612b3d565b90506000600460008581526020019081526020016000206000806001811115610fc257610fc161265c565b5b6001811115610fd457610fd361265c565b5b815260200190815260200160002060009054906101000a900461ffff169050600060046000868152602001908152602001600020600060018081111561101d5761101c61265c565b5b600181111561102f5761102e61265c565b5b815260200190815260200160002060009054906101000a900461ffff16905060018361ffff16148015611075575060008261ffff161480611074575060008161ffff16145b5b156110ff576000808361ffff16036110905760009050611095565b600190505b8060018111156110a8576110a761265c565b5b8560018111156110bb576110ba61265c565b5b146110fd57806040517f14759b500000000000000000000000000000000000000000000000000000000081526004016110f49190612b73565b60405180910390fd5b505b8a600080600083815260200190815260200160002060003373ffffffffffffffffffffffffffffffffffffffff1673ffffffffffffffffffffffffffffffffffffffff16815260200190815260200160002060009054906101000a900461ffff16905060008161ffff1611156111ac57806040517fccfdba1f0000000000000000000000000000000000000000000000000000000081526004016111a3919061235c565b60405180910390fd5b6111b461143a565b60006111bf8e611b39565b90506111cb8e8261146a565b6111d68e8e8e611531565b6111df8e611b56565b5050505050505050505050505050565b3373ffffffffffffffffffffffffffffffffffffffff1661120e610d7f565b73ffffffffffffffffffffffffffffffffffffffff161461126657336040517f118cdaa700000000000000000000000000000000000000000000000000000000815260040161125d91906123ef565b60405180910390fd5b565b4281116112a1576040517f4257cab200000000000000000000000000000000000000000000000000000000815260040160405180910390fd5b8060096000848152602001908152602001600020819055505050565b600042600960008481526020019081526020016000205410156112e35760019050611307565b6008600083815260200190815260200160002060009054906101000a900460ff1690505b919050565b60008061131884611b39565b905060006001600086815260200190815260200160002060009054906101000a900461ffff1661ffff168261134d9190612a9b565b9050600061135c828651611bc0565b9050600e60009054906101000a900473ffffffffffffffffffffffffffffffffffffffff1673ffffffffffffffffffffffffffffffffffffffff1663c288e4048787846040518463ffffffff1660e01b81526004016113bd93929190612c4c565b600060405180830381600087803b1580156113d757600080fd5b505af11580156113eb573d6000803e3d6000fd5b5050505080935050505092915050565b60036008600083815260200190815260200160002060006101000a81548160ff021916908360038111156114325761143161265c565b5b021790555050565b600034111561144c5761144b610503565b5b565b8060076000848152602001908152602001600020819055505050565b600e60009054906101000a900473ffffffffffffffffffffffffffffffffffffffff1673ffffffffffffffffffffffffffffffffffffffff1663037e34e58333846040518463ffffffff1660e01b81526004016114c993929190612c8a565b600060405180830381600087803b1580156114e357600080fd5b505af11580156114f7573d6000803e3d6000fd5b505050505050565b806002600084815260200190815260200160002060006101000a81548161ffff021916908361ffff1602179055505050565b6000600180600086815260200190815260200160002060009054906101000a900461ffff16611560919061270a565b90508060008086815260200190815260200160002060003373ffffffffffffffffffffffffffffffffffffffff1673ffffffffffffffffffffffffffffffffffffffff16815260200190815260200160002060006101000a81548161ffff021916908361ffff160217905550816006600086815260200190815260200160002060008361ffff1661ffff168152602001908152602001600020819055506003600085815260200190815260200160002060008460018111156116255761162461265c565b5b60018111156116375761163661265c565b5b8152602001908152602001600020339080600181540180825580915050600190039060005260206000200160009091909190916101000a81548173ffffffffffffffffffffffffffffffffffffffff021916908373ffffffffffffffffffffffffffffffffffffffff16021790555060056000858152602001908152602001600020339080600181540180825580915050600190039060005260206000200160009091909190916101000a81548173ffffffffffffffffffffffffffffffffffffffff021916908373ffffffffffffffffffffffffffffffffffffffff1602179055506004600085815260200190815260200160002060008460018111156117425761174161265c565b5b60018111156117545761175361265c565b5b8152602001908152602001600020600081819054906101000a900461ffff168092919061178090612966565b91906101000a81548161ffff021916908361ffff1602179055505060016000858152602001908152602001600020600081819054906101000a900461ffff16809291906117cc90612966565b91906101000a81548161ffff021916908361ffff160217905550503373ffffffffffffffffffffffffffffffffffffffff168161ffff16857fe7b36541da149ae31f5dd2085cea9f899aa58f8b33bb0db2be6acfe1d31515e58686604051611835929190612cc1565b60405180910390a450505050565b61184b6111ef565b8060016000611859836112bd565b905081600381111561186e5761186d61265c565b5b8160038111156118815761188061265c565b5b146118c7578282826040517f7765da350000000000000000000000000000000000000000000000000000000081526004016118be939291906126d3565b60405180910390fd5b60006005600086815260200190815260200160002080548060200260200160405190810160405280929190818152602001828054801561195c57602002820191906000526020600020905b8160009054906101000a900473ffffffffffffffffffffffffffffffffffffffff1673ffffffffffffffffffffffffffffffffffffffff1681526020019060010190808311611912575b5050505050905060008151905060008161ffff1661197988611b39565b6119839190612a9b565b90506000611995828461ffff16611bc0565b9050600e60009054906101000a900473ffffffffffffffffffffffffffffffffffffffff1673ffffffffffffffffffffffffffffffffffffffff1663c288e4048986846040518463ffffffff1660e01b81526004016119f693929190612c4c565b600060405180830381600087803b158015611a1057600080fd5b505af1158015611a24573d6000803e3d6000fd5b50505050611a31886113fb565b877f483a9ad42b66e69a3096814ad798345a0ed09694552a5b8a04abce8a0ba6fa2582604051611a61919061227f565b60405180910390a25050505050505050565b6000600a60009054906101000a900473ffffffffffffffffffffffffffffffffffffffff16905081600a60006101000a81548173ffffffffffffffffffffffffffffffffffffffff021916908373ffffffffffffffffffffffffffffffffffffffff1602179055508173ffffffffffffffffffffffffffffffffffffffff168173ffffffffffffffffffffffffffffffffffffffff167f8be0079c531659141344cd1fd0a4f28419497f9722a3daafe3b4186f6b6457e060405160405180910390a35050565b600060076000838152602001908152602001600020549050919050565b60006001600083815260200190815260200160002060009054906101000a900461ffff16905060006002600084815260200190815260200160002060009054906101000a900461ffff1690508061ffff168261ffff1603611bbb57611bba83611c12565b5b505050565b6000808284611bcf9190612b0c565b90506064600a60159054906101000a900460ff1660ff1682611bf19190612a9b565b611bfb9190612b0c565b81611c069190612cea565b90508091505092915050565b60026008600083815260200190815260200160002060006101000a81548160ff02191690836003811115611c4957611c4861265c565b5b021790555050565b6000604051905090565b600080fd5b600080fd5b600080fd5b6000601f19601f8301169050919050565b7f4e487b7100000000000000000000000000000000000000000000000000000000600052604160045260246000fd5b611cb382611c6a565b810181811067ffffffffffffffff82111715611cd257611cd1611c7b565b5b80604052505050565b6000611ce5611c51565b9050611cf18282611caa565b919050565b600067ffffffffffffffff821115611d1157611d10611c7b565b5b602082029050602081019050919050565b600080fd5b6000819050919050565b611d3a81611d27565b8114611d4557600080fd5b50565b600081359050611d5781611d31565b92915050565b6000611d70611d6b84611cf6565b611cdb565b90508083825260208201905060208402830185811115611d9357611d92611d22565b5b835b81811015611dbc5780611da88882611d48565b845260208401935050602081019050611d95565b5050509392505050565b600082601f830112611ddb57611dda611c65565b5b8135611deb848260208601611d5d565b91505092915050565b60008060408385031215611e0b57611e0a611c5b565b5b600083013567ffffffffffffffff811115611e2957611e28611c60565b5b611e3585828601611dc6565b9250506020611e4685828601611d48565b9150509250929050565b600067ffffffffffffffff821115611e6b57611e6a611c7b565b5b602082029050602081019050919050565b600080fd5b600067ffffffffffffffff821115611e9c57611e9b611c7b565b5b611ea582611c6a565b9050602081019050919050565b82818337600083830152505050565b6000611ed4611ecf84611e81565b611cdb565b905082815260208101848484011115611ef057611eef611e7c565b5b611efb848285611eb2565b509392505050565b600082601f830112611f1857611f17611c65565b5b8135611f28848260208601611ec1565b91505092915050565b6000611f44611f3f84611e50565b611cdb565b90508083825260208201905060208402830185811115611f6757611f66611d22565b5b835b81811015611fae57803567ffffffffffffffff811115611f8c57611f8b611c65565b5b808601611f998982611f03565b85526020850194505050602081019050611f69565b5050509392505050565b600082601f830112611fcd57611fcc611c65565b5b8135611fdd848260208601611f31565b91505092915050565b60008060408385031215611ffd57611ffc611c5b565b5b600061200b85828601611d48565b925050602083013567ffffffffffffffff81111561202c5761202b611c60565b5b61203885828601611fb8565b9150509250929050565b600061ffff82169050919050565b61205981612042565b811461206457600080fd5b50565b60008135905061207681612050565b92915050565b6002811061208957600080fd5b50565b60008135905061209b8161207c565b92915050565b6000819050919050565b6120b4816120a1565b81146120bf57600080fd5b50565b6000813590506120d1816120ab565b92915050565b600080600080600060a086880312156120f3576120f2611c5b565b5b600061210188828901611d48565b955050602061211288828901612067565b945050604061212388828901611d48565b93505060606121348882890161208c565b9250506080612145888289016120c2565b9150509295509295909350565b600073ffffffffffffffffffffffffffffffffffffffff82169050919050565b600061217d82612152565b9050919050565b61218d81612172565b811461219857600080fd5b50565b6000813590506121aa81612184565b92915050565b6000602082840312156121c6576121c5611c5b565b5b60006121d48482850161219b565b91505092915050565b600060ff82169050919050565b6121f3816121dd565b81146121fe57600080fd5b50565b600081359050612210816121ea565b92915050565b60006020828403121561222c5761222b611c5b565b5b600061223a84828501612201565b91505092915050565b60006020828403121561225957612258611c5b565b5b600061226784828501611d48565b91505092915050565b61227981611d27565b82525050565b60006020820190506122946000830184612270565b92915050565b6000602082840312156122b0576122af611c5b565b5b600082013567ffffffffffffffff8111156122ce576122cd611c60565b5b6122da84828501611dc6565b91505092915050565b600080604083850312156122fa576122f9611c5b565b5b600061230885828601611d48565b925050602061231985828601612067565b9150509250929050565b61232c816120a1565b82525050565b60006020820190506123476000830184612323565b92915050565b61235681612042565b82525050565b6000602082019050612371600083018461234d565b92915050565b612380816121dd565b82525050565b600060208201905061239b6000830184612377565b92915050565b6000602082840312156123b7576123b6611c5b565b5b60006123c584828501612067565b91505092915050565b60006123d982612152565b9050919050565b6123e9816123ce565b82525050565b600060208201905061240460008301846123e0565b92915050565b60008115159050919050565b61241f8161240a565b811461242a57600080fd5b50565b60008135905061243c81612416565b92915050565b60006020828403121561245857612457611c5b565b5b60006124668482850161242d565b91505092915050565b6000806040838503121561248657612485611c5b565b5b600061249485828601611d48565b92505060206124a585828601611d48565b9150509250929050565b6000819050919050565b60006124d46124cf6124ca84612152565b6124af565b612152565b9050919050565b60006124e6826124b9565b9050919050565b60006124f8826124db565b9050919050565b612508816124ed565b82525050565b600060208201905061252360008301846124ff565b92915050565b612532816123ce565b811461253d57600080fd5b50565b60008135905061254f81612529565b92915050565b60006020828403121561256b5761256a611c5b565b5b600061257984828501612540565b91505092915050565b60008060006060848603121561259b5761259a611c5b565b5b60006125a986828701611d48565b93505060206125ba8682870161208c565b92505060406125cb868287016120c2565b9150509250925092565b7f4e487b7100000000000000000000000000000000000000000000000000000000600052603260045260246000fd5b7f4e487b7100000000000000000000000000000000000000000000000000000000600052601160045260246000fd5b600061263e826121dd565b915060ff820361265157612650612604565b5b600182019050919050565b7f4e487b7100000000000000000000000000000000000000000000000000000000600052602160045260246000fd5b6004811061269c5761269b61265c565b5b50565b60008190506126ad8261268b565b919050565b60006126bd8261269f565b9050919050565b6126cd816126b2565b82525050565b60006060820190506126e86000830186612270565b6126f560208301856126c4565b61270260408301846126c4565b949350505050565b600061271582612042565b915061272083612042565b9250828201905061ffff81111561273a57612739612604565b5b92915050565b600081519050919050565b600081905092915050565b60005b83811015612774578082015181840152602081019050612759565b60008484015250505050565b600061278b82612740565b612795818561274b565b93506127a5818560208601612756565b80840191505092915050565b60006127bd8284612780565b915081905092915050565b6000815190506127d7816120ab565b92915050565b6000602082840312156127f3576127f2611c5b565b5b6000612801848285016127c8565b91505092915050565b60007fffffffffffffffffffffffffffffffff0000000000000000000000000000000082169050919050565b61283f8161280a565b811461284a57600080fd5b50565b60008151905061285c81612836565b92915050565b60007fffffffffffffffff00000000000000000000000000000000000000000000000082169050919050565b61289781612862565b81146128a257600080fd5b50565b6000815190506128b48161288e565b92915050565b600080604083850312156128d1576128d0611c5b565b5b60006128df8582860161284d565b92505060206128f0858286016128a5565b9150509250929050565b600082825260208201905092915050565b600061291682612740565b61292081856128fa565b9350612930818560208601612756565b61293981611c6a565b840191505092915050565b6000602082019050818103600083015261295e818461290b565b905092915050565b600061297182612042565b915061ffff820361298557612984612604565b5b600182019050919050565b600281106129a1576129a061265c565b5b50565b60008190506129b282612990565b919050565b60006129c2826129a4565b9050919050565b6129d2816129b7565b82525050565b60006040820190506129ed60008301856129c9565b6129fa6020830184612270565b9392505050565b7f4e487b7100000000000000000000000000000000000000000000000000000000600052600160045260246000fd5b6000612a3b82611d27565b9150612a4683611d27565b9250828201905080821115612a5e57612a5d612604565b5b92915050565b6000606082019050612a79600083018661234d565b612a866020830185612270565b612a936040830184612270565b949350505050565b6000612aa682611d27565b9150612ab183611d27565b9250828202612abf81611d27565b91508282048414831517612ad657612ad5612604565b5b5092915050565b7f4e487b7100000000000000000000000000000000000000000000000000000000600052601260045260246000fd5b6000612b1782611d27565b9150612b2283611d27565b925082612b3257612b31612add565b5b828204905092915050565b6000612b4882612042565b9150612b5383612042565b9250828203905061ffff811115612b6d57612b6c612604565b5b92915050565b6000602082019050612b8860008301846129c9565b92915050565b600081519050919050565b600082825260208201905092915050565b6000819050602082019050919050565b612bc3816123ce565b82525050565b6000612bd58383612bba565b60208301905092915050565b6000602082019050919050565b6000612bf982612b8e565b612c038185612b99565b9350612c0e83612baa565b8060005b83811015612c3f578151612c268882612bc9565b9750612c3183612be1565b925050600181019050612c12565b5085935050505092915050565b6000606082019050612c616000830186612270565b8181036020830152612c738185612bee565b9050612c826040830184612270565b949350505050565b6000606082019050612c9f6000830186612270565b612cac60208301856123e0565b612cb96040830184612270565b949350505050565b6000604082019050612cd660008301856129c9565b612ce36020830184612323565b9392505050565b6000612cf582611d27565b9150612d0083611d27565b9250828203905081811115612d1857612d17612604565b5b9291505056fea264697066735822122084012f3d3791a7e6076aa5479139d4731f2715dd976d33bc69c83b856588f75d64736f6c63430008140033",
  "devdoc": {
    "errors": {
      "OwnableInvalidOwner(address)": [
        {
          "details": "The owner is not a valid owner account."
        }
      ]
    },
    "kind": "dev",
    "methods": {
      "createGame(uint256,uint16,uint256,uint8,bytes32)": {
        "params": {
          "coinSide": "predicted coin side by you, the creator",
          "expiryTimestamp": "Expiry timestamp of the game",
          "numberOfPlayers": "number of participating players",
          "proofOfChance": "SHA256 hash of your chance (lucky word[s]) and a random salt combined",
          "wager": "ether value required paticipating players to pay before playing"
        }
      },
      "getServiceProviderWallet()": {
        "details": "Returns the service provider wallet owner"
      },
      "owner()": {
        "details": "Returns the address of the current owner."
      },
      "playGame(uint256,uint8,bytes32)": {
        "params": {
          "coinSide": "coin side outcome prediction",
          "gameID": "already created game ID",
          "proofOfChance": "SHA256 hash of your chance (lucky word[s]) and a random salt combined"
        }
      },
      "refundExpiredGamePlayersForAllGames(uint256[])": {
        "params": {
          "gameIDs": "game IDs of expired games"
        }
      },
      "revealChancesAndCreditWinners(uint256,bytes[])": {
        "params": {
          "chanceAndSalts": "list of the chance and salts combined in the order of their respecitive play IDs",
          "gameID": "already created game ID"
        }
      },
      "setIsOperational(bool)": {
        "details": "Sets contract operations on/off When isOperational is false, all affected write transactions except for this one will fail"
      },
      "transferOwnership(address)": {
        "details": "Transfers ownership of the contract to a new account (`newOwner`). Can only be called by the current owner."
      }
    },
    "version": 1
  },
  "userdoc": {
    "errors": {
      "OwnableUnauthorizedAccount(address)": [
        {
          "notice": "The caller account is not authorized to perform an operation."
        }
      ]
    },
    "kind": "user",
    "methods": {
      "createGame(uint256,uint16,uint256,uint8,bytes32)": {
        "notice": "Creates a new game"
      },
      "playGame(uint256,uint8,bytes32)": {
        "notice": "Allows playing an already created game"
      },
      "refundExpiredGamePlayersForAllGames(uint256[])": {
        "notice": "Batch refunds expired game players"
      },
      "revealChancesAndCreditWinners(uint256,bytes[])": {
        "notice": "Reveals the chances (lucky words) of all plays for a given game. After, it computes and stores the coinflip outcome for the given game. Then, it credits players that predicted the coinflip outcome correctly with the combined wager shared equally (after service charge deduction)"
      },
      "updateMaxNumberOfPlayers(uint16)": {
        "notice": "Updates max number of players to avoid concluding games with very high gas fee"
      },
      "updateMinWagerOfPlayers(uint256)": {
        "notice": "Updates min wager allowed"
      },
      "updateWallets(address)": {
        "notice": "Allow updating Wallets conrtact in case a PPV is ever discovered"
      }
    },
    "version": 1
  },
  "storageLayout": {
    "storage": [
      {
        "astId": 751,
        "contract": "src/Coinflip.sol:Coinflip",
        "label": "playRecord",
        "offset": 0,
        "slot": "0",
        "type": "t_mapping(t_uint256,t_mapping(t_address,t_uint16))"
      },
      {
        "astId": 755,
        "contract": "src/Coinflip.sol:Coinflip",
        "label": "playCounts",
        "offset": 0,
        "slot": "1",
        "type": "t_mapping(t_uint256,t_uint16)"
      },
      {
        "astId": 759,
        "contract": "src/Coinflip.sol:Coinflip",
        "label": "numberOfPlayersPerGame",
        "offset": 0,
        "slot": "2",
        "type": "t_mapping(t_uint256,t_uint16)"
      },
      {
        "astId": 767,
        "contract": "src/Coinflip.sol:Coinflip",
        "label": "players",
        "offset": 0,
        "slot": "3",
        "type": "t_mapping(t_uint256,t_mapping(t_enum(Side)725,t_array(t_address)dyn_storage))"
      },
      {
        "astId": 774,
        "contract": "src/Coinflip.sol:Coinflip",
        "label": "coinSideCounts",
        "offset": 0,
        "slot": "4",
        "type": "t_mapping(t_uint256,t_mapping(t_enum(Side)725,t_uint16))"
      },
      {
        "astId": 779,
        "contract": "src/Coinflip.sol:Coinflip",
        "label": "allPlayers",
        "offset": 0,
        "slot": "5",
        "type": "t_mapping(t_uint256,t_array(t_address)dyn_storage)"
      },
      {
        "astId": 785,
        "contract": "src/Coinflip.sol:Coinflip",
        "label": "proofOfChances",
        "offset": 0,
        "slot": "6",
        "type": "t_mapping(t_uint256,t_mapping(t_uint16,t_bytes32))"
      },
      {
        "astId": 1146,
        "contract": "src/Coinflip.sol:Coinflip",
        "label": "wagers",
        "offset": 0,
        "slot": "7",
        "type": "t_mapping(t_uint256,t_uint256)"
      },
      {
        "astId": 1016,
        "contract": "src/Coinflip.sol:Coinflip",
        "label": "statuses",
        "offset": 0,
        "slot": "8",
        "type": "t_mapping(t_uint256,t_enum(Status)738)"
      },
      {
        "astId": 1020,
        "contract": "src/Coinflip.sol:Coinflip",
        "label": "expiryTimestamps",
        "offset": 0,
        "slot": "9",
        "type": "t_mapping(t_uint256,t_uint256)"
      },
      {
        "astId": 1214,
        "contract": "src/Coinflip.sol:Coinflip",
        "label": "_owner",
        "offset": 0,
        "slot": "10",
        "type": "t_address"
      },
      {
        "astId": 1182,
        "contract": "src/Coinflip.sol:Coinflip",
        "label": "isOperational",
        "offset": 20,
        "slot": "10",
        "type": "t_bool"
      },
      {
        "astId": 1317,
        "contract": "src/Coinflip.sol:Coinflip",
        "label": "serviceChargePercent",
        "offset": 21,
        "slot": "10",
        "type": "t_uint8"
      },
      {
        "astId": 33,
        "contract": "src/Coinflip.sol:Coinflip",
        "label": "minWager",
        "offset": 0,
        "slot": "11",
        "type": "t_uint256"
      },
      {
        "astId": 35,
        "contract": "src/Coinflip.sol:Coinflip",
        "label": "maxNumberOfPlayers",
        "offset": 0,
        "slot": "12",
        "type": "t_uint16"
      },
      {
        "astId": 37,
        "contract": "src/Coinflip.sol:Coinflip",
        "label": "gamesCount",
        "offset": 0,
        "slot": "13",
        "type": "t_uint256"
      },
      {
        "astId": 40,
        "contract": "src/Coinflip.sol:Coinflip",
        "label": "wallets",
        "offset": 0,
        "slot": "14",
        "type": "t_contract(Wallets)1949"
      }
    ],
    "types": {
      "t_address": {
        "encoding": "inplace",
        "label": "address",
        "numberOfBytes": "20"
      },
      "t_array(t_address)dyn_storage": {
        "base": "t_address",
        "encoding": "dynamic_array",
        "label": "address[]",
        "numberOfBytes": "32"
      },
      "t_bool": {
        "encoding": "inplace",
        "label": "bool",
        "numberOfBytes": "1"
      },
      "t_bytes32": {
        "encoding": "inplace",
        "label": "bytes32",
        "numberOfBytes": "32"
      },
      "t_contract(Wallets)1949": {
        "encoding": "inplace",
        "label": "contract Wallets",
        "numberOfBytes": "20"
      },
      "t_enum(Side)725": {
        "encoding": "inplace",
        "label": "enum Coin.Side",
        "numberOfBytes": "1"
      },
      "t_enum(Status)738": {
        "encoding": "inplace",
        "label": "enum Game.Status",
        "numberOfBytes": "1"
      },
      "t_mapping(t_address,t_uint16)": {
        "encoding": "mapping",
        "key": "t_address",
        "label": "mapping(address => uint16)",
        "numberOfBytes": "32",
        "value": "t_uint16"
      },
      "t_mapping(t_enum(Side)725,t_array(t_address)dyn_storage)": {
        "encoding": "mapping",
        "key": "t_enum(Side)725",
        "label": "mapping(enum Coin.Side => address[])",
        "numberOfBytes": "32",
        "value": "t_array(t_address)dyn_storage"
      },
      "t_mapping(t_enum(Side)725,t_uint16)": {
        "encoding": "mapping",
        "key": "t_enum(Side)725",
        "label": "mapping(enum Coin.Side => uint16)",
        "numberOfBytes": "32",
        "value": "t_uint16"
      },
      "t_mapping(t_uint16,t_bytes32)": {
        "encoding": "mapping",
        "key": "t_uint16",
        "label": "mapping(uint16 => bytes32)",
        "numberOfBytes": "32",
        "value": "t_bytes32"
      },
      "t_mapping(t_uint256,t_array(t_address)dyn_storage)": {
        "encoding": "mapping",
        "key": "t_uint256",
        "label": "mapping(uint256 => address[])",
        "numberOfBytes": "32",
        "value": "t_array(t_address)dyn_storage"
      },
      "t_mapping(t_uint256,t_enum(Status)738)": {
        "encoding": "mapping",
        "key": "t_uint256",
        "label": "mapping(uint256 => enum Game.Status)",
        "numberOfBytes": "32",
        "value": "t_enum(Status)738"
      },
      "t_mapping(t_uint256,t_mapping(t_address,t_uint16))": {
        "encoding": "mapping",
        "key": "t_uint256",
        "label": "mapping(uint256 => mapping(address => uint16))",
        "numberOfBytes": "32",
        "value": "t_mapping(t_address,t_uint16)"
      },
      "t_mapping(t_uint256,t_mapping(t_enum(Side)725,t_array(t_address)dyn_storage))": {
        "encoding": "mapping",
        "key": "t_uint256",
        "label": "mapping(uint256 => mapping(enum Coin.Side => address[]))",
        "numberOfBytes": "32",
        "value": "t_mapping(t_enum(Side)725,t_array(t_address)dyn_storage)"
      },
      "t_mapping(t_uint256,t_mapping(t_enum(Side)725,t_uint16))": {
        "encoding": "mapping",
        "key": "t_uint256",
        "label": "mapping(uint256 => mapping(enum Coin.Side => uint16))",
        "numberOfBytes": "32",
        "value": "t_mapping(t_enum(Side)725,t_uint16)"
      },
      "t_mapping(t_uint256,t_mapping(t_uint16,t_bytes32))": {
        "encoding": "mapping",
        "key": "t_uint256",
        "label": "mapping(uint256 => mapping(uint16 => bytes32))",
        "numberOfBytes": "32",
        "value": "t_mapping(t_uint16,t_bytes32)"
      },
      "t_mapping(t_uint256,t_uint16)": {
        "encoding": "mapping",
        "key": "t_uint256",
        "label": "mapping(uint256 => uint16)",
        "numberOfBytes": "32",
        "value": "t_uint16"
      },
      "t_mapping(t_uint256,t_uint256)": {
        "encoding": "mapping",
        "key": "t_uint256",
        "label": "mapping(uint256 => uint256)",
        "numberOfBytes": "32",
        "value": "t_uint256"
      },
      "t_uint16": {
        "encoding": "inplace",
        "label": "uint16",
        "numberOfBytes": "2"
      },
      "t_uint256": {
        "encoding": "inplace",
        "label": "uint256",
        "numberOfBytes": "32"
      },
      "t_uint8": {
        "encoding": "inplace",
        "label": "uint8",
        "numberOfBytes": "1"
      }
    }
  }
}