{
  "address": "0x4DF7b0b84B930DBcE0dE1A9a46a57c721dd558ce",
  "abi": [
    {
      "inputs": [
        {
          "internalType": "address payable",
          "name": "wallets_",
          "type": "address"
        },
        {
          "internalType": "uint16",
          "name": "maxNumberOfPlayers_",
          "type": "uint16"
        },
        {
          "internalType": "uint256",
          "name": "minWager_",
          "type": "uint256"
        }
      ],
      "stateMutability": "nonpayable",
      "type": "constructor"
    },
    {
      "inputs": [
        {
          "internalType": "enum Coin.Side",
          "name": "availableCoinSide",
          "type": "uint8"
        }
      ],
      "name": "AllMatchingPlaysError",
      "type": "error"
    },
    {
      "inputs": [
        {
          "internalType": "uint16",
          "name": "playID",
          "type": "uint16"
        }
      ],
      "name": "AlreadyPlayedError",
      "type": "error"
    },
    {
      "inputs": [],
      "name": "InOperational",
      "type": "error"
    },
    {
      "inputs": [],
      "name": "InvalidExpiryTimestamp",
      "type": "error"
    },
    {
      "inputs": [
        {
          "internalType": "uint256",
          "name": "",
          "type": "uint256"
        },
        {
          "internalType": "enum Game.Status",
          "name": "expected",
          "type": "uint8"
        },
        {
          "internalType": "enum Game.Status",
          "name": "actual",
          "type": "uint8"
        }
      ],
      "name": "InvalidGameStatus",
      "type": "error"
    },
    {
      "inputs": [],
      "name": "InvalidProofOfChance",
      "type": "error"
    },
    {
      "inputs": [],
      "name": "InvalidServiceChargePercent",
      "type": "error"
    },
    {
      "inputs": [],
      "name": "MaxNumberOfPlayersError",
      "type": "error"
    },
    {
      "inputs": [],
      "name": "MinimumWagerNotMet",
      "type": "error"
    },
    {
      "inputs": [
        {
          "internalType": "address",
          "name": "owner",
          "type": "address"
        }
      ],
      "name": "OwnableInvalidOwner",
      "type": "error"
    },
    {
      "inputs": [
        {
          "internalType": "address",
          "name": "account",
          "type": "address"
        }
      ],
      "name": "OwnableUnauthorizedAccount",
      "type": "error"
    },
    {
      "anonymous": false,
      "inputs": [
        {
          "indexed": true,
          "internalType": "uint256",
          "name": "gameID",
          "type": "uint256"
        },
        {
          "indexed": false,
          "internalType": "uint256",
          "name": "refundedAmountPerPlayer",
          "type": "uint256"
        }
      ],
      "name": "ExpiredGameRefunded",
      "type": "event"
    },
    {
      "anonymous": false,
      "inputs": [
        {
          "indexed": true,
          "internalType": "uint256",
          "name": "gameID",
          "type": "uint256"
        },
        {
          "indexed": false,
          "internalType": "enum Coin.Side",
          "name": "coinSide",
          "type": "uint8"
        },
        {
          "indexed": false,
          "internalType": "uint256",
          "name": "amountForEachWinner",
          "type": "uint256"
        }
      ],
      "name": "GameCompleted",
      "type": "event"
    },
    {
      "anonymous": false,
      "inputs": [
        {
          "indexed": true,
          "internalType": "uint256",
          "name": "gameID",
          "type": "uint256"
        },
        {
          "indexed": true,
          "internalType": "address",
          "name": "creator",
          "type": "address"
        },
        {
          "indexed": false,
          "internalType": "uint16",
          "name": "numberOfPlayers",
          "type": "uint16"
        },
        {
          "indexed": false,
          "internalType": "uint256",
          "name": "expiryTimestamp",
          "type": "uint256"
        },
        {
          "indexed": false,
          "internalType": "uint256",
          "name": "wager",
          "type": "uint256"
        }
      ],
      "name": "GameCreated",
      "type": "event"
    },
    {
      "anonymous": false,
      "inputs": [
        {
          "indexed": true,
          "internalType": "uint256",
          "name": "gameID",
          "type": "uint256"
        },
        {
          "indexed": false,
          "internalType": "uint256",
          "name": "expiryTimestamp",
          "type": "uint256"
        }
      ],
      "name": "GameExpiryAdjusted",
      "type": "event"
    },
    {
      "anonymous": false,
      "inputs": [
        {
          "indexed": true,
          "internalType": "uint256",
          "name": "gameID",
          "type": "uint256"
        },
        {
          "indexed": true,
          "internalType": "uint16",
          "name": "gamePlayID",
          "type": "uint16"
        },
        {
          "indexed": false,
          "internalType": "bytes",
          "name": "chanceAndSalt",
          "type": "bytes"
        }
      ],
      "name": "GamePlayChanceRevealed",
      "type": "event"
    },
    {
      "anonymous": false,
      "inputs": [
        {
          "indexed": true,
          "internalType": "uint256",
          "name": "gameID",
          "type": "uint256"
        },
        {
          "indexed": true,
          "internalType": "uint16",
          "name": "gamePlayID",
          "type": "uint16"
        },
        {
          "indexed": true,
          "internalType": "address",
          "name": "player",
          "type": "address"
        },
        {
          "indexed": false,
          "internalType": "enum Coin.Side",
          "name": "coinSide",
          "type": "uint8"
        },
        {
          "indexed": false,
          "internalType": "bytes32",
          "name": "proofOfChance",
          "type": "bytes32"
        }
      ],
      "name": "GamePlayCreated",
      "type": "event"
    },
    {
      "anonymous": false,
      "inputs": [
        {
          "indexed": true,
          "internalType": "address",
          "name": "previousOwner",
          "type": "address"
        },
        {
          "indexed": true,
          "internalType": "address",
          "name": "newOwner",
          "type": "address"
        }
      ],
      "name": "OwnershipTransferred",
      "type": "event"
    },
    {
      "inputs": [
        {
          "internalType": "uint256",
          "name": "gameID",
          "type": "uint256"
        },
        {
          "internalType": "uint256",
          "name": "newExpiryTimestamp",
          "type": "uint256"
        }
      ],
      "name": "adjustExpiryForGame",
      "outputs": [],
      "stateMutability": "nonpayable",
      "type": "function"
    },
    {
      "inputs": [
        {
          "internalType": "uint256[]",
          "name": "gameIDs",
          "type": "uint256[]"
        },
        {
          "internalType": "uint256",
          "name": "newExpiryTimestamp",
          "type": "uint256"
        }
      ],
      "name": "adjustExpiryForGames",
      "outputs": [],
      "stateMutability": "nonpayable",
      "type": "function"
    },
    {
      "inputs": [
        {
          "internalType": "uint256",
          "name": "wager",
          "type": "uint256"
        },
        {
          "internalType": "uint16",
          "name": "numberOfPlayers",
          "type": "uint16"
        },
        {
          "internalType": "uint256",
          "name": "expiryTimestamp",
          "type": "uint256"
        },
        {
          "internalType": "enum Coin.Side",
          "name": "coinSide",
          "type": "uint8"
        },
        {
          "internalType": "bytes32",
          "name": "proofOfChance",
          "type": "bytes32"
        }
      ],
      "name": "createGame",
      "outputs": [],
      "stateMutability": "payable",
      "type": "function"
    },
    {
      "inputs": [],
      "name": "gamesCount",
      "outputs": [
        {
          "internalType": "uint256",
          "name": "",
          "type": "uint256"
        }
      ],
      "stateMutability": "view",
      "type": "function"
    },
    {
      "inputs": [
        {
          "internalType": "uint256",
          "name": "amount",
          "type": "uint256"
        }
      ],
      "name": "getServiceCharge",
      "outputs": [
        {
          "internalType": "uint256",
          "name": "",
          "type": "uint256"
        }
      ],
      "stateMutability": "view",
      "type": "function"
    },
    {
      "inputs": [],
      "name": "getServiceProviderWallet",
      "outputs": [
        {
          "internalType": "address",
          "name": "",
          "type": "address"
        }
      ],
      "stateMutability": "view",
      "type": "function"
    },
    {
      "inputs": [],
      "name": "maxNumberOfPlayers",
      "outputs": [
        {
          "internalType": "uint16",
          "name": "",
          "type": "uint16"
        }
      ],
      "stateMutability": "view",
      "type": "function"
    },
    {
      "inputs": [],
      "name": "minWager",
      "outputs": [
        {
          "internalType": "uint256",
          "name": "",
          "type": "uint256"
        }
      ],
      "stateMutability": "view",
      "type": "function"
    },
    {
      "inputs": [],
      "name": "owner",
      "outputs": [
        {
          "internalType": "address",
          "name": "",
          "type": "address"
        }
      ],
      "stateMutability": "view",
      "type": "function"
    },
    {
      "inputs": [
        {
          "internalType": "uint256",
          "name": "gameID",
          "type": "uint256"
        }
      ],
      "name": "playCounts",
      "outputs": [
        {
          "internalType": "uint16",
          "name": "playCount",
          "type": "uint16"
        }
      ],
      "stateMutability": "view",
      "type": "function"
    },
    {
      "inputs": [
        {
          "internalType": "uint256",
          "name": "gameID",
          "type": "uint256"
        },
        {
          "internalType": "enum Coin.Side",
          "name": "coinSide",
          "type": "uint8"
        },
        {
          "internalType": "bytes32",
          "name": "proofOfChance",
          "type": "bytes32"
        }
      ],
      "name": "playGame",
      "outputs": [],
      "stateMutability": "payable",
      "type": "function"
    },
    {
      "inputs": [
        {
          "internalType": "uint256",
          "name": "gameID",
          "type": "uint256"
        },
        {
          "internalType": "uint16",
          "name": "playID",
          "type": "uint16"
        }
      ],
      "name": "proofOfChances",
      "outputs": [
        {
          "internalType": "bytes32",
          "name": "proofOfChance",
          "type": "bytes32"
        }
      ],
      "stateMutability": "view",
      "type": "function"
    },
    {
      "inputs": [
        {
          "internalType": "uint256[]",
          "name": "gameIDs",
          "type": "uint256[]"
        }
      ],
      "name": "refundExpiredGamePlayersForAllGames",
      "outputs": [],
      "stateMutability": "nonpayable",
      "type": "function"
    },
    {
      "inputs": [
        {
          "internalType": "uint256",
          "name": "gameID",
          "type": "uint256"
        },
        {
          "internalType": "bytes[]",
          "name": "chanceAndSalts",
          "type": "bytes[]"
        }
      ],
      "name": "revealChancesAndCreditWinners",
      "outputs": [],
      "stateMutability": "nonpayable",
      "type": "function"
    },
    {
      "inputs": [],
      "name": "serviceChargePercent",
      "outputs": [
        {
          "internalType": "uint8",
          "name": "",
          "type": "uint8"
        }
      ],
      "stateMutability": "view",
      "type": "function"
    },
    {
      "inputs": [
        {
          "internalType": "bool",
          "name": "isOperational_",
          "type": "bool"
        }
      ],
      "name": "setIsOperational",
      "outputs": [],
      "stateMutability": "nonpayable",
      "type": "function"
    },
    {
      "inputs": [
        {
          "internalType": "address",
          "name": "newOwner",
          "type": "address"
        }
      ],
      "name": "transferOwnership",
      "outputs": [],
      "stateMutability": "nonpayable",
      "type": "function"
    },
    {
      "inputs": [
        {
          "internalType": "uint16",
          "name": "maxNumberOfPlayers_",
          "type": "uint16"
        }
      ],
      "name": "updateMaxNumberOfPlayers",
      "outputs": [],
      "stateMutability": "nonpayable",
      "type": "function"
    },
    {
      "inputs": [
        {
          "internalType": "uint16",
          "name": "minWager_",
          "type": "uint16"
        }
      ],
      "name": "updateMinWagerOfPlayers",
      "outputs": [],
      "stateMutability": "nonpayable",
      "type": "function"
    },
    {
      "inputs": [
        {
          "internalType": "uint8",
          "name": "serviceChargePercent_",
          "type": "uint8"
        }
      ],
      "name": "updateServiceChargePercent",
      "outputs": [],
      "stateMutability": "nonpayable",
      "type": "function"
    },
    {
      "inputs": [
        {
          "internalType": "address payable",
          "name": "wallets_",
          "type": "address"
        }
      ],
      "name": "updateWallets",
      "outputs": [],
      "stateMutability": "nonpayable",
      "type": "function"
    },
    {
      "inputs": [],
      "name": "wallets",
      "outputs": [
        {
          "internalType": "contract Wallets",
          "name": "",
          "type": "address"
        }
      ],
      "stateMutability": "view",
      "type": "function"
    },
    {
      "stateMutability": "payable",
      "type": "receive"
    }
  ],
  "transactionHash": "0xca21c57e8f7102c402346d77c1f0ca20981ebd00299f85036efa16e75dc6263e",
  "args": [
    "0x42c95416B24046031310029a0531BA49592bAcbF",
    20,
    "40000000000000000"
  ],
  "numDeployments": 4,
  "solcInputHash": "6e9c37ec4bc8eaaaf709005699552ad9",
  "bytecode": "0x60806040526001600a60146101000a81548160ff0219169083151502179055506008600a60156101000a81548160ff021916908360ff1602179055503480156200004857600080fd5b506040516200305b3803806200305b83398181016040528101906200006e919062000297565b6200007f33620000ed60201b60201c565b82600e60006101000a81548173ffffffffffffffffffffffffffffffffffffffff021916908373ffffffffffffffffffffffffffffffffffffffff16021790555081600c60006101000a81548161ffff021916908361ffff16021790555080600b81905550505050620002f3565b6000600a60009054906101000a900473ffffffffffffffffffffffffffffffffffffffff16905081600a60006101000a81548173ffffffffffffffffffffffffffffffffffffffff021916908373ffffffffffffffffffffffffffffffffffffffff1602179055508173ffffffffffffffffffffffffffffffffffffffff168173ffffffffffffffffffffffffffffffffffffffff167f8be0079c531659141344cd1fd0a4f28419497f9722a3daafe3b4186f6b6457e060405160405180910390a35050565b600080fd5b600073ffffffffffffffffffffffffffffffffffffffff82169050919050565b6000620001e582620001b8565b9050919050565b620001f781620001d8565b81146200020357600080fd5b50565b6000815190506200021781620001ec565b92915050565b600061ffff82169050919050565b62000236816200021d565b81146200024257600080fd5b50565b60008151905062000256816200022b565b92915050565b6000819050919050565b62000271816200025c565b81146200027d57600080fd5b50565b600081519050620002918162000266565b92915050565b600080600060608486031215620002b357620002b2620001b3565b5b6000620002c38682870162000206565b9350506020620002d68682870162000245565b9250506040620002e98682870162000280565b9150509250925092565b612d5880620003036000396000f3fe6080604052600436106101395760003560e01c80637d627c16116100ab578063c5409ead1161006f578063c5409ead14610416578063cfd9520a1461043f578063d2f4a50a14610468578063f2fde38b14610493578063fb632b7c146104bc578063fee445cc146104e757610148565b80637d627c16146103435780638da5cb5b1461036c578063b5ece92314610397578063bb9c3f2b146103c0578063c122212f146103eb57610148565b806332d54997116100fd57806332d549971461020d57806339a21b0b1461024a57806353e636fc14610273578063728fdffa146102b05780637737f50d146102db5780637cb4baf91461031857610148565b8063106608591461014d57806318e70bd8146101765780631a7d9cad1461019f5780632851a5cf146101bb5780632cda6e77146101e457610148565b3661014857610146610503565b005b600080fd5b34801561015957600080fd5b50610174600480360381019061016f9190611df8565b610593565b005b34801561018257600080fd5b5061019d60048036038101906101989190611fea565b610627565b005b6101b960048036038101906101b491906120db565b610a14565b005b3480156101c757600080fd5b506101e260048036038101906101dd91906121b4565b610bbc565b005b3480156101f057600080fd5b5061020b6004803603810190610206919061221a565b610c08565b005b34801561021957600080fd5b50610234600480360381019061022f9190612247565b610c6b565b6040516102419190612283565b60405180910390f35b34801561025657600080fd5b50610271600480360381019061026c919061229e565b610c9e565b005b34801561027f57600080fd5b5061029a600480360381019061029591906122e7565b610cea565b6040516102a79190612336565b60405180910390f35b3480156102bc57600080fd5b506102c5610d0f565b6040516102d29190612360565b60405180910390f35b3480156102e757600080fd5b5061030260048036038101906102fd9190612247565b610d23565b60405161030f9190612360565b60405180910390f35b34801561032457600080fd5b5061032d610d44565b60405161033a919061238a565b60405180910390f35b34801561034f57600080fd5b5061036a600480360381019061036591906123a5565b610d57565b005b34801561037857600080fd5b50610381610d7f565b60405161038e91906123f3565b60405180910390f35b3480156103a357600080fd5b506103be60048036038101906103b99190612446565b610da9565b005b3480156103cc57600080fd5b506103d5610dce565b6040516103e29190612283565b60405180910390f35b3480156103f757600080fd5b50610400610dd4565b60405161040d91906123f3565b60405180910390f35b34801561042257600080fd5b5061043d60048036038101906104389190612473565b610de3565b005b34801561044b57600080fd5b50610466600480360381019061046191906123a5565b610e31565b005b34801561047457600080fd5b5061047d610e47565b60405161048a9190612512565b60405180910390f35b34801561049f57600080fd5b506104ba60048036038101906104b59190612559565b610e6d565b005b3480156104c857600080fd5b506104d1610e81565b6040516104de9190612283565b60405180910390f35b61050160048036038101906104fc9190612586565b610e87565b005b600e60009054906101000a900473ffffffffffffffffffffffffffffffffffffffff1673ffffffffffffffffffffffffffffffffffffffff166312314e9734336040518363ffffffff1660e01b815260040161055f91906123f3565b6000604051808303818588803b15801561057857600080fd5b505af115801561058c573d6000803e3d6000fd5b5050505050565b61059b6111f3565b60005b82518160ff161015610622576000838260ff16815181106105c2576105c16125d9565b5b602002602001015190506105d6818461126c565b807fd617e9095b23d7bb3907d94521de27edce9fd9923dfb73805aa57d4f5338bb54846040516106069190612283565b60405180910390a250808061061a90612637565b91505061059e565b505050565b61062f6111f3565b816002600061063d836112c1565b905081600381111561065257610651612660565b5b81600381111561066557610664612660565b5b146106ab578282826040517f7765da350000000000000000000000000000000000000000000000000000000081526004016106a2939291906126d7565b60405180910390fd5b600080600090505b6001600088815260200190815260200160002060009054906101000a900461ffff1661ffff168161ffff1610156108e7576000868261ffff16815181106106fd576106fc6125d9565b5b602002602001015190506000600183610716919061270e565b9050600660008a815260200190815260200160002060008261ffff1661ffff1681526020019081526020016000205460028360405161075591906127b5565b602060405180830381855afa158015610772573d6000803e3d6000fd5b5050506040513d601f19601f8201168201806040525081019061079591906127e1565b146107cc576040517f402fb0a400000000000000000000000000000000000000000000000000000000815260040160405180910390fd5b6000828060200190518101906107e291906128be565b50905060005b60108160ff161015610893576000828260ff166010811061080c5761080b6125d9565b5b1a60f81b9050600060f81b817effffffffffffffffffffffffffffffffffffffffffffffffffffffffffffff1916036108455750610893565b6000600181111561085957610858612660565b5b87600181111561086c5761086b612660565b5b0361087a576001965061087f565b600096505b50808061088b90612637565b9150506107e8565b508161ffff168a7fa1ffc642177ab118fa3d9c64797cbc129024fdd953e7fc92c64eb358d2eaccfa856040516108c99190612948565b60405180910390a350505080806108df9061296a565b9150506106b3565b50600060036000888152602001908152602001600020600083600181111561091257610911612660565b5b600181111561092457610923612660565b5b81526020019081526020016000208054806020026020016040519081016040528092919081815260200182805480156109b257602002820191906000526020600020905b8160009054906101000a900473ffffffffffffffffffffffffffffffffffffffff1673ffffffffffffffffffffffffffffffffffffffff1681526020019060010190808311610968575b5050505050905060006109c58883611310565b90506109d0886113ff565b877fa3f5520e27ebcfe38fd78c3854e39d00e8e9f7061551105f86fe8d1596ef84b88483604051610a029291906129dc565b60405180910390a25050505050505050565b600a60149054906101000a900460ff16610a5a576040517ffececd2700000000000000000000000000000000000000000000000000000000815260040160405180910390fd5b600b54851015610a96576040517f139196d300000000000000000000000000000000000000000000000000000000815260040160405180910390fd5b600260ff168461ffff161015610aaf57610aae612a05565b5b600c60009054906101000a900461ffff1661ffff168461ffff161115610b01576040517f5473ed1a00000000000000000000000000000000000000000000000000000000815260040160405180910390fd5b60006001600d54610b129190612a34565b9050610b1c61143e565b610b268187611452565b610b30818761146e565b610b3a8186611503565b610b44818561126c565b600d600081548092919060010191905055503373ffffffffffffffffffffffffffffffffffffffff16817fff4ce5d936207f27c07633704e6d1a8aa0d1ae75aad73192582381fe9a2ed20687878a604051610ba193929190612a68565b60405180910390a3610bb4818484611535565b505050505050565b610bc46111f3565b80600e60006101000a81548173ffffffffffffffffffffffffffffffffffffffff021916908373ffffffffffffffffffffffffffffffffffffffff16021790555050565b610c106111f3565b60648160ff1610610c4d576040517f4756d23c00000000000000000000000000000000000000000000000000000000815260040160405180910390fd5b80600a60156101000a81548160ff021916908360ff16021790555050565b60006064600a60159054906101000a900460ff1660ff1683610c8d9190612a9f565b610c979190612b10565b9050919050565b60005b81518160ff161015610ce657610cd3828260ff1681518110610cc657610cc56125d9565b5b6020026020010151611847565b8080610cde90612637565b915050610ca1565b5050565b6006602052816000526040600020602052806000526040600020600091509150505481565b600c60009054906101000a900461ffff1681565b60016020528060005260406000206000915054906101000a900461ffff1681565b600a60159054906101000a900460ff1681565b610d5f6111f3565b80600c60006101000a81548161ffff021916908361ffff16021790555050565b6000600a60009054906101000a900473ffffffffffffffffffffffffffffffffffffffff16905090565b610db16111f3565b80600a60146101000a81548160ff02191690831515021790555050565b600b5481565b6000610dde610d7f565b905090565b610deb6111f3565b610df5828261126c565b817fd617e9095b23d7bb3907d94521de27edce9fd9923dfb73805aa57d4f5338bb5482604051610e259190612283565b60405180910390a25050565b610e396111f3565b8061ffff16600b8190555050565b600e60009054906101000a900473ffffffffffffffffffffffffffffffffffffffff1681565b610e756111f3565b610e7e81611a77565b50565b600d5481565b600a60149054906101000a900460ff16610ecd576040517ffececd2700000000000000000000000000000000000000000000000000000000815260040160405180910390fd5b82600080610eda836112c1565b9050816003811115610eef57610eee612660565b5b816003811115610f0257610f01612660565b5b14610f48578282826040517f7765da35000000000000000000000000000000000000000000000000000000008152600401610f3f939291906126d7565b60405180910390fd5b858560006001600084815260200190815260200160002060009054906101000a900461ffff166002600085815260200190815260200160002060009054906101000a900461ffff16610f9a9190612b41565b90506000600460008581526020019081526020016000206000806001811115610fc657610fc5612660565b5b6001811115610fd857610fd7612660565b5b815260200190815260200160002060009054906101000a900461ffff169050600060046000868152602001908152602001600020600060018081111561102157611020612660565b5b600181111561103357611032612660565b5b815260200190815260200160002060009054906101000a900461ffff16905060018361ffff16148015611079575060008261ffff161480611078575060008161ffff16145b5b15611103576000808361ffff16036110945760009050611099565b600190505b8060018111156110ac576110ab612660565b5b8560018111156110bf576110be612660565b5b1461110157806040517f14759b500000000000000000000000000000000000000000000000000000000081526004016110f89190612b77565b60405180910390fd5b505b8a600080600083815260200190815260200160002060003373ffffffffffffffffffffffffffffffffffffffff1673ffffffffffffffffffffffffffffffffffffffff16815260200190815260200160002060009054906101000a900461ffff16905060008161ffff1611156111b057806040517fccfdba1f0000000000000000000000000000000000000000000000000000000081526004016111a79190612360565b60405180910390fd5b6111b861143e565b60006111c38e611b3d565b90506111cf8e8261146e565b6111da8e8e8e611535565b6111e38e611b5a565b5050505050505050505050505050565b3373ffffffffffffffffffffffffffffffffffffffff16611212610d7f565b73ffffffffffffffffffffffffffffffffffffffff161461126a57336040517f118cdaa700000000000000000000000000000000000000000000000000000000815260040161126191906123f3565b60405180910390fd5b565b4281116112a5576040517f4257cab200000000000000000000000000000000000000000000000000000000815260040160405180910390fd5b8060096000848152602001908152602001600020819055505050565b600042600960008481526020019081526020016000205410156112e7576001905061130b565b6008600083815260200190815260200160002060009054906101000a900460ff1690505b919050565b60008061131c84611b3d565b905060006001600086815260200190815260200160002060009054906101000a900461ffff1661ffff16826113519190612a9f565b90506000611360828651611bc4565b9050600e60009054906101000a900473ffffffffffffffffffffffffffffffffffffffff1673ffffffffffffffffffffffffffffffffffffffff1663c288e4048787846040518463ffffffff1660e01b81526004016113c193929190612c50565b600060405180830381600087803b1580156113db57600080fd5b505af11580156113ef573d6000803e3d6000fd5b5050505080935050505092915050565b60036008600083815260200190815260200160002060006101000a81548160ff0219169083600381111561143657611435612660565b5b021790555050565b60003411156114505761144f610503565b5b565b8060076000848152602001908152602001600020819055505050565b600e60009054906101000a900473ffffffffffffffffffffffffffffffffffffffff1673ffffffffffffffffffffffffffffffffffffffff1663037e34e58333846040518463ffffffff1660e01b81526004016114cd93929190612c8e565b600060405180830381600087803b1580156114e757600080fd5b505af11580156114fb573d6000803e3d6000fd5b505050505050565b806002600084815260200190815260200160002060006101000a81548161ffff021916908361ffff1602179055505050565b6000600180600086815260200190815260200160002060009054906101000a900461ffff16611564919061270e565b90508060008086815260200190815260200160002060003373ffffffffffffffffffffffffffffffffffffffff1673ffffffffffffffffffffffffffffffffffffffff16815260200190815260200160002060006101000a81548161ffff021916908361ffff160217905550816006600086815260200190815260200160002060008361ffff1661ffff1681526020019081526020016000208190555060036000858152602001908152602001600020600084600181111561162957611628612660565b5b600181111561163b5761163a612660565b5b8152602001908152602001600020339080600181540180825580915050600190039060005260206000200160009091909190916101000a81548173ffffffffffffffffffffffffffffffffffffffff021916908373ffffffffffffffffffffffffffffffffffffffff16021790555060056000858152602001908152602001600020339080600181540180825580915050600190039060005260206000200160009091909190916101000a81548173ffffffffffffffffffffffffffffffffffffffff021916908373ffffffffffffffffffffffffffffffffffffffff16021790555060046000858152602001908152602001600020600084600181111561174657611745612660565b5b600181111561175857611757612660565b5b8152602001908152602001600020600081819054906101000a900461ffff16809291906117849061296a565b91906101000a81548161ffff021916908361ffff1602179055505060016000858152602001908152602001600020600081819054906101000a900461ffff16809291906117d09061296a565b91906101000a81548161ffff021916908361ffff160217905550503373ffffffffffffffffffffffffffffffffffffffff168161ffff16857fe7b36541da149ae31f5dd2085cea9f899aa58f8b33bb0db2be6acfe1d31515e58686604051611839929190612cc5565b60405180910390a450505050565b61184f6111f3565b806001600061185d836112c1565b905081600381111561187257611871612660565b5b81600381111561188557611884612660565b5b146118cb578282826040517f7765da350000000000000000000000000000000000000000000000000000000081526004016118c2939291906126d7565b60405180910390fd5b60006005600086815260200190815260200160002080548060200260200160405190810160405280929190818152602001828054801561196057602002820191906000526020600020905b8160009054906101000a900473ffffffffffffffffffffffffffffffffffffffff1673ffffffffffffffffffffffffffffffffffffffff1681526020019060010190808311611916575b5050505050905060008151905060008161ffff1661197d88611b3d565b6119879190612a9f565b90506000611999828461ffff16611bc4565b9050600e60009054906101000a900473ffffffffffffffffffffffffffffffffffffffff1673ffffffffffffffffffffffffffffffffffffffff1663c288e4048986846040518463ffffffff1660e01b81526004016119fa93929190612c50565b600060405180830381600087803b158015611a1457600080fd5b505af1158015611a28573d6000803e3d6000fd5b50505050611a35886113ff565b877f483a9ad42b66e69a3096814ad798345a0ed09694552a5b8a04abce8a0ba6fa2582604051611a659190612283565b60405180910390a25050505050505050565b6000600a60009054906101000a900473ffffffffffffffffffffffffffffffffffffffff16905081600a60006101000a81548173ffffffffffffffffffffffffffffffffffffffff021916908373ffffffffffffffffffffffffffffffffffffffff1602179055508173ffffffffffffffffffffffffffffffffffffffff168173ffffffffffffffffffffffffffffffffffffffff167f8be0079c531659141344cd1fd0a4f28419497f9722a3daafe3b4186f6b6457e060405160405180910390a35050565b600060076000838152602001908152602001600020549050919050565b60006001600083815260200190815260200160002060009054906101000a900461ffff16905060006002600084815260200190815260200160002060009054906101000a900461ffff1690508061ffff168261ffff1603611bbf57611bbe83611c16565b5b505050565b6000808284611bd39190612b10565b90506064600a60159054906101000a900460ff1660ff1682611bf59190612a9f565b611bff9190612b10565b81611c0a9190612cee565b90508091505092915050565b60026008600083815260200190815260200160002060006101000a81548160ff02191690836003811115611c4d57611c4c612660565b5b021790555050565b6000604051905090565b600080fd5b600080fd5b600080fd5b6000601f19601f8301169050919050565b7f4e487b7100000000000000000000000000000000000000000000000000000000600052604160045260246000fd5b611cb782611c6e565b810181811067ffffffffffffffff82111715611cd657611cd5611c7f565b5b80604052505050565b6000611ce9611c55565b9050611cf58282611cae565b919050565b600067ffffffffffffffff821115611d1557611d14611c7f565b5b602082029050602081019050919050565b600080fd5b6000819050919050565b611d3e81611d2b565b8114611d4957600080fd5b50565b600081359050611d5b81611d35565b92915050565b6000611d74611d6f84611cfa565b611cdf565b90508083825260208201905060208402830185811115611d9757611d96611d26565b5b835b81811015611dc05780611dac8882611d4c565b845260208401935050602081019050611d99565b5050509392505050565b600082601f830112611ddf57611dde611c69565b5b8135611def848260208601611d61565b91505092915050565b60008060408385031215611e0f57611e0e611c5f565b5b600083013567ffffffffffffffff811115611e2d57611e2c611c64565b5b611e3985828601611dca565b9250506020611e4a85828601611d4c565b9150509250929050565b600067ffffffffffffffff821115611e6f57611e6e611c7f565b5b602082029050602081019050919050565b600080fd5b600067ffffffffffffffff821115611ea057611e9f611c7f565b5b611ea982611c6e565b9050602081019050919050565b82818337600083830152505050565b6000611ed8611ed384611e85565b611cdf565b905082815260208101848484011115611ef457611ef3611e80565b5b611eff848285611eb6565b509392505050565b600082601f830112611f1c57611f1b611c69565b5b8135611f2c848260208601611ec5565b91505092915050565b6000611f48611f4384611e54565b611cdf565b90508083825260208201905060208402830185811115611f6b57611f6a611d26565b5b835b81811015611fb257803567ffffffffffffffff811115611f9057611f8f611c69565b5b808601611f9d8982611f07565b85526020850194505050602081019050611f6d565b5050509392505050565b600082601f830112611fd157611fd0611c69565b5b8135611fe1848260208601611f35565b91505092915050565b6000806040838503121561200157612000611c5f565b5b600061200f85828601611d4c565b925050602083013567ffffffffffffffff8111156120305761202f611c64565b5b61203c85828601611fbc565b9150509250929050565b600061ffff82169050919050565b61205d81612046565b811461206857600080fd5b50565b60008135905061207a81612054565b92915050565b6002811061208d57600080fd5b50565b60008135905061209f81612080565b92915050565b6000819050919050565b6120b8816120a5565b81146120c357600080fd5b50565b6000813590506120d5816120af565b92915050565b600080600080600060a086880312156120f7576120f6611c5f565b5b600061210588828901611d4c565b95505060206121168882890161206b565b945050604061212788828901611d4c565b935050606061213888828901612090565b9250506080612149888289016120c6565b9150509295509295909350565b600073ffffffffffffffffffffffffffffffffffffffff82169050919050565b600061218182612156565b9050919050565b61219181612176565b811461219c57600080fd5b50565b6000813590506121ae81612188565b92915050565b6000602082840312156121ca576121c9611c5f565b5b60006121d88482850161219f565b91505092915050565b600060ff82169050919050565b6121f7816121e1565b811461220257600080fd5b50565b600081359050612214816121ee565b92915050565b6000602082840312156122305761222f611c5f565b5b600061223e84828501612205565b91505092915050565b60006020828403121561225d5761225c611c5f565b5b600061226b84828501611d4c565b91505092915050565b61227d81611d2b565b82525050565b60006020820190506122986000830184612274565b92915050565b6000602082840312156122b4576122b3611c5f565b5b600082013567ffffffffffffffff8111156122d2576122d1611c64565b5b6122de84828501611dca565b91505092915050565b600080604083850312156122fe576122fd611c5f565b5b600061230c85828601611d4c565b925050602061231d8582860161206b565b9150509250929050565b612330816120a5565b82525050565b600060208201905061234b6000830184612327565b92915050565b61235a81612046565b82525050565b60006020820190506123756000830184612351565b92915050565b612384816121e1565b82525050565b600060208201905061239f600083018461237b565b92915050565b6000602082840312156123bb576123ba611c5f565b5b60006123c98482850161206b565b91505092915050565b60006123dd82612156565b9050919050565b6123ed816123d2565b82525050565b600060208201905061240860008301846123e4565b92915050565b60008115159050919050565b6124238161240e565b811461242e57600080fd5b50565b6000813590506124408161241a565b92915050565b60006020828403121561245c5761245b611c5f565b5b600061246a84828501612431565b91505092915050565b6000806040838503121561248a57612489611c5f565b5b600061249885828601611d4c565b92505060206124a985828601611d4c565b9150509250929050565b6000819050919050565b60006124d86124d36124ce84612156565b6124b3565b612156565b9050919050565b60006124ea826124bd565b9050919050565b60006124fc826124df565b9050919050565b61250c816124f1565b82525050565b60006020820190506125276000830184612503565b92915050565b612536816123d2565b811461254157600080fd5b50565b6000813590506125538161252d565b92915050565b60006020828403121561256f5761256e611c5f565b5b600061257d84828501612544565b91505092915050565b60008060006060848603121561259f5761259e611c5f565b5b60006125ad86828701611d4c565b93505060206125be86828701612090565b92505060406125cf868287016120c6565b9150509250925092565b7f4e487b7100000000000000000000000000000000000000000000000000000000600052603260045260246000fd5b7f4e487b7100000000000000000000000000000000000000000000000000000000600052601160045260246000fd5b6000612642826121e1565b915060ff820361265557612654612608565b5b600182019050919050565b7f4e487b7100000000000000000000000000000000000000000000000000000000600052602160045260246000fd5b600481106126a05761269f612660565b5b50565b60008190506126b18261268f565b919050565b60006126c1826126a3565b9050919050565b6126d1816126b6565b82525050565b60006060820190506126ec6000830186612274565b6126f960208301856126c8565b61270660408301846126c8565b949350505050565b600061271982612046565b915061272483612046565b9250828201905061ffff81111561273e5761273d612608565b5b92915050565b600081519050919050565b600081905092915050565b60005b8381101561277857808201518184015260208101905061275d565b60008484015250505050565b600061278f82612744565b612799818561274f565b93506127a981856020860161275a565b80840191505092915050565b60006127c18284612784565b915081905092915050565b6000815190506127db816120af565b92915050565b6000602082840312156127f7576127f6611c5f565b5b6000612805848285016127cc565b91505092915050565b60007fffffffffffffffffffffffffffffffff0000000000000000000000000000000082169050919050565b6128438161280e565b811461284e57600080fd5b50565b6000815190506128608161283a565b92915050565b60007fffffffffffffffff00000000000000000000000000000000000000000000000082169050919050565b61289b81612866565b81146128a657600080fd5b50565b6000815190506128b881612892565b92915050565b600080604083850312156128d5576128d4611c5f565b5b60006128e385828601612851565b92505060206128f4858286016128a9565b9150509250929050565b600082825260208201905092915050565b600061291a82612744565b61292481856128fe565b935061293481856020860161275a565b61293d81611c6e565b840191505092915050565b60006020820190508181036000830152612962818461290f565b905092915050565b600061297582612046565b915061ffff820361298957612988612608565b5b600182019050919050565b600281106129a5576129a4612660565b5b50565b60008190506129b682612994565b919050565b60006129c6826129a8565b9050919050565b6129d6816129bb565b82525050565b60006040820190506129f160008301856129cd565b6129fe6020830184612274565b9392505050565b7f4e487b7100000000000000000000000000000000000000000000000000000000600052600160045260246000fd5b6000612a3f82611d2b565b9150612a4a83611d2b565b9250828201905080821115612a6257612a61612608565b5b92915050565b6000606082019050612a7d6000830186612351565b612a8a6020830185612274565b612a976040830184612274565b949350505050565b6000612aaa82611d2b565b9150612ab583611d2b565b9250828202612ac381611d2b565b91508282048414831517612ada57612ad9612608565b5b5092915050565b7f4e487b7100000000000000000000000000000000000000000000000000000000600052601260045260246000fd5b6000612b1b82611d2b565b9150612b2683611d2b565b925082612b3657612b35612ae1565b5b828204905092915050565b6000612b4c82612046565b9150612b5783612046565b9250828203905061ffff811115612b7157612b70612608565b5b92915050565b6000602082019050612b8c60008301846129cd565b92915050565b600081519050919050565b600082825260208201905092915050565b6000819050602082019050919050565b612bc7816123d2565b82525050565b6000612bd98383612bbe565b60208301905092915050565b6000602082019050919050565b6000612bfd82612b92565b612c078185612b9d565b9350612c1283612bae565b8060005b83811015612c43578151612c2a8882612bcd565b9750612c3583612be5565b925050600181019050612c16565b5085935050505092915050565b6000606082019050612c656000830186612274565b8181036020830152612c778185612bf2565b9050612c866040830184612274565b949350505050565b6000606082019050612ca36000830186612274565b612cb060208301856123e4565b612cbd6040830184612274565b949350505050565b6000604082019050612cda60008301856129cd565b612ce76020830184612327565b9392505050565b6000612cf982611d2b565b9150612d0483611d2b565b9250828203905081811115612d1c57612d1b612608565b5b9291505056fea2646970667358221220f36576bc2832b9612868d1b1e4e18c0aa71a5c2e8e1423d1623eec92344044d764736f6c63430008140033",
  "devdoc": {
    "errors": {
      "OwnableInvalidOwner(address)": [
        {
          "details": "The owner is not a valid owner account."
        }
      ]
    },
    "kind": "dev",
    "methods": {
      "createGame(uint256,uint16,uint256,uint8,bytes32)": {
        "params": {
          "coinSide": "predicted coin side by you, the creator",
          "expiryTimestamp": "Expiry timestamp of the game",
          "numberOfPlayers": "number of participating players",
          "proofOfChance": "SHA256 hash of your chance (lucky word[s]) and a random salt combined",
          "wager": "ether value required paticipating players to pay before playing"
        }
      },
      "getServiceProviderWallet()": {
        "details": "Returns the service provider wallet owner"
      },
      "owner()": {
        "details": "Returns the address of the current owner."
      },
      "playGame(uint256,uint8,bytes32)": {
        "params": {
          "coinSide": "coin side outcome prediction",
          "gameID": "already created game ID",
          "proofOfChance": "SHA256 hash of your chance (lucky word[s]) and a random salt combined"
        }
      },
      "refundExpiredGamePlayersForAllGames(uint256[])": {
        "params": {
          "gameIDs": "game IDs of expired games"
        }
      },
      "revealChancesAndCreditWinners(uint256,bytes[])": {
        "params": {
          "chanceAndSalts": "list of the chance and salts combined in the order of their respecitive play IDs",
          "gameID": "already created game ID"
        }
      },
      "setIsOperational(bool)": {
        "details": "Sets contract operations on/off When isOperational is false, all affected write transactions except for this one will fail"
      },
      "transferOwnership(address)": {
        "details": "Transfers ownership of the contract to a new account (`newOwner`). Can only be called by the current owner."
      }
    },
    "version": 1
  },
  "userdoc": {
    "errors": {
      "OwnableUnauthorizedAccount(address)": [
        {
          "notice": "The caller account is not authorized to perform an operation."
        }
      ]
    },
    "kind": "user",
    "methods": {
      "createGame(uint256,uint16,uint256,uint8,bytes32)": {
        "notice": "Creates a new game"
      },
      "playGame(uint256,uint8,bytes32)": {
        "notice": "Allows playing an already created game"
      },
      "refundExpiredGamePlayersForAllGames(uint256[])": {
        "notice": "Batch refunds expired game players"
      },
      "revealChancesAndCreditWinners(uint256,bytes[])": {
        "notice": "Reveals the chances (lucky words) of all plays for a given game. After, it computes and stores the coinflip outcome for the given game. Then, it credits players that predicted the coinflip outcome correctly with the combined wager shared equally (after service charge deduction)"
      },
      "updateMaxNumberOfPlayers(uint16)": {
        "notice": "Updates max number of players to avoid concluding games with very high gas fee"
      },
      "updateMinWagerOfPlayers(uint16)": {
        "notice": "Updates min wager allowed"
      },
      "updateWallets(address)": {
        "notice": "Allow updating Wallets conrtact in case a PPV is ever discovered"
      }
    },
    "version": 1
  },
  "storageLayout": {
    "storage": [
      {
        "astId": 751,
        "contract": "src/Coinflip.sol:Coinflip",
        "label": "playRecord",
        "offset": 0,
        "slot": "0",
        "type": "t_mapping(t_uint256,t_mapping(t_address,t_uint16))"
      },
      {
        "astId": 755,
        "contract": "src/Coinflip.sol:Coinflip",
        "label": "playCounts",
        "offset": 0,
        "slot": "1",
        "type": "t_mapping(t_uint256,t_uint16)"
      },
      {
        "astId": 759,
        "contract": "src/Coinflip.sol:Coinflip",
        "label": "numberOfPlayersPerGame",
        "offset": 0,
        "slot": "2",
        "type": "t_mapping(t_uint256,t_uint16)"
      },
      {
        "astId": 767,
        "contract": "src/Coinflip.sol:Coinflip",
        "label": "players",
        "offset": 0,
        "slot": "3",
        "type": "t_mapping(t_uint256,t_mapping(t_enum(Side)725,t_array(t_address)dyn_storage))"
      },
      {
        "astId": 774,
        "contract": "src/Coinflip.sol:Coinflip",
        "label": "coinSideCounts",
        "offset": 0,
        "slot": "4",
        "type": "t_mapping(t_uint256,t_mapping(t_enum(Side)725,t_uint16))"
      },
      {
        "astId": 779,
        "contract": "src/Coinflip.sol:Coinflip",
        "label": "allPlayers",
        "offset": 0,
        "slot": "5",
        "type": "t_mapping(t_uint256,t_array(t_address)dyn_storage)"
      },
      {
        "astId": 785,
        "contract": "src/Coinflip.sol:Coinflip",
        "label": "proofOfChances",
        "offset": 0,
        "slot": "6",
        "type": "t_mapping(t_uint256,t_mapping(t_uint16,t_bytes32))"
      },
      {
        "astId": 1146,
        "contract": "src/Coinflip.sol:Coinflip",
        "label": "wagers",
        "offset": 0,
        "slot": "7",
        "type": "t_mapping(t_uint256,t_uint256)"
      },
      {
        "astId": 1016,
        "contract": "src/Coinflip.sol:Coinflip",
        "label": "statuses",
        "offset": 0,
        "slot": "8",
        "type": "t_mapping(t_uint256,t_enum(Status)738)"
      },
      {
        "astId": 1020,
        "contract": "src/Coinflip.sol:Coinflip",
        "label": "expiryTimestamps",
        "offset": 0,
        "slot": "9",
        "type": "t_mapping(t_uint256,t_uint256)"
      },
      {
        "astId": 1214,
        "contract": "src/Coinflip.sol:Coinflip",
        "label": "_owner",
        "offset": 0,
        "slot": "10",
        "type": "t_address"
      },
      {
        "astId": 1182,
        "contract": "src/Coinflip.sol:Coinflip",
        "label": "isOperational",
        "offset": 20,
        "slot": "10",
        "type": "t_bool"
      },
      {
        "astId": 1317,
        "contract": "src/Coinflip.sol:Coinflip",
        "label": "serviceChargePercent",
        "offset": 21,
        "slot": "10",
        "type": "t_uint8"
      },
      {
        "astId": 33,
        "contract": "src/Coinflip.sol:Coinflip",
        "label": "minWager",
        "offset": 0,
        "slot": "11",
        "type": "t_uint256"
      },
      {
        "astId": 35,
        "contract": "src/Coinflip.sol:Coinflip",
        "label": "maxNumberOfPlayers",
        "offset": 0,
        "slot": "12",
        "type": "t_uint16"
      },
      {
        "astId": 37,
        "contract": "src/Coinflip.sol:Coinflip",
        "label": "gamesCount",
        "offset": 0,
        "slot": "13",
        "type": "t_uint256"
      },
      {
        "astId": 40,
        "contract": "src/Coinflip.sol:Coinflip",
        "label": "wallets",
        "offset": 0,
        "slot": "14",
        "type": "t_contract(Wallets)1949"
      }
    ],
    "types": {
      "t_address": {
        "encoding": "inplace",
        "label": "address",
        "numberOfBytes": "20"
      },
      "t_array(t_address)dyn_storage": {
        "base": "t_address",
        "encoding": "dynamic_array",
        "label": "address[]",
        "numberOfBytes": "32"
      },
      "t_bool": {
        "encoding": "inplace",
        "label": "bool",
        "numberOfBytes": "1"
      },
      "t_bytes32": {
        "encoding": "inplace",
        "label": "bytes32",
        "numberOfBytes": "32"
      },
      "t_contract(Wallets)1949": {
        "encoding": "inplace",
        "label": "contract Wallets",
        "numberOfBytes": "20"
      },
      "t_enum(Side)725": {
        "encoding": "inplace",
        "label": "enum Coin.Side",
        "numberOfBytes": "1"
      },
      "t_enum(Status)738": {
        "encoding": "inplace",
        "label": "enum Game.Status",
        "numberOfBytes": "1"
      },
      "t_mapping(t_address,t_uint16)": {
        "encoding": "mapping",
        "key": "t_address",
        "label": "mapping(address => uint16)",
        "numberOfBytes": "32",
        "value": "t_uint16"
      },
      "t_mapping(t_enum(Side)725,t_array(t_address)dyn_storage)": {
        "encoding": "mapping",
        "key": "t_enum(Side)725",
        "label": "mapping(enum Coin.Side => address[])",
        "numberOfBytes": "32",
        "value": "t_array(t_address)dyn_storage"
      },
      "t_mapping(t_enum(Side)725,t_uint16)": {
        "encoding": "mapping",
        "key": "t_enum(Side)725",
        "label": "mapping(enum Coin.Side => uint16)",
        "numberOfBytes": "32",
        "value": "t_uint16"
      },
      "t_mapping(t_uint16,t_bytes32)": {
        "encoding": "mapping",
        "key": "t_uint16",
        "label": "mapping(uint16 => bytes32)",
        "numberOfBytes": "32",
        "value": "t_bytes32"
      },
      "t_mapping(t_uint256,t_array(t_address)dyn_storage)": {
        "encoding": "mapping",
        "key": "t_uint256",
        "label": "mapping(uint256 => address[])",
        "numberOfBytes": "32",
        "value": "t_array(t_address)dyn_storage"
      },
      "t_mapping(t_uint256,t_enum(Status)738)": {
        "encoding": "mapping",
        "key": "t_uint256",
        "label": "mapping(uint256 => enum Game.Status)",
        "numberOfBytes": "32",
        "value": "t_enum(Status)738"
      },
      "t_mapping(t_uint256,t_mapping(t_address,t_uint16))": {
        "encoding": "mapping",
        "key": "t_uint256",
        "label": "mapping(uint256 => mapping(address => uint16))",
        "numberOfBytes": "32",
        "value": "t_mapping(t_address,t_uint16)"
      },
      "t_mapping(t_uint256,t_mapping(t_enum(Side)725,t_array(t_address)dyn_storage))": {
        "encoding": "mapping",
        "key": "t_uint256",
        "label": "mapping(uint256 => mapping(enum Coin.Side => address[]))",
        "numberOfBytes": "32",
        "value": "t_mapping(t_enum(Side)725,t_array(t_address)dyn_storage)"
      },
      "t_mapping(t_uint256,t_mapping(t_enum(Side)725,t_uint16))": {
        "encoding": "mapping",
        "key": "t_uint256",
        "label": "mapping(uint256 => mapping(enum Coin.Side => uint16))",
        "numberOfBytes": "32",
        "value": "t_mapping(t_enum(Side)725,t_uint16)"
      },
      "t_mapping(t_uint256,t_mapping(t_uint16,t_bytes32))": {
        "encoding": "mapping",
        "key": "t_uint256",
        "label": "mapping(uint256 => mapping(uint16 => bytes32))",
        "numberOfBytes": "32",
        "value": "t_mapping(t_uint16,t_bytes32)"
      },
      "t_mapping(t_uint256,t_uint16)": {
        "encoding": "mapping",
        "key": "t_uint256",
        "label": "mapping(uint256 => uint16)",
        "numberOfBytes": "32",
        "value": "t_uint16"
      },
      "t_mapping(t_uint256,t_uint256)": {
        "encoding": "mapping",
        "key": "t_uint256",
        "label": "mapping(uint256 => uint256)",
        "numberOfBytes": "32",
        "value": "t_uint256"
      },
      "t_uint16": {
        "encoding": "inplace",
        "label": "uint16",
        "numberOfBytes": "2"
      },
      "t_uint256": {
        "encoding": "inplace",
        "label": "uint256",
        "numberOfBytes": "32"
      },
      "t_uint8": {
        "encoding": "inplace",
        "label": "uint8",
        "numberOfBytes": "1"
      }
    }
  }
}