{
  "address": "0xCEEf1f2FaDCc103E2dB33036f2EE57E62374996C",
  "abi": [
    {
      "inputs": [
        {
          "internalType": "address payable",
          "name": "wallets_",
          "type": "address"
        },
        {
          "internalType": "uint16",
          "name": "maxNumberOfPlayers_",
          "type": "uint16"
        },
        {
          "internalType": "uint256",
          "name": "minWager_",
          "type": "uint256"
        }
      ],
      "stateMutability": "nonpayable",
      "type": "constructor"
    },
    {
      "inputs": [
        {
          "internalType": "enum Coin.Side",
          "name": "availableCoinSide",
          "type": "uint8"
        }
      ],
      "name": "AllMatchingPlaysError",
      "type": "error"
    },
    {
      "inputs": [
        {
          "internalType": "uint16",
          "name": "playID",
          "type": "uint16"
        }
      ],
      "name": "AlreadyPlayedError",
      "type": "error"
    },
    {
      "inputs": [],
      "name": "InOperational",
      "type": "error"
    },
    {
      "inputs": [],
      "name": "IncorrectGameWager",
      "type": "error"
    },
    {
      "inputs": [],
      "name": "InvalidExpiryTimestamp",
      "type": "error"
    },
    {
      "inputs": [
        {
          "internalType": "uint256",
          "name": "",
          "type": "uint256"
        },
        {
          "internalType": "enum Game.Status",
          "name": "expected",
          "type": "uint8"
        },
        {
          "internalType": "enum Game.Status",
          "name": "actual",
          "type": "uint8"
        }
      ],
      "name": "InvalidGameStatus",
      "type": "error"
    },
    {
      "inputs": [],
      "name": "InvalidProofOfChance",
      "type": "error"
    },
    {
      "inputs": [],
      "name": "InvalidServiceChargePercent",
      "type": "error"
    },
    {
      "inputs": [],
      "name": "MaxNumberOfPlayersError",
      "type": "error"
    },
    {
      "inputs": [],
      "name": "MinimumWagerNotMet",
      "type": "error"
    },
    {
      "inputs": [
        {
          "internalType": "address",
          "name": "owner",
          "type": "address"
        }
      ],
      "name": "OwnableInvalidOwner",
      "type": "error"
    },
    {
      "inputs": [
        {
          "internalType": "address",
          "name": "account",
          "type": "address"
        }
      ],
      "name": "OwnableUnauthorizedAccount",
      "type": "error"
    },
    {
      "anonymous": false,
      "inputs": [
        {
          "indexed": true,
          "internalType": "uint256",
          "name": "gameID",
          "type": "uint256"
        },
        {
          "indexed": false,
          "internalType": "uint256",
          "name": "refundedAmountPerPlayer",
          "type": "uint256"
        }
      ],
      "name": "ExpiredGameRefunded",
      "type": "event"
    },
    {
      "anonymous": false,
      "inputs": [
        {
          "indexed": true,
          "internalType": "uint256",
          "name": "gameID",
          "type": "uint256"
        },
        {
          "indexed": false,
          "internalType": "enum Coin.Side",
          "name": "coinSide",
          "type": "uint8"
        },
        {
          "indexed": false,
          "internalType": "uint256",
          "name": "amountForEachWinner",
          "type": "uint256"
        }
      ],
      "name": "GameCompleted",
      "type": "event"
    },
    {
      "anonymous": false,
      "inputs": [
        {
          "indexed": true,
          "internalType": "uint256",
          "name": "gameID",
          "type": "uint256"
        },
        {
          "indexed": true,
          "internalType": "address",
          "name": "creator",
          "type": "address"
        },
        {
          "indexed": false,
          "internalType": "uint16",
          "name": "numberOfPlayers",
          "type": "uint16"
        },
        {
          "indexed": false,
          "internalType": "uint256",
          "name": "expiryTimestamp",
          "type": "uint256"
        },
        {
          "indexed": false,
          "internalType": "uint256",
          "name": "wager",
          "type": "uint256"
        }
      ],
      "name": "GameCreated",
      "type": "event"
    },
    {
      "anonymous": false,
      "inputs": [
        {
          "indexed": true,
          "internalType": "uint256",
          "name": "gameID",
          "type": "uint256"
        },
        {
          "indexed": false,
          "internalType": "uint256",
          "name": "expiryTimestamp",
          "type": "uint256"
        }
      ],
      "name": "GameExpiryAdjusted",
      "type": "event"
    },
    {
      "anonymous": false,
      "inputs": [
        {
          "indexed": true,
          "internalType": "uint256",
          "name": "gameID",
          "type": "uint256"
        },
        {
          "indexed": true,
          "internalType": "uint16",
          "name": "gamePlayID",
          "type": "uint16"
        },
        {
          "indexed": false,
          "internalType": "bytes",
          "name": "chanceAndSalt",
          "type": "bytes"
        }
      ],
      "name": "GamePlayChanceRevealed",
      "type": "event"
    },
    {
      "anonymous": false,
      "inputs": [
        {
          "indexed": true,
          "internalType": "uint256",
          "name": "gameID",
          "type": "uint256"
        },
        {
          "indexed": true,
          "internalType": "uint16",
          "name": "gamePlayID",
          "type": "uint16"
        },
        {
          "indexed": true,
          "internalType": "address",
          "name": "player",
          "type": "address"
        },
        {
          "indexed": false,
          "internalType": "enum Coin.Side",
          "name": "coinSide",
          "type": "uint8"
        },
        {
          "indexed": false,
          "internalType": "bytes32",
          "name": "proofOfChance",
          "type": "bytes32"
        }
      ],
      "name": "GamePlayCreated",
      "type": "event"
    },
    {
      "anonymous": false,
      "inputs": [
        {
          "indexed": true,
          "internalType": "address",
          "name": "previousOwner",
          "type": "address"
        },
        {
          "indexed": true,
          "internalType": "address",
          "name": "newOwner",
          "type": "address"
        }
      ],
      "name": "OwnershipTransferred",
      "type": "event"
    },
    {
      "inputs": [
        {
          "internalType": "uint256",
          "name": "gameID",
          "type": "uint256"
        },
        {
          "internalType": "uint256",
          "name": "newExpiryTimestamp",
          "type": "uint256"
        }
      ],
      "name": "adjustExpiryForGame",
      "outputs": [],
      "stateMutability": "nonpayable",
      "type": "function"
    },
    {
      "inputs": [
        {
          "internalType": "uint256[]",
          "name": "gameIDs",
          "type": "uint256[]"
        },
        {
          "internalType": "uint256",
          "name": "newExpiryTimestamp",
          "type": "uint256"
        }
      ],
      "name": "adjustExpiryForGames",
      "outputs": [],
      "stateMutability": "nonpayable",
      "type": "function"
    },
    {
      "inputs": [
        {
          "internalType": "uint16",
          "name": "numberOfPlayers",
          "type": "uint16"
        },
        {
          "internalType": "uint256",
          "name": "expiryTimestamp",
          "type": "uint256"
        },
        {
          "internalType": "enum Coin.Side",
          "name": "coinSide",
          "type": "uint8"
        },
        {
          "internalType": "bytes32",
          "name": "proofOfChance",
          "type": "bytes32"
        }
      ],
      "name": "createGame",
      "outputs": [],
      "stateMutability": "payable",
      "type": "function"
    },
    {
      "inputs": [],
      "name": "gamesCount",
      "outputs": [
        {
          "internalType": "uint256",
          "name": "",
          "type": "uint256"
        }
      ],
      "stateMutability": "view",
      "type": "function"
    },
    {
      "inputs": [
        {
          "internalType": "uint256",
          "name": "amount",
          "type": "uint256"
        }
      ],
      "name": "getServiceCharge",
      "outputs": [
        {
          "internalType": "uint256",
          "name": "",
          "type": "uint256"
        }
      ],
      "stateMutability": "view",
      "type": "function"
    },
    {
      "inputs": [],
      "name": "getServiceProviderWallet",
      "outputs": [
        {
          "internalType": "address",
          "name": "",
          "type": "address"
        }
      ],
      "stateMutability": "view",
      "type": "function"
    },
    {
      "inputs": [],
      "name": "getTotalBalance",
      "outputs": [
        {
          "internalType": "uint256",
          "name": "",
          "type": "uint256"
        }
      ],
      "stateMutability": "view",
      "type": "function"
    },
    {
      "inputs": [],
      "name": "maxNumberOfPlayers",
      "outputs": [
        {
          "internalType": "uint16",
          "name": "",
          "type": "uint16"
        }
      ],
      "stateMutability": "view",
      "type": "function"
    },
    {
      "inputs": [],
      "name": "minWager",
      "outputs": [
        {
          "internalType": "uint256",
          "name": "",
          "type": "uint256"
        }
      ],
      "stateMutability": "view",
      "type": "function"
    },
    {
      "inputs": [],
      "name": "owner",
      "outputs": [
        {
          "internalType": "address",
          "name": "",
          "type": "address"
        }
      ],
      "stateMutability": "view",
      "type": "function"
    },
    {
      "inputs": [
        {
          "internalType": "uint256",
          "name": "gameID",
          "type": "uint256"
        }
      ],
      "name": "playCounts",
      "outputs": [
        {
          "internalType": "uint16",
          "name": "playCount",
          "type": "uint16"
        }
      ],
      "stateMutability": "view",
      "type": "function"
    },
    {
      "inputs": [
        {
          "internalType": "uint256",
          "name": "gameID",
          "type": "uint256"
        },
        {
          "internalType": "enum Coin.Side",
          "name": "coinSide",
          "type": "uint8"
        },
        {
          "internalType": "bytes32",
          "name": "proofOfChance",
          "type": "bytes32"
        }
      ],
      "name": "playGame",
      "outputs": [],
      "stateMutability": "payable",
      "type": "function"
    },
    {
      "inputs": [
        {
          "internalType": "uint256",
          "name": "gameID",
          "type": "uint256"
        },
        {
          "internalType": "uint16",
          "name": "playID",
          "type": "uint16"
        }
      ],
      "name": "proofOfChances",
      "outputs": [
        {
          "internalType": "bytes32",
          "name": "proofOfChance",
          "type": "bytes32"
        }
      ],
      "stateMutability": "view",
      "type": "function"
    },
    {
      "inputs": [
        {
          "internalType": "uint256[]",
          "name": "gameIDs",
          "type": "uint256[]"
        }
      ],
      "name": "refundExpiredGamePlayersForAllGames",
      "outputs": [],
      "stateMutability": "nonpayable",
      "type": "function"
    },
    {
      "inputs": [
        {
          "internalType": "uint256",
          "name": "gameID",
          "type": "uint256"
        },
        {
          "internalType": "bytes[]",
          "name": "chanceAndSalts",
          "type": "bytes[]"
        }
      ],
      "name": "revealChancesAndCreditWinners",
      "outputs": [],
      "stateMutability": "nonpayable",
      "type": "function"
    },
    {
      "inputs": [],
      "name": "serviceChargePercent",
      "outputs": [
        {
          "internalType": "uint8",
          "name": "",
          "type": "uint8"
        }
      ],
      "stateMutability": "view",
      "type": "function"
    },
    {
      "inputs": [
        {
          "internalType": "bool",
          "name": "isOperational_",
          "type": "bool"
        }
      ],
      "name": "setIsOperational",
      "outputs": [],
      "stateMutability": "nonpayable",
      "type": "function"
    },
    {
      "inputs": [
        {
          "internalType": "address",
          "name": "newOwner",
          "type": "address"
        }
      ],
      "name": "transferOwnership",
      "outputs": [],
      "stateMutability": "nonpayable",
      "type": "function"
    },
    {
      "inputs": [
        {
          "internalType": "uint16",
          "name": "maxNumberOfPlayers_",
          "type": "uint16"
        }
      ],
      "name": "updateMaxNumberOfPlayers",
      "outputs": [],
      "stateMutability": "nonpayable",
      "type": "function"
    },
    {
      "inputs": [
        {
          "internalType": "uint256",
          "name": "minWager_",
          "type": "uint256"
        }
      ],
      "name": "updateMinWagerOfPlayers",
      "outputs": [],
      "stateMutability": "nonpayable",
      "type": "function"
    },
    {
      "inputs": [
        {
          "internalType": "uint8",
          "name": "serviceChargePercent_",
          "type": "uint8"
        }
      ],
      "name": "updateServiceChargePercent",
      "outputs": [],
      "stateMutability": "nonpayable",
      "type": "function"
    },
    {
      "inputs": [
        {
          "internalType": "address payable",
          "name": "wallets_",
          "type": "address"
        }
      ],
      "name": "updateWallets",
      "outputs": [],
      "stateMutability": "nonpayable",
      "type": "function"
    },
    {
      "inputs": [],
      "name": "wallets",
      "outputs": [
        {
          "internalType": "contract Wallets",
          "name": "",
          "type": "address"
        }
      ],
      "stateMutability": "view",
      "type": "function"
    },
    {
      "stateMutability": "payable",
      "type": "receive"
    }
  ],
  "transactionHash": "0x36471098ac54ba882f1d02d51d4e16edfcd070f7bb43f865792e9cfe3a5aeb69",
  "args": [
    "0xEF757AB70E5B2e8DD3f40031cD88a31c32e21Fae",
    20,
    "40000000000000000"
  ],
  "numDeployments": 9,
  "solcInputHash": "f8e00c5d06c81eb41275c53199b657d6",
  "bytecode": "0x60806040526009805461ffff60a01b191661080160a01b1790553480156200002657600080fd5b5060405162001c7338038062001c738339810160408190526200004991620000e6565b620000543362000094565b600e80546001600160a01b0319166001600160a01b039490941693909317909255600c805461ffff191661ffff92909216919091179055600a556200013f565b600980546001600160a01b038381166001600160a01b0319831681179093556040519116919082907f8be0079c531659141344cd1fd0a4f28419497f9722a3daafe3b4186f6b6457e090600090a35050565b600080600060608486031215620000fc57600080fd5b83516001600160a01b03811681146200011457600080fd5b602085015190935061ffff811681146200012d57600080fd5b80925050604084015190509250925092565b611b24806200014f6000396000f3fe6080604052600436106101845760003560e01c80637d627c16116100d6578063c5409ead1161007f578063f2fde38b11610059578063f2fde38b146104bf578063fb632b7c146104df578063fee445cc146104f557600080fd5b8063c5409ead1461046c578063d2f4a50a1461048c578063dfca2d05146104ac57600080fd5b8063bb9c3f2b116100b0578063bb9c3f2b14610421578063bd16f87714610437578063c122212f1461045757600080fd5b80637d627c16146103af5780638da5cb5b146103cf578063b5ece9231461040157600080fd5b806332d5499711610138578063728fdffa11610112578063728fdffa1461031d5780637737f50d1461034b5780637cb4baf91461037c57600080fd5b806332d54997146102a557806339a21b0b146102c557806353e636fc146102e557600080fd5b806318e70bd81161016957806318e70bd8146102455780632851a5cf146102655780632cda6e771461028557600080fd5b8063106608591461020357806312b583491461022357600080fd5b366101fe57600e546040517f4d4b298e0000000000000000000000000000000000000000000000000000000081523360048201526001600160a01b0390911690634d4b298e9034906024016000604051808303818588803b1580156101e857600080fd5b505af11580156101fc573d6000803e3d6000fd5b005b600080fd5b34801561020f57600080fd5b506101fc61021e36600461156d565b610508565b34801561022f57600080fd5b50475b6040519081526020015b60405180910390f35b34801561025157600080fd5b506101fc6102603660046115b9565b610591565b34801561027157600080fd5b506101fc61028036600461161a565b6108ec565b34801561029157600080fd5b506101fc6102a036600461163e565b610923565b3480156102b157600080fd5b506102326102c0366004611661565b6109a3565b3480156102d157600080fd5b506101fc6102e036600461167a565b6109d0565b3480156102f157600080fd5b506102326103003660046116d3565b600660209081526000928352604080842090915290825290205481565b34801561032957600080fd5b50600c546103389061ffff1681565b60405161ffff909116815260200161023c565b34801561035757600080fd5b50610338610366366004611661565b60016020526000908152604090205461ffff1681565b34801561038857600080fd5b5060095461039d90600160a81b900460ff1681565b60405160ff909116815260200161023c565b3480156103bb57600080fd5b506101fc6103ca3660046116ff565b610a0f565b3480156103db57600080fd5b506009546001600160a01b03165b6040516001600160a01b03909116815260200161023c565b34801561040d57600080fd5b506101fc61041c36600461171a565b610a2f565b34801561042d57600080fd5b50610232600a5481565b34801561044357600080fd5b506101fc610452366004611661565b610a70565b34801561046357600080fd5b506103e9610a7d565b34801561047857600080fd5b506101fc61048736600461173c565b610a96565b34801561049857600080fd5b50600e546103e9906001600160a01b031681565b6101fc6104ba36600461176d565b610ae6565b3480156104cb57600080fd5b506101fc6104da36600461161a565b610c50565b3480156104eb57600080fd5b50610232600d5481565b6101fc6105033660046117b1565b610c64565b610510610eac565b60005b60ff811683111561058b57600084848360ff16818110610535576105356117e6565b9050602002013590506105488184610f03565b807fd617e9095b23d7bb3907d94521de27edce9fd9923dfb73805aa57d4f5338bb548460405161057a91815260200190565b60405180910390a250600101610513565b50505050565b610599610eac565b82600260006105a783610f4e565b90508160038111156105bb576105bb6117fc565b8160038111156105cd576105cd6117fc565b146105fa57828282604051637765da3560e01b81526004016105f193929190611826565b60405180910390fd5b6000805b60008881526001602052604090205461ffff90811690821610156107f25736600088888461ffff16818110610635576106356117e6565b9050602002810190610647919061184f565b909250905060006106598460016118ac565b60008c815260066020908152604080832061ffff85168452909152908190205490519192509060029061068f90869086906118ce565b602060405180830381855afa1580156106ac573d6000803e3d6000fd5b5050506040513d601f19601f820116820180604052508101906106cf91906118de565b14610706576040517f402fb0a400000000000000000000000000000000000000000000000000000000815260040160405180910390fd5b6000610714838501856118f7565b50905060005b60108160ff1610156107a3576000828260ff166010811061073d5761073d6117e6565b1a60f81b90507fff00000000000000000000000000000000000000000000000000000000000000811660000361077357506107a3565b6000886001811115610787576107876117fc565b03610795576001975061079a565b600097505b5060010161071a565b508161ffff168c7fa1ffc642177ab118fa3d9c64797cbc129024fdd953e7fc92c64eb358d2eaccfa86866040516107db92919061197a565b60405180910390a3846001019450505050506105fe565b50600087815260036020526040812081836001811115610814576108146117fc565b6001811115610825576108256117fc565b815260200190815260200160002080548060200260200160405190810160405280929190818152602001828054801561088757602002820191906000526020600020905b81546001600160a01b03168152600190910190602001808311610869575b50505050509050600061089a8983610f82565b90506108a7896003611044565b887fa3f5520e27ebcfe38fd78c3854e39d00e8e9f7061551105f86fe8d1596ef84b884836040516108d99291906119b9565b60405180910390a2505050505050505050565b6108f4610eac565b600e805473ffffffffffffffffffffffffffffffffffffffff19166001600160a01b0392909216919091179055565b61092b610eac565b60648160ff1610610968576040517f4756d23c00000000000000000000000000000000000000000000000000000000815260040160405180910390fd5b6009805460ff909216600160a81b027fffffffffffffffffffff00ffffffffffffffffffffffffffffffffffffffffff909216919091179055565b6009546000906064906109c090600160a81b900460ff16846119d4565b6109ca91906119eb565b92915050565b60005b60ff8116821115610a0a57610a0283838360ff168181106109f6576109f66117e6565b90506020020135611078565b6001016109d3565b505050565b610a17610eac565b600c805461ffff191661ffff92909216919091179055565b610a37610eac565b60098054911515600160a01b027fffffffffffffffffffffff00ffffffffffffffffffffffffffffffffffffffff909216919091179055565b610a78610eac565b600a55565b6000610a916009546001600160a01b031690565b905090565b610a9e610eac565b610aa88282610f03565b817fd617e9095b23d7bb3907d94521de27edce9fd9923dfb73805aa57d4f5338bb5482604051610ada91815260200190565b60405180910390a25050565b600954600160a01b900460ff16610b105760405163fececd2760e01b815260040160405180910390fd5b600a543490811015610b4e576040517f139196d300000000000000000000000000000000000000000000000000000000815260040160405180910390fd5b600261ffff86161015610b6057600080fd5b600c5461ffff9081169086161115610ba4576040517f5473ed1a00000000000000000000000000000000000000000000000000000000815260040160405180910390fd5b6000600d60008154610bb590611a0d565b91829055506000818152600b6020908152604080832086905560029091529020805461ffff191661ffff89161790559050610bf08186610f03565b6040805161ffff88168152602081018790529081018390523390819083907fff4ce5d936207f27c07633704e6d1a8aa0d1ae75aad73192582381fe9a2ed2069060600160405180910390a3610c4781838787611231565b50505050505050565b610c58610eac565b610c618161142e565b50565b600954600160a01b900460ff16610c8e5760405163fececd2760e01b815260040160405180910390fd5b82600080610c9b83610f4e565b9050816003811115610caf57610caf6117fc565b816003811115610cc157610cc16117fc565b14610ce557828282604051637765da3560e01b81526004016105f193929190611826565b6000868152600160209081526040808320546002909252822054889288929091610d169161ffff9081169116611a26565b6000848152600460209081526040808320838052909152808220546001808452919092205492935061ffff918216928216918416148015610d65575061ffff82161580610d65575061ffff8116155b15610de35760008261ffff16600003610d8057506000610d84565b5060015b806001811115610d9657610d966117fc565b856001811115610da857610da86117fc565b14610de157806040517f14759b500000000000000000000000000000000000000000000000000000000081526004016105f19190611a41565b505b60008b8152602081815260408083203384529091529020548b9061ffff168015610e3f576040517fccfdba1f00000000000000000000000000000000000000000000000000000000815261ffff821660048201526024016105f1565b60008d8152600b6020526040902054348114610e87576040517f65f2ffb700000000000000000000000000000000000000000000000000000000815260040160405180910390fd5b610e93338f8f8f611231565b610e9c8e61148d565b5050505050505050505050505050565b33610ebf6009546001600160a01b031690565b6001600160a01b031614610f01576040517f118cdaa70000000000000000000000000000000000000000000000000000000081523360048201526024016105f1565b565b428111610f3c576040517f4257cab200000000000000000000000000000000000000000000000000000000815260040160405180910390fd5b60009182526008602052604090912055565b600081815260086020526040812054421115610f6c57506001919050565b5060009081526007602052604090205460ff1690565b6000828152600b602090815260408083205460019092528220548290610fac9061ffff16836119d4565b9050600080610fbc8387516114c2565b600e5491935091506001600160a01b031663dca5d1f8848885610fe76009546001600160a01b031690565b866040518663ffffffff1660e01b81526004016110079493929190611a4f565b6000604051808303818588803b15801561102057600080fd5b505af1158015611034573d6000803e3d6000fd5b50949a9950505050505050505050565b6000828152600760205260409020805482919060ff1916600183600381111561106f5761106f6117fc565b02179055505050565b611080610eac565b806001600061108e83610f4e565b90508160038111156110a2576110a26117fc565b8160038111156110b4576110b46117fc565b146110d857828282604051637765da3560e01b81526004016105f193929190611826565b60008481526005602090815260408083208054825181850281018501909352808352919290919083018282801561113857602002820191906000526020600020905b81546001600160a01b0316815260019091019060200180831161111a575b5050835160008a8152600b60205260408120549596509094909350611164925061ffff851691506119d4565b9050600080611177838561ffff166114c2565b600e5491935091506001600160a01b031663dca5d1f88487856111a26009546001600160a01b031690565b866040518663ffffffff1660e01b81526004016111c29493929190611a4f565b6000604051808303818588803b1580156111db57600080fd5b505af11580156111ef573d6000803e3d6000fd5b50505050506111ff896003611044565b887f483a9ad42b66e69a3096814ad798345a0ed09694552a5b8a04abce8a0ba6fa25836040516108d991815260200190565b60008381526001602081905260408220546112529161ffff909116906118ac565b6000858152602081815260408083206001600160a01b038a1684528252808320805461ffff191661ffff8616908117909155888452600683528184209084528252808320869055878352600390915281209192508460018111156112b8576112b86117fc565b60018111156112c9576112c96117fc565b8152602080820192909252604090810160009081208054600181810183559183528483200180546001600160a01b038b1673ffffffffffffffffffffffffffffffffffffffff199182168117909255898452600586528484208054808501825590855286852001805490911690911790558782526004909352908120918590811115611357576113576117fc565b6001811115611368576113686117fc565b815260208101919091526040016000908120805461ffff169161138a83611aba565b82546101009290920a61ffff8181021990931691831602179091556000868152600160205260408120805490921692506113c383611aba565b91906101000a81548161ffff021916908361ffff16021790555050846001600160a01b03168161ffff16857fe7b36541da149ae31f5dd2085cea9f899aa58f8b33bb0db2be6acfe1d31515e5868660405161141f9291906119b9565b60405180910390a45050505050565b600980546001600160a01b0383811673ffffffffffffffffffffffffffffffffffffffff19831681179093556040519116919082907f8be0079c531659141344cd1fd0a4f28419497f9722a3daafe3b4186f6b6457e090600090a35050565b60008181526001602090815260408083205460029092529091205461ffff9182169116808203610a0a57610a0a836002611044565b600080806114d084866119eb565b6009549091506064906114ed90600160a81b900460ff16836119d4565b6114f791906119eb565b6115019082611adb565b9050600061150f85836119d4565b6115199087611adb565b919350909150505b9250929050565b60008083601f84011261153a57600080fd5b50813567ffffffffffffffff81111561155257600080fd5b6020830191508360208260051b850101111561152157600080fd5b60008060006040848603121561158257600080fd5b833567ffffffffffffffff81111561159957600080fd5b6115a586828701611528565b909790965060209590950135949350505050565b6000806000604084860312156115ce57600080fd5b83359250602084013567ffffffffffffffff8111156115ec57600080fd5b6115f886828701611528565b9497909650939450505050565b6001600160a01b0381168114610c6157600080fd5b60006020828403121561162c57600080fd5b813561163781611605565b9392505050565b60006020828403121561165057600080fd5b813560ff8116811461163757600080fd5b60006020828403121561167357600080fd5b5035919050565b6000806020838503121561168d57600080fd5b823567ffffffffffffffff8111156116a457600080fd5b6116b085828601611528565b90969095509350505050565b803561ffff811681146116ce57600080fd5b919050565b600080604083850312156116e657600080fd5b823591506116f6602084016116bc565b90509250929050565b60006020828403121561171157600080fd5b611637826116bc565b60006020828403121561172c57600080fd5b8135801515811461163757600080fd5b6000806040838503121561174f57600080fd5b50508035926020909101359150565b8035600281106116ce57600080fd5b6000806000806080858703121561178357600080fd5b61178c856116bc565b9350602085013592506117a16040860161175e565b9396929550929360600135925050565b6000806000606084860312156117c657600080fd5b833592506117d66020850161175e565b9150604084013590509250925092565b634e487b7160e01b600052603260045260246000fd5b634e487b7160e01b600052602160045260246000fd5b60048110611822576118226117fc565b9052565b8381526060810161183a6020830185611812565b6118476040830184611812565b949350505050565b6000808335601e1984360301811261186657600080fd5b83018035915067ffffffffffffffff82111561188157600080fd5b60200191503681900382131561152157600080fd5b634e487b7160e01b600052601160045260246000fd5b61ffff8181168382160190808211156118c7576118c7611896565b5092915050565b8183823760009101908152919050565b6000602082840312156118f057600080fd5b5051919050565b6000806040838503121561190a57600080fd5b82357fffffffffffffffffffffffffffffffff000000000000000000000000000000008116811461193a57600080fd5b915060208301357fffffffffffffffff0000000000000000000000000000000000000000000000008116811461196f57600080fd5b809150509250929050565b60208152816020820152818360408301376000818301604090810191909152601f909201601f19160101919050565b60028110611822576118226117fc565b604081016119c782856119a9565b8260208301529392505050565b80820281158282048414176109ca576109ca611896565b600082611a0857634e487b7160e01b600052601260045260246000fd5b500490565b600060018201611a1f57611a1f611896565b5060010190565b61ffff8281168282160390808211156118c7576118c7611896565b602081016109ca82846119a9565b6080808252855190820181905260009060209060a0840190828901845b82811015611a915781516001600160a01b031684529284019290840190600101611a6c565b505050602084019690965250506001600160a01b03929092166040830152606090910152919050565b600061ffff808316818103611ad157611ad1611896565b6001019392505050565b818103818111156109ca576109ca61189656fea26469706673582212207e8b5f060e35b5541e86ec0d846d4161d16c7c1cae6ee0ebbcd9db10e5f09e4264736f6c63430008180033",
  "devdoc": {
    "errors": {
      "OwnableInvalidOwner(address)": [
        {
          "details": "The owner is not a valid owner account."
        }
      ]
    },
    "kind": "dev",
    "methods": {
      "createGame(uint16,uint256,uint8,bytes32)": {
        "params": {
          "coinSide": "predicted coin side by you, the creator",
          "expiryTimestamp": "Expiry timestamp of the game",
          "numberOfPlayers": "number of participating players",
          "proofOfChance": "SHA256 hash of your chance (lucky word[s]) and a random salt combined"
        }
      },
      "getServiceProviderWallet()": {
        "details": "Returns the service provider wallet owner"
      },
      "owner()": {
        "details": "Returns the address of the current owner."
      },
      "playGame(uint256,uint8,bytes32)": {
        "params": {
          "coinSide": "coin side outcome prediction",
          "gameID": "already created game ID",
          "proofOfChance": "SHA256 hash of your chance (lucky word[s]) and a random salt combined"
        }
      },
      "refundExpiredGamePlayersForAllGames(uint256[])": {
        "params": {
          "gameIDs": "game IDs of expired games"
        }
      },
      "revealChancesAndCreditWinners(uint256,bytes[])": {
        "params": {
          "chanceAndSalts": "list of the chance and salts combined in the order of their respecitive play IDs",
          "gameID": "already created game ID"
        }
      },
      "setIsOperational(bool)": {
        "details": "Sets contract operations on/off When isOperational is false, all affected write transactions except for this one will fail"
      },
      "transferOwnership(address)": {
        "details": "Transfers ownership of the contract to a new account (`newOwner`). Can only be called by the current owner."
      }
    },
    "version": 1
  },
  "userdoc": {
    "errors": {
      "OwnableUnauthorizedAccount(address)": [
        {
          "notice": "The caller account is not authorized to perform an operation."
        }
      ]
    },
    "kind": "user",
    "methods": {
      "createGame(uint16,uint256,uint8,bytes32)": {
        "notice": "Creates a new game"
      },
      "getTotalBalance()": {
        "notice": "returns the ether balance of this contract i.e. total wagers staked"
      },
      "playGame(uint256,uint8,bytes32)": {
        "notice": "Allows playing an already created game"
      },
      "refundExpiredGamePlayersForAllGames(uint256[])": {
        "notice": "Batch refunds expired game players"
      },
      "revealChancesAndCreditWinners(uint256,bytes[])": {
        "notice": "Reveals the chances (lucky words) of all plays for a given game. After, it computes and stores the coinflip outcome for the given game. Then, it credits players that predicted the coinflip outcome correctly with the combined wager shared equally (after service charge deduction)"
      },
      "updateMaxNumberOfPlayers(uint16)": {
        "notice": "Updates max number of players to avoid concluding games with very high gas fee"
      },
      "updateMinWagerOfPlayers(uint256)": {
        "notice": "Updates min wager allowed"
      },
      "updateWallets(address)": {
        "notice": "Allow updating Wallets conrtact in case a PPV is ever discovered"
      }
    },
    "version": 1
  },
  "storageLayout": {
    "storage": [
      {
        "astId": 749,
        "contract": "src/Coinflip.sol:Coinflip",
        "label": "playRecord",
        "offset": 0,
        "slot": "0",
        "type": "t_mapping(t_uint256,t_mapping(t_address,t_uint16))"
      },
      {
        "astId": 753,
        "contract": "src/Coinflip.sol:Coinflip",
        "label": "playCounts",
        "offset": 0,
        "slot": "1",
        "type": "t_mapping(t_uint256,t_uint16)"
      },
      {
        "astId": 757,
        "contract": "src/Coinflip.sol:Coinflip",
        "label": "numberOfPlayersPerGame",
        "offset": 0,
        "slot": "2",
        "type": "t_mapping(t_uint256,t_uint16)"
      },
      {
        "astId": 765,
        "contract": "src/Coinflip.sol:Coinflip",
        "label": "players",
        "offset": 0,
        "slot": "3",
        "type": "t_mapping(t_uint256,t_mapping(t_enum(Side)723,t_array(t_address)dyn_storage))"
      },
      {
        "astId": 772,
        "contract": "src/Coinflip.sol:Coinflip",
        "label": "coinSideCounts",
        "offset": 0,
        "slot": "4",
        "type": "t_mapping(t_uint256,t_mapping(t_enum(Side)723,t_uint16))"
      },
      {
        "astId": 777,
        "contract": "src/Coinflip.sol:Coinflip",
        "label": "allPlayers",
        "offset": 0,
        "slot": "5",
        "type": "t_mapping(t_uint256,t_array(t_address)dyn_storage)"
      },
      {
        "astId": 783,
        "contract": "src/Coinflip.sol:Coinflip",
        "label": "proofOfChances",
        "offset": 0,
        "slot": "6",
        "type": "t_mapping(t_uint256,t_mapping(t_uint16,t_bytes32))"
      },
      {
        "astId": 1012,
        "contract": "src/Coinflip.sol:Coinflip",
        "label": "statuses",
        "offset": 0,
        "slot": "7",
        "type": "t_mapping(t_uint256,t_enum(Status)736)"
      },
      {
        "astId": 1016,
        "contract": "src/Coinflip.sol:Coinflip",
        "label": "expiryTimestamps",
        "offset": 0,
        "slot": "8",
        "type": "t_mapping(t_uint256,t_uint256)"
      },
      {
        "astId": 1162,
        "contract": "src/Coinflip.sol:Coinflip",
        "label": "_owner",
        "offset": 0,
        "slot": "9",
        "type": "t_address"
      },
      {
        "astId": 1130,
        "contract": "src/Coinflip.sol:Coinflip",
        "label": "isOperational",
        "offset": 20,
        "slot": "9",
        "type": "t_bool"
      },
      {
        "astId": 1265,
        "contract": "src/Coinflip.sol:Coinflip",
        "label": "serviceChargePercent",
        "offset": 21,
        "slot": "9",
        "type": "t_uint8"
      },
      {
        "astId": 29,
        "contract": "src/Coinflip.sol:Coinflip",
        "label": "minWager",
        "offset": 0,
        "slot": "10",
        "type": "t_uint256"
      },
      {
        "astId": 33,
        "contract": "src/Coinflip.sol:Coinflip",
        "label": "wagers",
        "offset": 0,
        "slot": "11",
        "type": "t_mapping(t_uint256,t_uint256)"
      },
      {
        "astId": 35,
        "contract": "src/Coinflip.sol:Coinflip",
        "label": "maxNumberOfPlayers",
        "offset": 0,
        "slot": "12",
        "type": "t_uint16"
      },
      {
        "astId": 37,
        "contract": "src/Coinflip.sol:Coinflip",
        "label": "gamesCount",
        "offset": 0,
        "slot": "13",
        "type": "t_uint256"
      },
      {
        "astId": 40,
        "contract": "src/Coinflip.sol:Coinflip",
        "label": "wallets",
        "offset": 0,
        "slot": "14",
        "type": "t_contract(Wallets)1679"
      }
    ],
    "types": {
      "t_address": {
        "encoding": "inplace",
        "label": "address",
        "numberOfBytes": "20"
      },
      "t_array(t_address)dyn_storage": {
        "base": "t_address",
        "encoding": "dynamic_array",
        "label": "address[]",
        "numberOfBytes": "32"
      },
      "t_bool": {
        "encoding": "inplace",
        "label": "bool",
        "numberOfBytes": "1"
      },
      "t_bytes32": {
        "encoding": "inplace",
        "label": "bytes32",
        "numberOfBytes": "32"
      },
      "t_contract(Wallets)1679": {
        "encoding": "inplace",
        "label": "contract Wallets",
        "numberOfBytes": "20"
      },
      "t_enum(Side)723": {
        "encoding": "inplace",
        "label": "enum Coin.Side",
        "numberOfBytes": "1"
      },
      "t_enum(Status)736": {
        "encoding": "inplace",
        "label": "enum Game.Status",
        "numberOfBytes": "1"
      },
      "t_mapping(t_address,t_uint16)": {
        "encoding": "mapping",
        "key": "t_address",
        "label": "mapping(address => uint16)",
        "numberOfBytes": "32",
        "value": "t_uint16"
      },
      "t_mapping(t_enum(Side)723,t_array(t_address)dyn_storage)": {
        "encoding": "mapping",
        "key": "t_enum(Side)723",
        "label": "mapping(enum Coin.Side => address[])",
        "numberOfBytes": "32",
        "value": "t_array(t_address)dyn_storage"
      },
      "t_mapping(t_enum(Side)723,t_uint16)": {
        "encoding": "mapping",
        "key": "t_enum(Side)723",
        "label": "mapping(enum Coin.Side => uint16)",
        "numberOfBytes": "32",
        "value": "t_uint16"
      },
      "t_mapping(t_uint16,t_bytes32)": {
        "encoding": "mapping",
        "key": "t_uint16",
        "label": "mapping(uint16 => bytes32)",
        "numberOfBytes": "32",
        "value": "t_bytes32"
      },
      "t_mapping(t_uint256,t_array(t_address)dyn_storage)": {
        "encoding": "mapping",
        "key": "t_uint256",
        "label": "mapping(uint256 => address[])",
        "numberOfBytes": "32",
        "value": "t_array(t_address)dyn_storage"
      },
      "t_mapping(t_uint256,t_enum(Status)736)": {
        "encoding": "mapping",
        "key": "t_uint256",
        "label": "mapping(uint256 => enum Game.Status)",
        "numberOfBytes": "32",
        "value": "t_enum(Status)736"
      },
      "t_mapping(t_uint256,t_mapping(t_address,t_uint16))": {
        "encoding": "mapping",
        "key": "t_uint256",
        "label": "mapping(uint256 => mapping(address => uint16))",
        "numberOfBytes": "32",
        "value": "t_mapping(t_address,t_uint16)"
      },
      "t_mapping(t_uint256,t_mapping(t_enum(Side)723,t_array(t_address)dyn_storage))": {
        "encoding": "mapping",
        "key": "t_uint256",
        "label": "mapping(uint256 => mapping(enum Coin.Side => address[]))",
        "numberOfBytes": "32",
        "value": "t_mapping(t_enum(Side)723,t_array(t_address)dyn_storage)"
      },
      "t_mapping(t_uint256,t_mapping(t_enum(Side)723,t_uint16))": {
        "encoding": "mapping",
        "key": "t_uint256",
        "label": "mapping(uint256 => mapping(enum Coin.Side => uint16))",
        "numberOfBytes": "32",
        "value": "t_mapping(t_enum(Side)723,t_uint16)"
      },
      "t_mapping(t_uint256,t_mapping(t_uint16,t_bytes32))": {
        "encoding": "mapping",
        "key": "t_uint256",
        "label": "mapping(uint256 => mapping(uint16 => bytes32))",
        "numberOfBytes": "32",
        "value": "t_mapping(t_uint16,t_bytes32)"
      },
      "t_mapping(t_uint256,t_uint16)": {
        "encoding": "mapping",
        "key": "t_uint256",
        "label": "mapping(uint256 => uint16)",
        "numberOfBytes": "32",
        "value": "t_uint16"
      },
      "t_mapping(t_uint256,t_uint256)": {
        "encoding": "mapping",
        "key": "t_uint256",
        "label": "mapping(uint256 => uint256)",
        "numberOfBytes": "32",
        "value": "t_uint256"
      },
      "t_uint16": {
        "encoding": "inplace",
        "label": "uint16",
        "numberOfBytes": "2"
      },
      "t_uint256": {
        "encoding": "inplace",
        "label": "uint256",
        "numberOfBytes": "32"
      },
      "t_uint8": {
        "encoding": "inplace",
        "label": "uint8",
        "numberOfBytes": "1"
      }
    }
  }
}