{
  "address": "0xB42eC3B279b9f5B3fd23f89b54Ef952764401Dea",
  "abi": [
    {
      "inputs": [
        {
          "internalType": "address payable",
          "name": "wallets_",
          "type": "address"
        },
        {
          "internalType": "uint16",
          "name": "maxNumberOfPlayers_",
          "type": "uint16"
        },
        {
          "internalType": "uint256",
          "name": "minWager_",
          "type": "uint256"
        }
      ],
      "stateMutability": "nonpayable",
      "type": "constructor"
    },
    {
      "inputs": [
        {
          "internalType": "enum Coin.Side",
          "name": "availableCoinSide",
          "type": "uint8"
        }
      ],
      "name": "AllMatchingPlaysError",
      "type": "error"
    },
    {
      "inputs": [
        {
          "internalType": "uint16",
          "name": "playID",
          "type": "uint16"
        }
      ],
      "name": "AlreadyPlayedError",
      "type": "error"
    },
    {
      "inputs": [],
      "name": "InOperational",
      "type": "error"
    },
    {
      "inputs": [],
      "name": "IncorrectGameWager",
      "type": "error"
    },
    {
      "inputs": [],
      "name": "InvalidExpiryTimestamp",
      "type": "error"
    },
    {
      "inputs": [
        {
          "internalType": "uint256",
          "name": "gameID",
          "type": "uint256"
        },
        {
          "internalType": "enum Game.Status",
          "name": "expected",
          "type": "uint8"
        },
        {
          "internalType": "enum Game.Status",
          "name": "actual",
          "type": "uint8"
        }
      ],
      "name": "InvalidGameStatus",
      "type": "error"
    },
    {
      "inputs": [],
      "name": "InvalidProofOfChance",
      "type": "error"
    },
    {
      "inputs": [],
      "name": "InvalidServiceChargePercent",
      "type": "error"
    },
    {
      "inputs": [],
      "name": "MaxNumberOfPlayersError",
      "type": "error"
    },
    {
      "inputs": [],
      "name": "MinimumWagerNotMet",
      "type": "error"
    },
    {
      "inputs": [
        {
          "internalType": "address",
          "name": "owner",
          "type": "address"
        }
      ],
      "name": "OwnableInvalidOwner",
      "type": "error"
    },
    {
      "inputs": [
        {
          "internalType": "address",
          "name": "account",
          "type": "address"
        }
      ],
      "name": "OwnableUnauthorizedAccount",
      "type": "error"
    },
    {
      "anonymous": false,
      "inputs": [
        {
          "indexed": true,
          "internalType": "uint256",
          "name": "gameID",
          "type": "uint256"
        },
        {
          "indexed": false,
          "internalType": "uint256",
          "name": "refundedAmountPerPlayer",
          "type": "uint256"
        }
      ],
      "name": "ExpiredGameRefunded",
      "type": "event"
    },
    {
      "anonymous": false,
      "inputs": [
        {
          "indexed": true,
          "internalType": "uint256",
          "name": "gameID",
          "type": "uint256"
        },
        {
          "indexed": false,
          "internalType": "enum Coin.Side",
          "name": "coinSide",
          "type": "uint8"
        },
        {
          "indexed": false,
          "internalType": "uint256",
          "name": "amountForEachWinner",
          "type": "uint256"
        }
      ],
      "name": "GameCompleted",
      "type": "event"
    },
    {
      "anonymous": false,
      "inputs": [
        {
          "indexed": true,
          "internalType": "uint256",
          "name": "gameID",
          "type": "uint256"
        },
        {
          "indexed": true,
          "internalType": "address",
          "name": "creator",
          "type": "address"
        },
        {
          "indexed": false,
          "internalType": "uint16",
          "name": "numberOfPlayers",
          "type": "uint16"
        },
        {
          "indexed": false,
          "internalType": "uint256",
          "name": "expiryTimestamp",
          "type": "uint256"
        },
        {
          "indexed": false,
          "internalType": "uint256",
          "name": "wager",
          "type": "uint256"
        }
      ],
      "name": "GameCreated",
      "type": "event"
    },
    {
      "anonymous": false,
      "inputs": [
        {
          "indexed": true,
          "internalType": "uint256",
          "name": "gameID",
          "type": "uint256"
        },
        {
          "indexed": false,
          "internalType": "uint256",
          "name": "expiryTimestamp",
          "type": "uint256"
        }
      ],
      "name": "GameExpiryAdjusted",
      "type": "event"
    },
    {
      "anonymous": false,
      "inputs": [
        {
          "indexed": true,
          "internalType": "uint256",
          "name": "gameID",
          "type": "uint256"
        },
        {
          "indexed": true,
          "internalType": "uint16",
          "name": "gamePlayID",
          "type": "uint16"
        },
        {
          "indexed": false,
          "internalType": "bytes",
          "name": "chanceAndSalt",
          "type": "bytes"
        }
      ],
      "name": "GamePlayChanceRevealed",
      "type": "event"
    },
    {
      "anonymous": false,
      "inputs": [
        {
          "indexed": true,
          "internalType": "uint256",
          "name": "gameID",
          "type": "uint256"
        },
        {
          "indexed": true,
          "internalType": "uint16",
          "name": "gamePlayID",
          "type": "uint16"
        },
        {
          "indexed": true,
          "internalType": "address",
          "name": "player",
          "type": "address"
        },
        {
          "indexed": false,
          "internalType": "enum Coin.Side",
          "name": "coinSide",
          "type": "uint8"
        },
        {
          "indexed": false,
          "internalType": "bytes32",
          "name": "proofOfChance",
          "type": "bytes32"
        }
      ],
      "name": "GamePlayCreated",
      "type": "event"
    },
    {
      "anonymous": false,
      "inputs": [
        {
          "indexed": true,
          "internalType": "address",
          "name": "oldOwner",
          "type": "address"
        },
        {
          "indexed": true,
          "internalType": "address",
          "name": "newOwner",
          "type": "address"
        }
      ],
      "name": "OwnershipTransferred",
      "type": "event"
    },
    {
      "inputs": [
        {
          "internalType": "uint256",
          "name": "gameID",
          "type": "uint256"
        },
        {
          "internalType": "uint256",
          "name": "newExpiryTimestamp",
          "type": "uint256"
        }
      ],
      "name": "adjustExpiryForGame",
      "outputs": [],
      "stateMutability": "nonpayable",
      "type": "function"
    },
    {
      "inputs": [
        {
          "internalType": "uint256[]",
          "name": "gameIDs",
          "type": "uint256[]"
        },
        {
          "internalType": "uint256",
          "name": "newExpiryTimestamp",
          "type": "uint256"
        }
      ],
      "name": "adjustExpiryForGames",
      "outputs": [],
      "stateMutability": "nonpayable",
      "type": "function"
    },
    {
      "inputs": [
        {
          "internalType": "uint256",
          "name": "gameID",
          "type": "uint256"
        },
        {
          "internalType": "uint256",
          "name": "",
          "type": "uint256"
        }
      ],
      "name": "allPlayers",
      "outputs": [
        {
          "internalType": "address",
          "name": "player",
          "type": "address"
        }
      ],
      "stateMutability": "view",
      "type": "function"
    },
    {
      "inputs": [
        {
          "internalType": "uint16",
          "name": "numberOfPlayers",
          "type": "uint16"
        },
        {
          "internalType": "uint256",
          "name": "expiryTimestamp",
          "type": "uint256"
        },
        {
          "internalType": "enum Coin.Side",
          "name": "coinSide",
          "type": "uint8"
        },
        {
          "internalType": "bytes32",
          "name": "proofOfChance",
          "type": "bytes32"
        }
      ],
      "name": "createGame",
      "outputs": [],
      "stateMutability": "payable",
      "type": "function"
    },
    {
      "inputs": [],
      "name": "gamesCount",
      "outputs": [
        {
          "internalType": "uint256",
          "name": "",
          "type": "uint256"
        }
      ],
      "stateMutability": "view",
      "type": "function"
    },
    {
      "inputs": [
        {
          "internalType": "uint256",
          "name": "amount",
          "type": "uint256"
        }
      ],
      "name": "getServiceCharge",
      "outputs": [
        {
          "internalType": "uint256",
          "name": "",
          "type": "uint256"
        }
      ],
      "stateMutability": "view",
      "type": "function"
    },
    {
      "inputs": [],
      "name": "getServiceProviderWallet",
      "outputs": [
        {
          "internalType": "address",
          "name": "",
          "type": "address"
        }
      ],
      "stateMutability": "view",
      "type": "function"
    },
    {
      "inputs": [
        {
          "internalType": "uint256",
          "name": "totalAmount",
          "type": "uint256"
        },
        {
          "internalType": "uint256",
          "name": "places",
          "type": "uint256"
        }
      ],
      "name": "getSplitAndServiceChargeAmounts",
      "outputs": [
        {
          "internalType": "uint256",
          "name": "",
          "type": "uint256"
        },
        {
          "internalType": "uint256",
          "name": "",
          "type": "uint256"
        }
      ],
      "stateMutability": "view",
      "type": "function"
    },
    {
      "inputs": [],
      "name": "getTotalBalance",
      "outputs": [
        {
          "internalType": "uint256",
          "name": "",
          "type": "uint256"
        }
      ],
      "stateMutability": "view",
      "type": "function"
    },
    {
      "inputs": [],
      "name": "maxNumberOfPlayers",
      "outputs": [
        {
          "internalType": "uint16",
          "name": "",
          "type": "uint16"
        }
      ],
      "stateMutability": "view",
      "type": "function"
    },
    {
      "inputs": [],
      "name": "minWager",
      "outputs": [
        {
          "internalType": "uint256",
          "name": "",
          "type": "uint256"
        }
      ],
      "stateMutability": "view",
      "type": "function"
    },
    {
      "inputs": [
        {
          "internalType": "uint256",
          "name": "gameID",
          "type": "uint256"
        }
      ],
      "name": "numberOfPlayersForGameWith",
      "outputs": [
        {
          "internalType": "uint16",
          "name": "numberOfPlayers",
          "type": "uint16"
        }
      ],
      "stateMutability": "view",
      "type": "function"
    },
    {
      "inputs": [],
      "name": "owner",
      "outputs": [
        {
          "internalType": "address",
          "name": "",
          "type": "address"
        }
      ],
      "stateMutability": "view",
      "type": "function"
    },
    {
      "inputs": [
        {
          "internalType": "uint256",
          "name": "gameID",
          "type": "uint256"
        }
      ],
      "name": "playCountsSoFar",
      "outputs": [
        {
          "internalType": "uint16",
          "name": "playCount",
          "type": "uint16"
        }
      ],
      "stateMutability": "view",
      "type": "function"
    },
    {
      "inputs": [
        {
          "internalType": "uint256",
          "name": "gameID",
          "type": "uint256"
        },
        {
          "internalType": "enum Coin.Side",
          "name": "coinSide",
          "type": "uint8"
        },
        {
          "internalType": "bytes32",
          "name": "proofOfChance",
          "type": "bytes32"
        }
      ],
      "name": "playGame",
      "outputs": [],
      "stateMutability": "payable",
      "type": "function"
    },
    {
      "inputs": [
        {
          "internalType": "uint256",
          "name": "gameID",
          "type": "uint256"
        },
        {
          "internalType": "enum Coin.Side",
          "name": "coinSide",
          "type": "uint8"
        },
        {
          "internalType": "uint256",
          "name": "",
          "type": "uint256"
        }
      ],
      "name": "players",
      "outputs": [
        {
          "internalType": "address",
          "name": "player",
          "type": "address"
        }
      ],
      "stateMutability": "view",
      "type": "function"
    },
    {
      "inputs": [
        {
          "internalType": "uint256",
          "name": "gameID",
          "type": "uint256"
        },
        {
          "internalType": "uint16",
          "name": "playID",
          "type": "uint16"
        }
      ],
      "name": "proofOfChances",
      "outputs": [
        {
          "internalType": "bytes32",
          "name": "proofOfChance",
          "type": "bytes32"
        }
      ],
      "stateMutability": "view",
      "type": "function"
    },
    {
      "inputs": [
        {
          "internalType": "uint256",
          "name": "gameID",
          "type": "uint256"
        }
      ],
      "name": "refundExpiredGamePlayers",
      "outputs": [],
      "stateMutability": "nonpayable",
      "type": "function"
    },
    {
      "inputs": [
        {
          "internalType": "uint256[]",
          "name": "gameIDs",
          "type": "uint256[]"
        }
      ],
      "name": "refundExpiredGamePlayersForGames",
      "outputs": [],
      "stateMutability": "nonpayable",
      "type": "function"
    },
    {
      "inputs": [
        {
          "internalType": "uint256",
          "name": "gameID",
          "type": "uint256"
        },
        {
          "internalType": "bytes[]",
          "name": "chanceAndSalts",
          "type": "bytes[]"
        }
      ],
      "name": "revealChancesAndCreditWinners",
      "outputs": [],
      "stateMutability": "nonpayable",
      "type": "function"
    },
    {
      "inputs": [],
      "name": "serviceChargePercent",
      "outputs": [
        {
          "internalType": "uint8",
          "name": "",
          "type": "uint8"
        }
      ],
      "stateMutability": "view",
      "type": "function"
    },
    {
      "inputs": [
        {
          "internalType": "bool",
          "name": "isOperational_",
          "type": "bool"
        }
      ],
      "name": "setIsOperational",
      "outputs": [],
      "stateMutability": "nonpayable",
      "type": "function"
    },
    {
      "inputs": [
        {
          "internalType": "address",
          "name": "newOwner",
          "type": "address"
        }
      ],
      "name": "transferOwnership",
      "outputs": [],
      "stateMutability": "nonpayable",
      "type": "function"
    },
    {
      "inputs": [
        {
          "internalType": "uint16",
          "name": "maxNumberOfPlayers_",
          "type": "uint16"
        }
      ],
      "name": "updateMaxNumberOfPlayers",
      "outputs": [],
      "stateMutability": "nonpayable",
      "type": "function"
    },
    {
      "inputs": [
        {
          "internalType": "uint256",
          "name": "minWager_",
          "type": "uint256"
        }
      ],
      "name": "updateMinWagerPerGame",
      "outputs": [],
      "stateMutability": "nonpayable",
      "type": "function"
    },
    {
      "inputs": [
        {
          "internalType": "uint8",
          "name": "serviceChargePercent_",
          "type": "uint8"
        }
      ],
      "name": "updateServiceChargePercent",
      "outputs": [],
      "stateMutability": "nonpayable",
      "type": "function"
    },
    {
      "inputs": [
        {
          "internalType": "address payable",
          "name": "wallets_",
          "type": "address"
        }
      ],
      "name": "updateWallets",
      "outputs": [],
      "stateMutability": "nonpayable",
      "type": "function"
    },
    {
      "inputs": [
        {
          "internalType": "uint256",
          "name": "gameID",
          "type": "uint256"
        }
      ],
      "name": "wagers",
      "outputs": [
        {
          "internalType": "uint256",
          "name": "wager",
          "type": "uint256"
        }
      ],
      "stateMutability": "view",
      "type": "function"
    },
    {
      "inputs": [],
      "name": "wallets",
      "outputs": [
        {
          "internalType": "contract Wallets",
          "name": "",
          "type": "address"
        }
      ],
      "stateMutability": "view",
      "type": "function"
    },
    {
      "stateMutability": "payable",
      "type": "receive"
    }
  ],
  "transactionHash": "0x640c168107e80d06aebce406ad6e0a34edd27d56af07ae662d6cfc0a37155c40",
  "args": [
    "0xc8DD15fdF6b76e53D48006B498Db5Ce821519f41",
    5000,
    "40000000000000000"
  ],
  "numDeployments": 12,
  "solcInputHash": "185fa58ede3fe99bc37a33e385fc080e",
  "bytecode": "0x60806040526009805461ffff60a01b191661080160a01b17905534801561002557600080fd5b50604051611e1c380380611e1c833981016040819052610044916100de565b61004d3361008c565b600e80546001600160a01b0319166001600160a01b039490941693909317909255600c805461ffff191661ffff92909216919091179055600a55610134565b600980546001600160a01b038381166001600160a01b0319831681179093556040519116919082907f8be0079c531659141344cd1fd0a4f28419497f9722a3daafe3b4186f6b6457e090600090a35050565b6000806000606084860312156100f357600080fd5b83516001600160a01b038116811461010a57600080fd5b602085015190935061ffff8116811461012257600080fd5b80925050604084015190509250925092565b611cd9806101436000396000f3fe6080604052600436106101c65760003560e01c806382eee31b116100f7578063c5409ead11610095578063f2fde38b11610064578063f2fde38b146105d5578063f7a5036b146105f5578063fb632b7c14610615578063fee445cc1461062b57600080fd5b8063c5409ead14610551578063cccc893c14610571578063d2f4a50a146105a2578063dfca2d05146105c257600080fd5b8063a1d42f39116100d1578063a1d42f39146104e6578063b5ece92314610506578063bb9c3f2b14610526578063c122212f1461053c57600080fd5b806382eee31b146104705780638d004a30146104905780638da5cb5b146104c857600080fd5b806332d549971161016457806367af44841161013e57806367af4484146103cd578063728fdffa146104025780637cb4baf91461041d5780637d627c161461045057600080fd5b806332d549971461034b578063375068e51461036b57806353e636fc1461039857600080fd5b806322f49051116101a057806322f49051146102a75780632851a5cf146102eb5780632cda6e771461030b5780632e683d591461032b57600080fd5b8063106608591461024557806312b583491461026557806318e70bd81461028757600080fd5b3661024057600e546040517f4d4b298e0000000000000000000000000000000000000000000000000000000081523360048201526001600160a01b0390911690634d4b298e9034906024016000604051808303818588803b15801561022a57600080fd5b505af115801561023e573d6000803e3d6000fd5b005b600080fd5b34801561025157600080fd5b5061023e610260366004611722565b61063e565b34801561027157600080fd5b50475b6040519081526020015b60405180910390f35b34801561029357600080fd5b5061023e6102a236600461176e565b6106c7565b3480156102b357600080fd5b506102d86102c23660046117ba565b60026020526000908152604090205461ffff1681565b60405161ffff909116815260200161027e565b3480156102f757600080fd5b5061023e6103063660046117e8565b610a20565b34801561031757600080fd5b5061023e61032636600461180c565b610a57565b34801561033757600080fd5b5061023e6103463660046117ba565b610ad7565b34801561035757600080fd5b506102746103663660046117ba565b610ae3565b34801561037757600080fd5b506102746103863660046117ba565b600b6020526000908152604090205481565b3480156103a457600080fd5b506102746103b3366004611846565b600060208181529281526040808220909352908152205481565b3480156103d957600080fd5b506103ed6103e8366004611872565b610b10565b6040805192835260208301919091520161027e565b34801561040e57600080fd5b50600c546102d89061ffff1681565b34801561042957600080fd5b5060095461043e90600160a81b900460ff1681565b60405160ff909116815260200161027e565b34801561045c57600080fd5b5061023e61046b366004611894565b610b76565b34801561047c57600080fd5b5061023e61048b3660046118af565b610b96565b34801561049c57600080fd5b506104b06104ab366004611900565b610bd5565b6040516001600160a01b03909116815260200161027e565b3480156104d457600080fd5b506009546001600160a01b03166104b0565b3480156104f257600080fd5b506104b0610501366004611872565b610c1a565b34801561051257600080fd5b5061023e610521366004611935565b610c52565b34801561053257600080fd5b50610274600a5481565b34801561054857600080fd5b506104b0610c93565b34801561055d57600080fd5b5061023e61056c366004611872565b610cac565b34801561057d57600080fd5b506102d861058c3660046117ba565b60016020526000908152604090205461ffff1681565b3480156105ae57600080fd5b50600e546104b0906001600160a01b031681565b61023e6105d0366004611957565b610cfc565b3480156105e157600080fd5b5061023e6105f03660046117e8565b610e66565b34801561060157600080fd5b5061023e6106103660046117ba565b610e77565b34801561062157600080fd5b50610274600d5481565b61023e610639366004611900565b610e84565b6106466110ce565b60005b60ff81168311156106c157600084848360ff1681811061066b5761066b61199b565b90506020020135905061067e8184611125565b807fd617e9095b23d7bb3907d94521de27edce9fd9923dfb73805aa57d4f5338bb54846040516106b091815260200190565b60405180910390a250600101610649565b50505050565b6106cf6110ce565b82600260006106dd83611170565b90508160038111156106f1576106f16119b1565b816003811115610703576107036119b1565b1461073057828282604051637765da3560e01b8152600401610727939291906119db565b60405180910390fd5b6000805b60008881526002602052604090205461ffff90811690821610156109265736600088888461ffff1681811061076b5761076b61199b565b905060200281019061077d9190611a04565b9092509050600061078f846001611a61565b60008c81526020818152604080832061ffff8516845290915290819020549051919250906002906107c39086908690611a83565b602060405180830381855afa1580156107e0573d6000803e3d6000fd5b5050506040513d601f19601f820116820180604052508101906108039190611a93565b1461083a576040517f402fb0a400000000000000000000000000000000000000000000000000000000815260040160405180910390fd5b600061084883850185611aac565b50905060005b60108160ff1610156108d7576000828260ff16601081106108715761087161199b565b1a60f81b90507fff0000000000000000000000000000000000000000000000000000000000000081166000036108a757506108d7565b60008860018111156108bb576108bb6119b1565b036108c957600197506108ce565b600097505b5060010161084e565b508161ffff168c7fa1ffc642177ab118fa3d9c64797cbc129024fdd953e7fc92c64eb358d2eaccfa868660405161090f929190611b2f565b60405180910390a384600101945050505050610734565b50600087815260036020526040812081836001811115610948576109486119b1565b6001811115610959576109596119b1565b81526020019081526020016000208054806020026020016040519081016040528092919081815260200182805480156109bb57602002820191906000526020600020905b81546001600160a01b0316815260019091019060200180831161099d575b5050505050905060006109ce89836111a4565b90506109db896003611266565b887fa3f5520e27ebcfe38fd78c3854e39d00e8e9f7061551105f86fe8d1596ef84b88483604051610a0d929190611b6e565b60405180910390a2505050505050505050565b610a286110ce565b600e805473ffffffffffffffffffffffffffffffffffffffff19166001600160a01b0392909216919091179055565b610a5f6110ce565b60648160ff1610610a9c576040517f4756d23c00000000000000000000000000000000000000000000000000000000815260040160405180910390fd5b6009805460ff909216600160a81b027fffffffffffffffffffff00ffffffffffffffffffffffffffffffffffffffffff909216919091179055565b610ae08161129a565b50565b600954600090606490610b0090600160a81b900460ff1684611b89565b610b0a9190611ba0565b92915050565b60008080610b1e8486611ba0565b600954909150606490610b3b90600160a81b900460ff1683611b89565b610b459190611ba0565b610b4f9082611bc2565b90506000610b5d8583611b89565b610b679087611bc2565b919350909150505b9250929050565b610b7e6110ce565b600c805461ffff191661ffff92909216919091179055565b60005b60ff8116821115610bd057610bc883838360ff16818110610bbc57610bbc61199b565b9050602002013561129a565b600101610b99565b505050565b60036020528260005260406000206020528160005260406000208181548110610bfd57600080fd5b6000918252602090912001546001600160a01b0316925083915050565b60046020528160005260406000208181548110610c3657600080fd5b6000918252602090912001546001600160a01b03169150829050565b610c5a6110ce565b60098054911515600160a01b027fffffffffffffffffffffff00ffffffffffffffffffffffffffffffffffffffff909216919091179055565b6000610ca76009546001600160a01b031690565b905090565b610cb46110ce565b610cbe8282611125565b817fd617e9095b23d7bb3907d94521de27edce9fd9923dfb73805aa57d4f5338bb5482604051610cf091815260200190565b60405180910390a25050565b600954600160a01b900460ff16610d265760405163fececd2760e01b815260040160405180910390fd5b600a543490811015610d64576040517f139196d300000000000000000000000000000000000000000000000000000000815260040160405180910390fd5b600261ffff86161015610d7657600080fd5b600c5461ffff9081169086161115610dba576040517f5473ed1a00000000000000000000000000000000000000000000000000000000815260040160405180910390fd5b6000600d60008154610dcb90611bd5565b91829055506000818152600b6020908152604080832086905560029091529020805461ffff191661ffff89161790559050610e068186611125565b6040805161ffff88168152602081018790529081018390523390819083907fff4ce5d936207f27c07633704e6d1a8aa0d1ae75aad73192582381fe9a2ed2069060600160405180910390a3610e5d8183878761144b565b50505050505050565b610e6e6110ce565b610ae081611649565b610e7f6110ce565b600a55565b600954600160a01b900460ff16610eae5760405163fececd2760e01b815260040160405180910390fd5b82600080610ebb83611170565b9050816003811115610ecf57610ecf6119b1565b816003811115610ee157610ee16119b1565b14610f0557828282604051637765da3560e01b8152600401610727939291906119db565b6000868152600160209081526040808320546002909252822054889288929091610f369161ffff9081169116611bee565b6000848152600660209081526040808320838052909152808220546001808452919092205492935061ffff918216928216918416148015610f85575061ffff82161580610f85575061ffff8116155b156110035760008261ffff16600003610fa057506000610fa4565b5060015b806001811115610fb657610fb66119b1565b856001811115610fc857610fc86119b1565b1461100157806040517f14759b500000000000000000000000000000000000000000000000000000000081526004016107279190611c09565b505b60008b81526005602090815260408083203384529091529020548b9061ffff168015611061576040517fccfdba1f00000000000000000000000000000000000000000000000000000000815261ffff82166004820152602401610727565b60008d8152600b60205260409020543481146110a9576040517f65f2ffb700000000000000000000000000000000000000000000000000000000815260040160405180910390fd5b6110b5338f8f8f61144b565b6110be8e6116a8565b5050505050505050505050505050565b336110e16009546001600160a01b031690565b6001600160a01b031614611123576040517f118cdaa7000000000000000000000000000000000000000000000000000000008152336004820152602401610727565b565b42811161115e576040517f4257cab200000000000000000000000000000000000000000000000000000000815260040160405180910390fd5b60009182526008602052604090912055565b60008181526008602052604081205442111561118e57506001919050565b5060009081526007602052604090205460ff1690565b6000828152600b6020908152604080832054600190925282205482906111ce9061ffff1683611b89565b90506000806111de838751610b10565b600e5491935091506001600160a01b031663dca5d1f88488856112096009546001600160a01b031690565b866040518663ffffffff1660e01b81526004016112299493929190611c17565b6000604051808303818588803b15801561124257600080fd5b505af1158015611256573d6000803e3d6000fd5b50949a9950505050505050505050565b6000828152600760205260409020805482919060ff19166001836003811115611291576112916119b1565b02179055505050565b80600160006112a883611170565b90508160038111156112bc576112bc6119b1565b8160038111156112ce576112ce6119b1565b146112f257828282604051637765da3560e01b8152600401610727939291906119db565b60008481526004602090815260408083208054825181850281018501909352808352919290919083018282801561135257602002820191906000526020600020905b81546001600160a01b03168152600190910190602001808311611334575b5050835160008a8152600b6020526040812054959650909490935061137e925061ffff85169150611b89565b9050600080611391838561ffff16610b10565b600e5491935091506001600160a01b031663dca5d1f88487856113bc6009546001600160a01b031690565b866040518663ffffffff1660e01b81526004016113dc9493929190611c17565b6000604051808303818588803b1580156113f557600080fd5b505af1158015611409573d6000803e3d6000fd5b5050505050611419896003611266565b887f483a9ad42b66e69a3096814ad798345a0ed09694552a5b8a04abce8a0ba6fa2583604051610a0d91815260200190565b600083815260016020819052604082205461146c9161ffff90911690611a61565b60008581526005602090815260408083206001600160a01b038a1684528252808320805461ffff191661ffff86169081179091558884528383528184209084528252808320869055878352600390915281209192508460018111156114d3576114d36119b1565b60018111156114e4576114e46119b1565b8152602080820192909252604090810160009081208054600181810183559183528483200180546001600160a01b038b1673ffffffffffffffffffffffffffffffffffffffff199182168117909255898452600486528484208054808501825590855286852001805490911690911790558782526006909352908120918590811115611572576115726119b1565b6001811115611583576115836119b1565b815260208101919091526040016000908120805461ffff16916115a583611c82565b82546101009290920a61ffff8181021990931691831602179091556000868152600160205260408120805490921692506115de83611c82565b91906101000a81548161ffff021916908361ffff16021790555050846001600160a01b03168161ffff16857fe7b36541da149ae31f5dd2085cea9f899aa58f8b33bb0db2be6acfe1d31515e5868660405161163a929190611b6e565b60405180910390a45050505050565b600980546001600160a01b0383811673ffffffffffffffffffffffffffffffffffffffff19831681179093556040519116919082907f8be0079c531659141344cd1fd0a4f28419497f9722a3daafe3b4186f6b6457e090600090a35050565b60008181526001602090815260408083205460029092529091205461ffff9182169116808203610bd057610bd0836002611266565b60008083601f8401126116ef57600080fd5b50813567ffffffffffffffff81111561170757600080fd5b6020830191508360208260051b8501011115610b6f57600080fd5b60008060006040848603121561173757600080fd5b833567ffffffffffffffff81111561174e57600080fd5b61175a868287016116dd565b909790965060209590950135949350505050565b60008060006040848603121561178357600080fd5b83359250602084013567ffffffffffffffff8111156117a157600080fd5b6117ad868287016116dd565b9497909650939450505050565b6000602082840312156117cc57600080fd5b5035919050565b6001600160a01b0381168114610ae057600080fd5b6000602082840312156117fa57600080fd5b8135611805816117d3565b9392505050565b60006020828403121561181e57600080fd5b813560ff8116811461180557600080fd5b803561ffff8116811461184157600080fd5b919050565b6000806040838503121561185957600080fd5b823591506118696020840161182f565b90509250929050565b6000806040838503121561188557600080fd5b50508035926020909101359150565b6000602082840312156118a657600080fd5b6118058261182f565b600080602083850312156118c257600080fd5b823567ffffffffffffffff8111156118d957600080fd5b6118e5858286016116dd565b90969095509350505050565b80356002811061184157600080fd5b60008060006060848603121561191557600080fd5b83359250611925602085016118f1565b9150604084013590509250925092565b60006020828403121561194757600080fd5b8135801515811461180557600080fd5b6000806000806080858703121561196d57600080fd5b6119768561182f565b93506020850135925061198b604086016118f1565b9396929550929360600135925050565b634e487b7160e01b600052603260045260246000fd5b634e487b7160e01b600052602160045260246000fd5b600481106119d7576119d76119b1565b9052565b838152606081016119ef60208301856119c7565b6119fc60408301846119c7565b949350505050565b6000808335601e19843603018112611a1b57600080fd5b83018035915067ffffffffffffffff821115611a3657600080fd5b602001915036819003821315610b6f57600080fd5b634e487b7160e01b600052601160045260246000fd5b61ffff818116838216019080821115611a7c57611a7c611a4b565b5092915050565b8183823760009101908152919050565b600060208284031215611aa557600080fd5b5051919050565b60008060408385031215611abf57600080fd5b82357fffffffffffffffffffffffffffffffff0000000000000000000000000000000081168114611aef57600080fd5b915060208301357fffffffffffffffff00000000000000000000000000000000000000000000000081168114611b2457600080fd5b809150509250929050565b60208152816020820152818360408301376000818301604090810191909152601f909201601f19160101919050565b600281106119d7576119d76119b1565b60408101611b7c8285611b5e565b8260208301529392505050565b8082028115828204841417610b0a57610b0a611a4b565b600082611bbd57634e487b7160e01b600052601260045260246000fd5b500490565b81810381811115610b0a57610b0a611a4b565b600060018201611be757611be7611a4b565b5060010190565b61ffff828116828216039080821115611a7c57611a7c611a4b565b60208101610b0a8284611b5e565b6080808252855190820181905260009060209060a0840190828901845b82811015611c595781516001600160a01b031684529284019290840190600101611c34565b505050602084019690965250506001600160a01b03929092166040830152606090910152919050565b600061ffff808316818103611c9957611c99611a4b565b600101939250505056fea2646970667358221220acf295c1bb391f2a70ea237d6940d2d6a46d29b2503a9b00b636a4cb0dd0ec0164736f6c63430008190033",
  "devdoc": {
    "errors": {
      "OwnableInvalidOwner(address)": [
        {
          "details": "The owner is not a valid owner account."
        }
      ]
    },
    "kind": "dev",
    "methods": {
      "createGame(uint16,uint256,uint8,bytes32)": {
        "params": {
          "coinSide": "predicted coin side by you, the creator",
          "expiryTimestamp": "Expiry timestamp of the game",
          "numberOfPlayers": "number of participating players",
          "proofOfChance": "SHA256 hash of your chance (lucky word[s]) and a random salt combined"
        }
      },
      "getServiceProviderWallet()": {
        "details": "Returns the service provider wallet address"
      },
      "getSplitAndServiceChargeAmounts(uint256,uint256)": {
        "details": "Returns the `splitAmount` for each `place` and the `serviceChargeAmount`"
      },
      "owner()": {
        "details": "Returns the address of the current owner."
      },
      "playGame(uint256,uint8,bytes32)": {
        "params": {
          "coinSide": "coin side outcome prediction",
          "gameID": "already created game ID",
          "proofOfChance": "SHA256 hash of your chance (lucky word[s]) and a random salt combined"
        }
      },
      "refundExpiredGamePlayers(uint256)": {
        "params": {
          "gameID": "game ID of expired game"
        }
      },
      "refundExpiredGamePlayersForGames(uint256[])": {
        "details": "Everyone's authorized to remove the possibility of locking wagers forever if an owner loses access to their private keys",
        "params": {
          "gameIDs": "game IDs of expired games"
        }
      },
      "revealChancesAndCreditWinners(uint256,bytes[])": {
        "params": {
          "chanceAndSalts": "list of the chance and salts combined in the order of their respecitive play IDs",
          "gameID": "already created game ID"
        }
      },
      "setIsOperational(bool)": {
        "details": "Sets contract operations on/off When isOperational is false, all affected write transactions except for this one will fail"
      },
      "transferOwnership(address)": {
        "details": "Transfers ownership of the contract to a new account (`newOwner`). Can only be called by the current owner."
      },
      "updateServiceChargePercent(uint8)": {
        "details": "Allows owner update service charge percent"
      }
    },
    "version": 1
  },
  "userdoc": {
    "errors": {
      "OwnableUnauthorizedAccount(address)": [
        {
          "notice": "The caller account is not authorized to perform an operation."
        }
      ]
    },
    "kind": "user",
    "methods": {
      "createGame(uint16,uint256,uint8,bytes32)": {
        "notice": "Creates a new game"
      },
      "getSplitAndServiceChargeAmounts(uint256,uint256)": {
        "notice": "Made public to allow auditing games transparently"
      },
      "getTotalBalance()": {
        "notice": "returns the ether balance of this contract i.e. total wagers staked"
      },
      "playGame(uint256,uint8,bytes32)": {
        "notice": "Allows playing an already created game"
      },
      "refundExpiredGamePlayers(uint256)": {
        "notice": "Refund wagers of an expired game to its players"
      },
      "refundExpiredGamePlayersForGames(uint256[])": {
        "notice": "Batch refunds expired game players"
      },
      "revealChancesAndCreditWinners(uint256,bytes[])": {
        "notice": "Reveals the chances (lucky words) of all plays for a given game. After, it computes and stores the coinflip outcome for the given game. Then, it credits players that predicted the coinflip outcome correctly with the combined wager shared equally (after service charge deduction)"
      },
      "updateMaxNumberOfPlayers(uint16)": {
        "notice": "Updates max number of players to avoid concluding games with very high gas fee"
      },
      "updateMinWagerPerGame(uint256)": {
        "notice": "Updates min wager allowed"
      },
      "updateWallets(address)": {
        "notice": "Allow updating Wallets contract in case a PPV is ever discovered"
      }
    },
    "version": 1
  },
  "storageLayout": {
    "storage": [
      {
        "astId": 757,
        "contract": "src/Coinflip.sol:Coinflip",
        "label": "proofOfChances",
        "offset": 0,
        "slot": "0",
        "type": "t_mapping(t_uint256,t_mapping(t_uint16,t_bytes32))"
      },
      {
        "astId": 761,
        "contract": "src/Coinflip.sol:Coinflip",
        "label": "playCountsSoFar",
        "offset": 0,
        "slot": "1",
        "type": "t_mapping(t_uint256,t_uint16)"
      },
      {
        "astId": 765,
        "contract": "src/Coinflip.sol:Coinflip",
        "label": "numberOfPlayersForGameWith",
        "offset": 0,
        "slot": "2",
        "type": "t_mapping(t_uint256,t_uint16)"
      },
      {
        "astId": 773,
        "contract": "src/Coinflip.sol:Coinflip",
        "label": "players",
        "offset": 0,
        "slot": "3",
        "type": "t_mapping(t_uint256,t_mapping(t_enum(Side)731,t_array(t_address)dyn_storage))"
      },
      {
        "astId": 778,
        "contract": "src/Coinflip.sol:Coinflip",
        "label": "allPlayers",
        "offset": 0,
        "slot": "4",
        "type": "t_mapping(t_uint256,t_array(t_address)dyn_storage)"
      },
      {
        "astId": 784,
        "contract": "src/Coinflip.sol:Coinflip",
        "label": "playRecord",
        "offset": 0,
        "slot": "5",
        "type": "t_mapping(t_uint256,t_mapping(t_address,t_uint16))"
      },
      {
        "astId": 791,
        "contract": "src/Coinflip.sol:Coinflip",
        "label": "coinSideCounts",
        "offset": 0,
        "slot": "6",
        "type": "t_mapping(t_uint256,t_mapping(t_enum(Side)731,t_uint16))"
      },
      {
        "astId": 1020,
        "contract": "src/Coinflip.sol:Coinflip",
        "label": "statuses",
        "offset": 0,
        "slot": "7",
        "type": "t_mapping(t_uint256,t_enum(Status)744)"
      },
      {
        "astId": 1024,
        "contract": "src/Coinflip.sol:Coinflip",
        "label": "expiryTimestamps",
        "offset": 0,
        "slot": "8",
        "type": "t_mapping(t_uint256,t_uint256)"
      },
      {
        "astId": 1170,
        "contract": "src/Coinflip.sol:Coinflip",
        "label": "_owner",
        "offset": 0,
        "slot": "9",
        "type": "t_address"
      },
      {
        "astId": 1138,
        "contract": "src/Coinflip.sol:Coinflip",
        "label": "isOperational",
        "offset": 20,
        "slot": "9",
        "type": "t_bool"
      },
      {
        "astId": 1273,
        "contract": "src/Coinflip.sol:Coinflip",
        "label": "serviceChargePercent",
        "offset": 21,
        "slot": "9",
        "type": "t_uint8"
      },
      {
        "astId": 29,
        "contract": "src/Coinflip.sol:Coinflip",
        "label": "minWager",
        "offset": 0,
        "slot": "10",
        "type": "t_uint256"
      },
      {
        "astId": 33,
        "contract": "src/Coinflip.sol:Coinflip",
        "label": "wagers",
        "offset": 0,
        "slot": "11",
        "type": "t_mapping(t_uint256,t_uint256)"
      },
      {
        "astId": 35,
        "contract": "src/Coinflip.sol:Coinflip",
        "label": "maxNumberOfPlayers",
        "offset": 0,
        "slot": "12",
        "type": "t_uint16"
      },
      {
        "astId": 37,
        "contract": "src/Coinflip.sol:Coinflip",
        "label": "gamesCount",
        "offset": 0,
        "slot": "13",
        "type": "t_uint256"
      },
      {
        "astId": 40,
        "contract": "src/Coinflip.sol:Coinflip",
        "label": "wallets",
        "offset": 0,
        "slot": "14",
        "type": "t_contract(Wallets)1687"
      }
    ],
    "types": {
      "t_address": {
        "encoding": "inplace",
        "label": "address",
        "numberOfBytes": "20"
      },
      "t_array(t_address)dyn_storage": {
        "base": "t_address",
        "encoding": "dynamic_array",
        "label": "address[]",
        "numberOfBytes": "32"
      },
      "t_bool": {
        "encoding": "inplace",
        "label": "bool",
        "numberOfBytes": "1"
      },
      "t_bytes32": {
        "encoding": "inplace",
        "label": "bytes32",
        "numberOfBytes": "32"
      },
      "t_contract(Wallets)1687": {
        "encoding": "inplace",
        "label": "contract Wallets",
        "numberOfBytes": "20"
      },
      "t_enum(Side)731": {
        "encoding": "inplace",
        "label": "enum Coin.Side",
        "numberOfBytes": "1"
      },
      "t_enum(Status)744": {
        "encoding": "inplace",
        "label": "enum Game.Status",
        "numberOfBytes": "1"
      },
      "t_mapping(t_address,t_uint16)": {
        "encoding": "mapping",
        "key": "t_address",
        "label": "mapping(address => uint16)",
        "numberOfBytes": "32",
        "value": "t_uint16"
      },
      "t_mapping(t_enum(Side)731,t_array(t_address)dyn_storage)": {
        "encoding": "mapping",
        "key": "t_enum(Side)731",
        "label": "mapping(enum Coin.Side => address[])",
        "numberOfBytes": "32",
        "value": "t_array(t_address)dyn_storage"
      },
      "t_mapping(t_enum(Side)731,t_uint16)": {
        "encoding": "mapping",
        "key": "t_enum(Side)731",
        "label": "mapping(enum Coin.Side => uint16)",
        "numberOfBytes": "32",
        "value": "t_uint16"
      },
      "t_mapping(t_uint16,t_bytes32)": {
        "encoding": "mapping",
        "key": "t_uint16",
        "label": "mapping(uint16 => bytes32)",
        "numberOfBytes": "32",
        "value": "t_bytes32"
      },
      "t_mapping(t_uint256,t_array(t_address)dyn_storage)": {
        "encoding": "mapping",
        "key": "t_uint256",
        "label": "mapping(uint256 => address[])",
        "numberOfBytes": "32",
        "value": "t_array(t_address)dyn_storage"
      },
      "t_mapping(t_uint256,t_enum(Status)744)": {
        "encoding": "mapping",
        "key": "t_uint256",
        "label": "mapping(uint256 => enum Game.Status)",
        "numberOfBytes": "32",
        "value": "t_enum(Status)744"
      },
      "t_mapping(t_uint256,t_mapping(t_address,t_uint16))": {
        "encoding": "mapping",
        "key": "t_uint256",
        "label": "mapping(uint256 => mapping(address => uint16))",
        "numberOfBytes": "32",
        "value": "t_mapping(t_address,t_uint16)"
      },
      "t_mapping(t_uint256,t_mapping(t_enum(Side)731,t_array(t_address)dyn_storage))": {
        "encoding": "mapping",
        "key": "t_uint256",
        "label": "mapping(uint256 => mapping(enum Coin.Side => address[]))",
        "numberOfBytes": "32",
        "value": "t_mapping(t_enum(Side)731,t_array(t_address)dyn_storage)"
      },
      "t_mapping(t_uint256,t_mapping(t_enum(Side)731,t_uint16))": {
        "encoding": "mapping",
        "key": "t_uint256",
        "label": "mapping(uint256 => mapping(enum Coin.Side => uint16))",
        "numberOfBytes": "32",
        "value": "t_mapping(t_enum(Side)731,t_uint16)"
      },
      "t_mapping(t_uint256,t_mapping(t_uint16,t_bytes32))": {
        "encoding": "mapping",
        "key": "t_uint256",
        "label": "mapping(uint256 => mapping(uint16 => bytes32))",
        "numberOfBytes": "32",
        "value": "t_mapping(t_uint16,t_bytes32)"
      },
      "t_mapping(t_uint256,t_uint16)": {
        "encoding": "mapping",
        "key": "t_uint256",
        "label": "mapping(uint256 => uint16)",
        "numberOfBytes": "32",
        "value": "t_uint16"
      },
      "t_mapping(t_uint256,t_uint256)": {
        "encoding": "mapping",
        "key": "t_uint256",
        "label": "mapping(uint256 => uint256)",
        "numberOfBytes": "32",
        "value": "t_uint256"
      },
      "t_uint16": {
        "encoding": "inplace",
        "label": "uint16",
        "numberOfBytes": "2"
      },
      "t_uint256": {
        "encoding": "inplace",
        "label": "uint256",
        "numberOfBytes": "32"
      },
      "t_uint8": {
        "encoding": "inplace",
        "label": "uint8",
        "numberOfBytes": "1"
      }
    }
  }
}