{
  "address": "0xa56Ae13cecF1ca2bE18e3F5d727b66a2518f63a7",
  "abi": [
    {
      "inputs": [],
      "name": "InsufficientFunds",
      "type": "error"
    },
    {
      "inputs": [],
      "name": "ReentrancyGuardReentrantCall",
      "type": "error"
    },
    {
      "anonymous": false,
      "inputs": [
        {
          "indexed": true,
          "internalType": "address",
          "name": "account",
          "type": "address"
        },
        {
          "indexed": false,
          "internalType": "uint256",
          "name": "amount",
          "type": "uint256"
        }
      ],
      "name": "Credit",
      "type": "event"
    },
    {
      "anonymous": false,
      "inputs": [
        {
          "indexed": true,
          "internalType": "address",
          "name": "account",
          "type": "address"
        },
        {
          "indexed": false,
          "internalType": "uint256",
          "name": "amount",
          "type": "uint256"
        }
      ],
      "name": "Debit",
      "type": "event"
    },
    {
      "inputs": [],
      "name": "credit",
      "outputs": [],
      "stateMutability": "payable",
      "type": "function"
    },
    {
      "inputs": [
        {
          "internalType": "address",
          "name": "account",
          "type": "address"
        }
      ],
      "name": "creditAccount",
      "outputs": [],
      "stateMutability": "payable",
      "type": "function"
    },
    {
      "inputs": [
        {
          "internalType": "address[]",
          "name": "accounts",
          "type": "address[]"
        }
      ],
      "name": "creditAccounts",
      "outputs": [],
      "stateMutability": "payable",
      "type": "function"
    },
    {
      "inputs": [
        {
          "internalType": "address[]",
          "name": "manyAccounts",
          "type": "address[]"
        },
        {
          "internalType": "uint256",
          "name": "amountForEachManyAccount",
          "type": "uint256"
        },
        {
          "internalType": "address",
          "name": "oneAccount",
          "type": "address"
        },
        {
          "internalType": "uint256",
          "name": "amountForOneAccount",
          "type": "uint256"
        }
      ],
      "name": "creditManyAndOne",
      "outputs": [],
      "stateMutability": "payable",
      "type": "function"
    },
    {
      "inputs": [
        {
          "internalType": "address",
          "name": "account",
          "type": "address"
        }
      ],
      "name": "getBalance",
      "outputs": [
        {
          "internalType": "uint256",
          "name": "",
          "type": "uint256"
        }
      ],
      "stateMutability": "view",
      "type": "function"
    },
    {
      "inputs": [],
      "name": "getTotalBalance",
      "outputs": [
        {
          "internalType": "uint256",
          "name": "",
          "type": "uint256"
        }
      ],
      "stateMutability": "view",
      "type": "function"
    },
    {
      "inputs": [
        {
          "internalType": "uint256",
          "name": "amount",
          "type": "uint256"
        }
      ],
      "name": "withdraw",
      "outputs": [],
      "stateMutability": "nonpayable",
      "type": "function"
    },
    {
      "inputs": [],
      "name": "withdrawAll",
      "outputs": [],
      "stateMutability": "nonpayable",
      "type": "function"
    },
    {
      "stateMutability": "payable",
      "type": "receive"
    }
  ],
  "transactionHash": "0x082096ac56426095c5295ede9af97a6573aa3bf3e70e8d46d2e0fc9644dedfdc",
  "args": [],
  "numDeployments": 2,
  "solcInputHash": "185fa58ede3fe99bc37a33e385fc080e",
  "bytecode": "0x6080604052348015600f57600080fd5b506001600055610708806100246000396000f3fe60806040526004361061007f5760003560e01c8063a06d083c1161004e578063a06d083c146100fe578063caa8cbcb14610106578063dca5d1f814610119578063f8b2cb4f1461012c57600080fd5b806312b58349146100955780632e1a7d4d146100b65780634d4b298e146100d6578063853828b6146100e957600080fd5b366100905761008e3334610162565b005b600080fd5b3480156100a157600080fd5b50475b60405190815260200160405180910390f35b3480156100c257600080fd5b5061008e6100d13660046104db565b6101d1565b61008e6100e4366004610510565b610294565b3480156100f557600080fd5b5061008e61029e565b61008e61034b565b61008e61011436600461057e565b610355565b61008e6101273660046105c0565b6103c4565b34801561013857600080fd5b506100a4610147366004610510565b6001600160a01b031660009081526001602052604090205490565b6001600160a01b0382166000908152600160205260408120805483929061018a90849061063b565b90915550506040518181526001600160a01b038316907f1bbf55d483639f8103dc4e035af71a4fbdb16c80be740fa3eef81198acefa0949060200160405180910390a25050565b6101d9610433565b336000818152600160205260409020548281101561020a5760405163356680b760e01b815260040160405180910390fd5b6001600160a01b03821660009081526001602052604081208054859290610232908490610654565b9091555061024290508284610476565b816001600160a01b03167f59c79d79be0fadf59fe689b6952b7ebe90201a3a1f00d4a31982377890bc60468460405161027d91815260200190565b60405180910390a250506102916001600055565b50565b6102918134610162565b6102a6610433565b33600081815260016020526040812054908190036102d75760405163356680b760e01b815260040160405180910390fd5b6001600160a01b0382166000908152600160205260408120556102fa8282610476565b816001600160a01b03167f59c79d79be0fadf59fe689b6952b7ebe90201a3a1f00d4a31982377890bc60468260405161033591815260200190565b60405180910390a250506103496001600055565b565b6103493334610162565b3481610361818361067d565b1561036b57600080fd5b60006103778284610691565b905060005b828110156103bc576103b4868683818110610399576103996106a5565b90506020020160208101906103ae9190610510565b83610162565b60010161037c565b505050505050565b8334826103d183876106bb565b6103db919061063b565b146103e557600080fd5b60005b8181101561042857610420878783818110610405576104056106a5565b905060200201602081019061041a9190610510565b86610162565b6001016103e8565b506103bc8383610162565b60026000540361046f576040517f3ee5aeb500000000000000000000000000000000000000000000000000000000815260040160405180910390fd5b6002600055565b6000826001600160a01b03168260405160006040518083038185875af1925050503d80600081146104c3576040519150601f19603f3d011682016040523d82523d6000602084013e6104c8565b606091505b50509050806104d657600080fd5b505050565b6000602082840312156104ed57600080fd5b5035919050565b80356001600160a01b038116811461050b57600080fd5b919050565b60006020828403121561052257600080fd5b61052b826104f4565b9392505050565b60008083601f84011261054457600080fd5b50813567ffffffffffffffff81111561055c57600080fd5b6020830191508360208260051b850101111561057757600080fd5b9250929050565b6000806020838503121561059157600080fd5b823567ffffffffffffffff8111156105a857600080fd5b6105b485828601610532565b90969095509350505050565b6000806000806000608086880312156105d857600080fd5b853567ffffffffffffffff8111156105ef57600080fd5b6105fb88828901610532565b90965094505060208601359250610614604087016104f4565b949793965091946060013592915050565b634e487b7160e01b600052601160045260246000fd5b8082018082111561064e5761064e610625565b92915050565b8181038181111561064e5761064e610625565b634e487b7160e01b600052601260045260246000fd5b60008261068c5761068c610667565b500690565b6000826106a0576106a0610667565b500490565b634e487b7160e01b600052603260045260246000fd5b808202811582820484141761064e5761064e61062556fea2646970667358221220be12a8ad8f95b9483b168de7a412ef9834e16296dec68798668d738b3446adb564736f6c63430008190033",
  "devdoc": {
    "errors": {
      "ReentrancyGuardReentrantCall()": [
        {
          "details": "Unauthorized reentrant call."
        }
      ]
    },
    "kind": "dev",
    "methods": {
      "creditAccounts(address[])": {
        "details": "Credits accounts specified here"
      }
    },
    "version": 1
  },
  "userdoc": {
    "kind": "user",
    "methods": {
      "credit()": {
        "notice": "Credits your account."
      },
      "creditAccount(address)": {
        "notice": "Credits account. You can credit someone using this."
      },
      "creditManyAndOne(address[],uint256,address,uint256)": {
        "notice": "Same behavior as `creditAccounts` but credits `manyAccounts` using `amountForEachManyAccount` and `oneAccount` using `amountForOneAccount`"
      },
      "getBalance(address)": {
        "notice": "returns the balance of a wallet account"
      },
      "getTotalBalance()": {
        "notice": "returns the balance of this wallet contract in wei"
      },
      "withdraw(uint256)": {
        "notice": "Allows withdrawing a specified amount from your wallet balance"
      },
      "withdrawAll()": {
        "notice": "Allows withdrawing all amount from your wallet balance"
      }
    },
    "version": 1
  },
  "storageLayout": {
    "storage": [
      {
        "astId": 1698,
        "contract": "src/Wallets.sol:Wallets",
        "label": "_status",
        "offset": 0,
        "slot": "0",
        "type": "t_uint256"
      },
      {
        "astId": 1378,
        "contract": "src/Wallets.sol:Wallets",
        "label": "balances",
        "offset": 0,
        "slot": "1",
        "type": "t_mapping(t_address,t_uint256)"
      }
    ],
    "types": {
      "t_address": {
        "encoding": "inplace",
        "label": "address",
        "numberOfBytes": "20"
      },
      "t_mapping(t_address,t_uint256)": {
        "encoding": "mapping",
        "key": "t_address",
        "label": "mapping(address => uint256)",
        "numberOfBytes": "32",
        "value": "t_uint256"
      },
      "t_uint256": {
        "encoding": "inplace",
        "label": "uint256",
        "numberOfBytes": "32"
      }
    }
  }
}