{
  "address": "0xf0C94feC412ca082834cA38Ccc1040D28ab5eA7D",
  "abi": [
    {
      "inputs": [
        {
          "internalType": "address payable",
          "name": "wallets_",
          "type": "address"
        },
        {
          "internalType": "uint16",
          "name": "maxNumberOfPlayers_",
          "type": "uint16"
        },
        {
          "internalType": "uint256",
          "name": "minWager_",
          "type": "uint256"
        }
      ],
      "stateMutability": "nonpayable",
      "type": "constructor"
    },
    {
      "inputs": [
        {
          "internalType": "enum Coin.Side",
          "name": "availableCoinSide",
          "type": "uint8"
        }
      ],
      "name": "AllMatchingPlaysError",
      "type": "error"
    },
    {
      "inputs": [
        {
          "internalType": "uint16",
          "name": "playID",
          "type": "uint16"
        }
      ],
      "name": "AlreadyPlayedError",
      "type": "error"
    },
    {
      "inputs": [],
      "name": "InOperational",
      "type": "error"
    },
    {
      "inputs": [],
      "name": "IncorrectGameWager",
      "type": "error"
    },
    {
      "inputs": [],
      "name": "InvalidExpiryTimestamp",
      "type": "error"
    },
    {
      "inputs": [
        {
          "internalType": "uint256",
          "name": "gameID",
          "type": "uint256"
        },
        {
          "internalType": "enum Game.Status",
          "name": "expected",
          "type": "uint8"
        },
        {
          "internalType": "enum Game.Status",
          "name": "actual",
          "type": "uint8"
        }
      ],
      "name": "InvalidGameStatus",
      "type": "error"
    },
    {
      "inputs": [],
      "name": "InvalidProofOfChance",
      "type": "error"
    },
    {
      "inputs": [],
      "name": "InvalidServiceChargePercent",
      "type": "error"
    },
    {
      "inputs": [],
      "name": "MaxNumberOfPlayersError",
      "type": "error"
    },
    {
      "inputs": [],
      "name": "MinimumWagerNotMet",
      "type": "error"
    },
    {
      "inputs": [
        {
          "internalType": "address",
          "name": "owner",
          "type": "address"
        }
      ],
      "name": "OwnableInvalidOwner",
      "type": "error"
    },
    {
      "inputs": [
        {
          "internalType": "address",
          "name": "account",
          "type": "address"
        }
      ],
      "name": "OwnableUnauthorizedAccount",
      "type": "error"
    },
    {
      "anonymous": false,
      "inputs": [
        {
          "indexed": true,
          "internalType": "uint256",
          "name": "gameID",
          "type": "uint256"
        },
        {
          "indexed": false,
          "internalType": "uint256",
          "name": "refundedAmountPerPlayer",
          "type": "uint256"
        }
      ],
      "name": "ExpiredGameRefunded",
      "type": "event"
    },
    {
      "anonymous": false,
      "inputs": [
        {
          "indexed": true,
          "internalType": "uint256",
          "name": "gameID",
          "type": "uint256"
        },
        {
          "indexed": false,
          "internalType": "enum Coin.Side",
          "name": "coinSide",
          "type": "uint8"
        },
        {
          "indexed": false,
          "internalType": "uint256",
          "name": "amountForEachWinner",
          "type": "uint256"
        }
      ],
      "name": "GameCompleted",
      "type": "event"
    },
    {
      "anonymous": false,
      "inputs": [
        {
          "indexed": true,
          "internalType": "uint256",
          "name": "gameID",
          "type": "uint256"
        },
        {
          "indexed": true,
          "internalType": "address",
          "name": "creator",
          "type": "address"
        },
        {
          "indexed": false,
          "internalType": "uint16",
          "name": "numberOfPlayers",
          "type": "uint16"
        },
        {
          "indexed": false,
          "internalType": "uint256",
          "name": "expiryTimestamp",
          "type": "uint256"
        },
        {
          "indexed": false,
          "internalType": "uint256",
          "name": "wager",
          "type": "uint256"
        }
      ],
      "name": "GameCreated",
      "type": "event"
    },
    {
      "anonymous": false,
      "inputs": [
        {
          "indexed": true,
          "internalType": "uint256",
          "name": "gameID",
          "type": "uint256"
        },
        {
          "indexed": false,
          "internalType": "uint256",
          "name": "expiryTimestamp",
          "type": "uint256"
        }
      ],
      "name": "GameExpiryAdjusted",
      "type": "event"
    },
    {
      "anonymous": false,
      "inputs": [
        {
          "indexed": true,
          "internalType": "uint256",
          "name": "gameID",
          "type": "uint256"
        },
        {
          "indexed": true,
          "internalType": "uint16",
          "name": "gamePlayID",
          "type": "uint16"
        },
        {
          "indexed": false,
          "internalType": "bytes",
          "name": "chanceAndSalt",
          "type": "bytes"
        }
      ],
      "name": "GamePlayChanceRevealed",
      "type": "event"
    },
    {
      "anonymous": false,
      "inputs": [
        {
          "indexed": true,
          "internalType": "uint256",
          "name": "gameID",
          "type": "uint256"
        },
        {
          "indexed": true,
          "internalType": "uint16",
          "name": "gamePlayID",
          "type": "uint16"
        },
        {
          "indexed": true,
          "internalType": "address",
          "name": "player",
          "type": "address"
        },
        {
          "indexed": false,
          "internalType": "enum Coin.Side",
          "name": "coinSide",
          "type": "uint8"
        },
        {
          "indexed": false,
          "internalType": "bytes32",
          "name": "proofOfChance",
          "type": "bytes32"
        }
      ],
      "name": "GamePlayCreated",
      "type": "event"
    },
    {
      "anonymous": false,
      "inputs": [
        {
          "indexed": true,
          "internalType": "address",
          "name": "oldOwner",
          "type": "address"
        },
        {
          "indexed": true,
          "internalType": "address",
          "name": "newOwner",
          "type": "address"
        }
      ],
      "name": "OwnershipTransferred",
      "type": "event"
    },
    {
      "inputs": [
        {
          "internalType": "uint256",
          "name": "gameID",
          "type": "uint256"
        },
        {
          "internalType": "uint256",
          "name": "newExpiryTimestamp",
          "type": "uint256"
        }
      ],
      "name": "adjustExpiryForGame",
      "outputs": [],
      "stateMutability": "nonpayable",
      "type": "function"
    },
    {
      "inputs": [
        {
          "internalType": "uint256[]",
          "name": "gameIDs",
          "type": "uint256[]"
        },
        {
          "internalType": "uint256",
          "name": "newExpiryTimestamp",
          "type": "uint256"
        }
      ],
      "name": "adjustExpiryForGames",
      "outputs": [],
      "stateMutability": "nonpayable",
      "type": "function"
    },
    {
      "inputs": [
        {
          "internalType": "uint256",
          "name": "gameID",
          "type": "uint256"
        },
        {
          "internalType": "uint256",
          "name": "",
          "type": "uint256"
        }
      ],
      "name": "allPlayers",
      "outputs": [
        {
          "internalType": "address",
          "name": "player",
          "type": "address"
        }
      ],
      "stateMutability": "view",
      "type": "function"
    },
    {
      "inputs": [
        {
          "internalType": "uint16",
          "name": "numberOfPlayers",
          "type": "uint16"
        },
        {
          "internalType": "uint256",
          "name": "expiryTimestamp",
          "type": "uint256"
        },
        {
          "internalType": "enum Coin.Side",
          "name": "coinSide",
          "type": "uint8"
        },
        {
          "internalType": "bytes32",
          "name": "proofOfChance",
          "type": "bytes32"
        }
      ],
      "name": "createGame",
      "outputs": [],
      "stateMutability": "payable",
      "type": "function"
    },
    {
      "inputs": [
        {
          "internalType": "uint256",
          "name": "gameID",
          "type": "uint256"
        }
      ],
      "name": "expiryTimestamps",
      "outputs": [
        {
          "internalType": "uint256",
          "name": "expiryTimestamp",
          "type": "uint256"
        }
      ],
      "stateMutability": "view",
      "type": "function"
    },
    {
      "inputs": [],
      "name": "gamesCount",
      "outputs": [
        {
          "internalType": "uint256",
          "name": "",
          "type": "uint256"
        }
      ],
      "stateMutability": "view",
      "type": "function"
    },
    {
      "inputs": [
        {
          "internalType": "uint256",
          "name": "gameID",
          "type": "uint256"
        }
      ],
      "name": "getGameStatus",
      "outputs": [
        {
          "internalType": "enum Game.Status",
          "name": "",
          "type": "uint8"
        }
      ],
      "stateMutability": "view",
      "type": "function"
    },
    {
      "inputs": [
        {
          "internalType": "uint256",
          "name": "amount",
          "type": "uint256"
        }
      ],
      "name": "getServiceCharge",
      "outputs": [
        {
          "internalType": "uint256",
          "name": "",
          "type": "uint256"
        }
      ],
      "stateMutability": "view",
      "type": "function"
    },
    {
      "inputs": [],
      "name": "getServiceProviderWallet",
      "outputs": [
        {
          "internalType": "address",
          "name": "",
          "type": "address"
        }
      ],
      "stateMutability": "view",
      "type": "function"
    },
    {
      "inputs": [
        {
          "internalType": "uint256",
          "name": "totalAmount",
          "type": "uint256"
        },
        {
          "internalType": "uint256",
          "name": "places",
          "type": "uint256"
        }
      ],
      "name": "getSplitAndServiceChargeAmounts",
      "outputs": [
        {
          "internalType": "uint256",
          "name": "",
          "type": "uint256"
        },
        {
          "internalType": "uint256",
          "name": "",
          "type": "uint256"
        }
      ],
      "stateMutability": "view",
      "type": "function"
    },
    {
      "inputs": [],
      "name": "getTotalBalance",
      "outputs": [
        {
          "internalType": "uint256",
          "name": "",
          "type": "uint256"
        }
      ],
      "stateMutability": "view",
      "type": "function"
    },
    {
      "inputs": [],
      "name": "maxNumberOfPlayers",
      "outputs": [
        {
          "internalType": "uint16",
          "name": "",
          "type": "uint16"
        }
      ],
      "stateMutability": "view",
      "type": "function"
    },
    {
      "inputs": [],
      "name": "minWager",
      "outputs": [
        {
          "internalType": "uint256",
          "name": "",
          "type": "uint256"
        }
      ],
      "stateMutability": "view",
      "type": "function"
    },
    {
      "inputs": [
        {
          "internalType": "uint256",
          "name": "gameID",
          "type": "uint256"
        }
      ],
      "name": "numberOfPlayersForGameWith",
      "outputs": [
        {
          "internalType": "uint16",
          "name": "numberOfPlayers",
          "type": "uint16"
        }
      ],
      "stateMutability": "view",
      "type": "function"
    },
    {
      "inputs": [],
      "name": "owner",
      "outputs": [
        {
          "internalType": "address",
          "name": "",
          "type": "address"
        }
      ],
      "stateMutability": "view",
      "type": "function"
    },
    {
      "inputs": [
        {
          "internalType": "uint256",
          "name": "gameID",
          "type": "uint256"
        }
      ],
      "name": "playCountsSoFar",
      "outputs": [
        {
          "internalType": "uint16",
          "name": "playCount",
          "type": "uint16"
        }
      ],
      "stateMutability": "view",
      "type": "function"
    },
    {
      "inputs": [
        {
          "internalType": "uint256",
          "name": "gameID",
          "type": "uint256"
        },
        {
          "internalType": "enum Coin.Side",
          "name": "coinSide",
          "type": "uint8"
        },
        {
          "internalType": "bytes32",
          "name": "proofOfChance",
          "type": "bytes32"
        }
      ],
      "name": "playGame",
      "outputs": [],
      "stateMutability": "payable",
      "type": "function"
    },
    {
      "inputs": [
        {
          "internalType": "uint256",
          "name": "gameID",
          "type": "uint256"
        },
        {
          "internalType": "enum Coin.Side",
          "name": "coinSide",
          "type": "uint8"
        },
        {
          "internalType": "uint256",
          "name": "",
          "type": "uint256"
        }
      ],
      "name": "players",
      "outputs": [
        {
          "internalType": "address",
          "name": "player",
          "type": "address"
        }
      ],
      "stateMutability": "view",
      "type": "function"
    },
    {
      "inputs": [
        {
          "internalType": "uint256",
          "name": "gameID",
          "type": "uint256"
        },
        {
          "internalType": "uint16",
          "name": "playID",
          "type": "uint16"
        }
      ],
      "name": "proofOfChances",
      "outputs": [
        {
          "internalType": "bytes32",
          "name": "proofOfChance",
          "type": "bytes32"
        }
      ],
      "stateMutability": "view",
      "type": "function"
    },
    {
      "inputs": [
        {
          "internalType": "uint256",
          "name": "gameID",
          "type": "uint256"
        }
      ],
      "name": "refundExpiredGamePlayers",
      "outputs": [],
      "stateMutability": "nonpayable",
      "type": "function"
    },
    {
      "inputs": [
        {
          "internalType": "uint256[]",
          "name": "gameIDs",
          "type": "uint256[]"
        }
      ],
      "name": "refundExpiredGamePlayersForGames",
      "outputs": [],
      "stateMutability": "nonpayable",
      "type": "function"
    },
    {
      "inputs": [
        {
          "internalType": "uint256",
          "name": "gameID",
          "type": "uint256"
        },
        {
          "internalType": "bytes[]",
          "name": "chanceAndSalts",
          "type": "bytes[]"
        }
      ],
      "name": "revealChancesAndCreditWinners",
      "outputs": [],
      "stateMutability": "nonpayable",
      "type": "function"
    },
    {
      "inputs": [],
      "name": "serviceChargePercent",
      "outputs": [
        {
          "internalType": "uint8",
          "name": "",
          "type": "uint8"
        }
      ],
      "stateMutability": "view",
      "type": "function"
    },
    {
      "inputs": [
        {
          "internalType": "bool",
          "name": "isOperational_",
          "type": "bool"
        }
      ],
      "name": "setIsOperational",
      "outputs": [],
      "stateMutability": "nonpayable",
      "type": "function"
    },
    {
      "inputs": [
        {
          "internalType": "address",
          "name": "newOwner",
          "type": "address"
        }
      ],
      "name": "transferOwnership",
      "outputs": [],
      "stateMutability": "nonpayable",
      "type": "function"
    },
    {
      "inputs": [
        {
          "internalType": "uint16",
          "name": "maxNumberOfPlayers_",
          "type": "uint16"
        }
      ],
      "name": "updateMaxNumberOfPlayers",
      "outputs": [],
      "stateMutability": "nonpayable",
      "type": "function"
    },
    {
      "inputs": [
        {
          "internalType": "uint256",
          "name": "minWager_",
          "type": "uint256"
        }
      ],
      "name": "updateMinWager",
      "outputs": [],
      "stateMutability": "nonpayable",
      "type": "function"
    },
    {
      "inputs": [
        {
          "internalType": "uint8",
          "name": "serviceChargePercent_",
          "type": "uint8"
        }
      ],
      "name": "updateServiceChargePercent",
      "outputs": [],
      "stateMutability": "nonpayable",
      "type": "function"
    },
    {
      "inputs": [
        {
          "internalType": "address payable",
          "name": "wallets_",
          "type": "address"
        }
      ],
      "name": "updateWallets",
      "outputs": [],
      "stateMutability": "nonpayable",
      "type": "function"
    },
    {
      "inputs": [
        {
          "internalType": "uint256",
          "name": "gameID",
          "type": "uint256"
        }
      ],
      "name": "wagers",
      "outputs": [
        {
          "internalType": "uint256",
          "name": "wager",
          "type": "uint256"
        }
      ],
      "stateMutability": "view",
      "type": "function"
    },
    {
      "inputs": [],
      "name": "wallets",
      "outputs": [
        {
          "internalType": "contract Wallets",
          "name": "",
          "type": "address"
        }
      ],
      "stateMutability": "view",
      "type": "function"
    },
    {
      "stateMutability": "payable",
      "type": "receive"
    }
  ],
  "transactionHash": "0x05f459cad5bd266bc9e8aaf7e9cfc2d21b19d4a316ce515f613b11de1e341ce2",
  "args": [
    "0x42c95416B24046031310029a0531BA49592bAcbF",
    20,
    "40000000000000000"
  ],
  "numDeployments": 1,
  "solcInputHash": "993a2212a0e13909602f53184da8af6b",
  "bytecode": "0x60806040526009805461ffff60a01b191661080160a01b17905534801561002557600080fd5b50604051611f00380380611f00833981016040819052610044916100de565b61004d3361008c565b600e80546001600160a01b0319166001600160a01b039490941693909317909255600c805461ffff191661ffff92909216919091179055600a55610134565b600980546001600160a01b038381166001600160a01b0319831681179093556040519116919082907f8be0079c531659141344cd1fd0a4f28419497f9722a3daafe3b4186f6b6457e090600090a35050565b6000806000606084860312156100f357600080fd5b83516001600160a01b038116811461010a57600080fd5b602085015190935061ffff8116811461012257600080fd5b80925050604084015190509250925092565b611dbd806101436000396000f3fe6080604052600436106101dc5760003560e01c806382eee31b11610102578063c5409ead11610095578063dfca2d0511610064578063dfca2d0514610656578063f2fde38b14610669578063fb632b7c14610689578063fee445cc1461069f57600080fd5b8063c5409ead146105c5578063cccc893c146105e5578063ce1cf4cb14610616578063d2f4a50a1461063657600080fd5b8063a1d42f39116100d1578063a1d42f391461055a578063b5ece9231461057a578063bb9c3f2b1461059a578063c122212f146105b057600080fd5b806382eee31b146104b75780638d004a30146104d75780638da5cb5b1461050f5780639915e8fb1461052d57600080fd5b80632e683d591161017a57806367af44841161014957806367af448414610414578063728fdffa146104495780637cb4baf9146104645780637d627c161461049757600080fd5b80632e683d591461037257806332d5499714610392578063375068e5146103b257806353e636fc146103df57600080fd5b806318e70bd8116101b657806318e70bd8146102ce57806322f49051146102ee5780632851a5cf146103325780632cda6e771461035257600080fd5b80630f1bf4541461025b578063106608591461029157806312b58349146102b157600080fd5b3661025657600e546040517f4d4b298e0000000000000000000000000000000000000000000000000000000081523360048201526001600160a01b0390911690634d4b298e9034906024016000604051808303818588803b15801561024057600080fd5b505af1158015610254573d6000803e3d6000fd5b005b600080fd5b34801561026757600080fd5b5061027b6102763660046117b3565b6106b2565b60405161028891906117f6565b60405180910390f35b34801561029d57600080fd5b506102546102ac366004611849565b61072c565b3480156102bd57600080fd5b50475b604051908152602001610288565b3480156102da57600080fd5b506102546102e9366004611895565b61077b565b3480156102fa57600080fd5b5061031f6103093660046117b3565b60026020526000908152604090205461ffff1681565b60405161ffff9091168152602001610288565b34801561033e57600080fd5b5061025461034d3660046118f6565b610ad4565b34801561035e57600080fd5b5061025461036d36600461191a565b610b0b565b34801561037e57600080fd5b5061025461038d3660046117b3565b610b8b565b34801561039e57600080fd5b506102c06103ad3660046117b3565b610b97565b3480156103be57600080fd5b506102c06103cd3660046117b3565b600b6020526000908152604090205481565b3480156103eb57600080fd5b506102c06103fa366004611954565b600060208181529281526040808220909352908152205481565b34801561042057600080fd5b5061043461042f366004611980565b610bc4565b60408051928352602083019190915201610288565b34801561045557600080fd5b50600c5461031f9061ffff1681565b34801561047057600080fd5b5060095461048590600160a81b900460ff1681565b60405160ff9091168152602001610288565b3480156104a357600080fd5b506102546104b23660046119a2565b610c2a565b3480156104c357600080fd5b506102546104d23660046119bd565b610c4a565b3480156104e357600080fd5b506104f76104f2366004611a0e565b610c89565b6040516001600160a01b039091168152602001610288565b34801561051b57600080fd5b506009546001600160a01b03166104f7565b34801561053957600080fd5b506102c06105483660046117b3565b60076020526000908152604090205481565b34801561056657600080fd5b506104f7610575366004611980565b610cce565b34801561058657600080fd5b50610254610595366004611a43565b610d06565b3480156105a657600080fd5b506102c0600a5481565b3480156105bc57600080fd5b506104f7610d47565b3480156105d157600080fd5b506102546105e0366004611980565b610d60565b3480156105f157600080fd5b5061031f6106003660046117b3565b60016020526000908152604090205461ffff1681565b34801561062257600080fd5b506102546106313660046117b3565b610d76565b34801561064257600080fd5b50600e546104f7906001600160a01b031681565b610254610664366004611a65565b610d83565b34801561067557600080fd5b506102546106843660046118f6565b610eed565b34801561069557600080fd5b506102c0600d5481565b6102546106ad366004611a0e565b610efe565b60008181526008602052604081205460ff1681808260038111156106d8576106d86117cc565b14806106f5575060018260038111156106f3576106f36117cc565b145b60008581526007602052604090205490915042118180156107135750805b1561072357506002949350505050565b50909392505050565b610734611148565b60005b60ff811683111561077557600084848360ff1681811061075957610759611aa9565b90506020020135905061076c818461119f565b50600101610737565b50505050565b610783611148565b8260016000610791836106b2565b90508160038111156107a5576107a56117cc565b8160038111156107b7576107b76117cc565b146107e457828282604051637765da3560e01b81526004016107db93929190611abf565b60405180910390fd5b6000805b60008881526002602052604090205461ffff90811690821610156109da5736600088888461ffff1681811061081f5761081f611aa9565b90506020028101906108319190611ae8565b90925090506000610843846001611b45565b60008c81526020818152604080832061ffff8516845290915290819020549051919250906002906108779086908690611b67565b602060405180830381855afa158015610894573d6000803e3d6000fd5b5050506040513d601f19601f820116820180604052508101906108b79190611b77565b146108ee576040517f402fb0a400000000000000000000000000000000000000000000000000000000815260040160405180910390fd5b60006108fc83850185611b90565b50905060005b60108160ff16101561098b576000828260ff166010811061092557610925611aa9565b1a60f81b90507fff00000000000000000000000000000000000000000000000000000000000000811660000361095b575061098b565b600088600181111561096f5761096f6117cc565b0361097d5760019750610982565b600097505b50600101610902565b508161ffff168c7fa1ffc642177ab118fa3d9c64797cbc129024fdd953e7fc92c64eb358d2eaccfa86866040516109c3929190611c13565b60405180910390a3846001019450505050506107e8565b506000878152600360205260408120818360018111156109fc576109fc6117cc565b6001811115610a0d57610a0d6117cc565b8152602001908152602001600020805480602002602001604051908101604052809291908181526020018280548015610a6f57602002820191906000526020600020905b81546001600160a01b03168152600190910190602001808311610a51575b505050505090506000610a82898361122f565b9050610a8f8960036112f1565b887fa3f5520e27ebcfe38fd78c3854e39d00e8e9f7061551105f86fe8d1596ef84b88483604051610ac1929190611c52565b60405180910390a2505050505050505050565b610adc611148565b600e805473ffffffffffffffffffffffffffffffffffffffff19166001600160a01b0392909216919091179055565b610b13611148565b60648160ff1610610b50576040517f4756d23c00000000000000000000000000000000000000000000000000000000815260040160405180910390fd5b6009805460ff909216600160a81b027fffffffffffffffffffff00ffffffffffffffffffffffffffffffffffffffffff909216919091179055565b610b9481611325565b50565b600954600090606490610bb490600160a81b900460ff1684611c6d565b610bbe9190611c84565b92915050565b60008080610bd28486611c84565b600954909150606490610bef90600160a81b900460ff1683611c6d565b610bf99190611c84565b610c039082611ca6565b90506000610c118583611c6d565b610c1b9087611ca6565b919350909150505b9250929050565b610c32611148565b600c805461ffff191661ffff92909216919091179055565b60005b60ff8116821115610c8457610c7c83838360ff16818110610c7057610c70611aa9565b90506020020135611325565b600101610c4d565b505050565b60036020528260005260406000206020528160005260406000208181548110610cb157600080fd5b6000918252602090912001546001600160a01b0316925083915050565b60046020528160005260406000208181548110610cea57600080fd5b6000918252602090912001546001600160a01b03169150829050565b610d0e611148565b60098054911515600160a01b027fffffffffffffffffffffff00ffffffffffffffffffffffffffffffffffffffff909216919091179055565b6000610d5b6009546001600160a01b031690565b905090565b610d68611148565b610d72828261119f565b5050565b610d7e611148565b600a55565b600954600160a01b900460ff16610dad5760405163fececd2760e01b815260040160405180910390fd5b600a543490811015610deb576040517f139196d300000000000000000000000000000000000000000000000000000000815260040160405180910390fd5b600261ffff86161015610dfd57600080fd5b600c5461ffff9081169086161115610e41576040517f5473ed1a00000000000000000000000000000000000000000000000000000000815260040160405180910390fd5b6000600d60008154610e5290611cb9565b91829055506000818152600b6020908152604080832086905560029091529020805461ffff191661ffff89161790559050610e8d81866114d6565b6040805161ffff88168152602081018790529081018390523390819083907fff4ce5d936207f27c07633704e6d1a8aa0d1ae75aad73192582381fe9a2ed2069060600160405180910390a3610ee481838787611521565b50505050505050565b610ef5611148565b610b948161171f565b600954600160a01b900460ff16610f285760405163fececd2760e01b815260040160405180910390fd5b82600080610f35836106b2565b9050816003811115610f4957610f496117cc565b816003811115610f5b57610f5b6117cc565b14610f7f57828282604051637765da3560e01b81526004016107db93929190611abf565b6000868152600160209081526040808320546002909252822054889288929091610fb09161ffff9081169116611cd2565b6000848152600660209081526040808320838052909152808220546001808452919092205492935061ffff918216928216918416148015610fff575061ffff82161580610fff575061ffff8116155b1561107d5760008261ffff1660000361101a5750600061101e565b5060015b806001811115611030576110306117cc565b856001811115611042576110426117cc565b1461107b57806040517f14759b500000000000000000000000000000000000000000000000000000000081526004016107db9190611ced565b505b60008b81526005602090815260408083203384529091529020548b9061ffff1680156110db576040517fccfdba1f00000000000000000000000000000000000000000000000000000000815261ffff821660048201526024016107db565b60008d8152600b6020526040902054348114611123576040517f65f2ffb700000000000000000000000000000000000000000000000000000000815260040160405180910390fd5b61112f338f8f8f611521565b6111388e61177e565b5050505050505050505050505050565b3361115b6009546001600160a01b031690565b6001600160a01b03161461119d576040517f118cdaa70000000000000000000000000000000000000000000000000000000081523360048201526024016107db565b565b60006111aa836106b2565b905060008160038111156111c0576111c06117cc565b14806111dd575060018160038111156111db576111db6117cc565b145b6111e657600080fd5b6111f083836114d6565b827fd617e9095b23d7bb3907d94521de27edce9fd9923dfb73805aa57d4f5338bb548360405161122291815260200190565b60405180910390a2505050565b6000828152600b6020908152604080832054600190925282205482906112599061ffff1683611c6d565b9050600080611269838751610bc4565b600e5491935091506001600160a01b031663dca5d1f88488856112946009546001600160a01b031690565b866040518663ffffffff1660e01b81526004016112b49493929190611cfb565b6000604051808303818588803b1580156112cd57600080fd5b505af11580156112e1573d6000803e3d6000fd5b50949a9950505050505050505050565b6000828152600860205260409020805482919060ff1916600183600381111561131c5761131c6117cc565b02179055505050565b8060026000611333836106b2565b9050816003811115611347576113476117cc565b816003811115611359576113596117cc565b1461137d57828282604051637765da3560e01b81526004016107db93929190611abf565b6000848152600460209081526040808320805482518185028101850190935280835291929091908301828280156113dd57602002820191906000526020600020905b81546001600160a01b031681526001909101906020018083116113bf575b5050835160008a8152600b60205260408120549596509094909350611409925061ffff85169150611c6d565b905060008061141c838561ffff16610bc4565b600e5491935091506001600160a01b031663dca5d1f88487856114476009546001600160a01b031690565b866040518663ffffffff1660e01b81526004016114679493929190611cfb565b6000604051808303818588803b15801561148057600080fd5b505af1158015611494573d6000803e3d6000fd5b50505050506114a48960036112f1565b887f483a9ad42b66e69a3096814ad798345a0ed09694552a5b8a04abce8a0ba6fa2583604051610ac191815260200190565b42811161150f576040517f4257cab200000000000000000000000000000000000000000000000000000000815260040160405180910390fd5b60009182526007602052604090912055565b60008381526001602081905260408220546115429161ffff90911690611b45565b60008581526005602090815260408083206001600160a01b038a1684528252808320805461ffff191661ffff86169081179091558884528383528184209084528252808320869055878352600390915281209192508460018111156115a9576115a96117cc565b60018111156115ba576115ba6117cc565b8152602080820192909252604090810160009081208054600181810183559183528483200180546001600160a01b038b1673ffffffffffffffffffffffffffffffffffffffff199182168117909255898452600486528484208054808501825590855286852001805490911690911790558782526006909352908120918590811115611648576116486117cc565b6001811115611659576116596117cc565b815260208101919091526040016000908120805461ffff169161167b83611d66565b82546101009290920a61ffff8181021990931691831602179091556000868152600160205260408120805490921692506116b483611d66565b91906101000a81548161ffff021916908361ffff16021790555050846001600160a01b03168161ffff16857fe7b36541da149ae31f5dd2085cea9f899aa58f8b33bb0db2be6acfe1d31515e58686604051611710929190611c52565b60405180910390a45050505050565b600980546001600160a01b0383811673ffffffffffffffffffffffffffffffffffffffff19831681179093556040519116919082907f8be0079c531659141344cd1fd0a4f28419497f9722a3daafe3b4186f6b6457e090600090a35050565b60008181526001602090815260408083205460029092529091205461ffff9182169116808203610c8457610c848360016112f1565b6000602082840312156117c557600080fd5b5035919050565b634e487b7160e01b600052602160045260246000fd5b600481106117f2576117f26117cc565b9052565b60208101610bbe82846117e2565b60008083601f84011261181657600080fd5b50813567ffffffffffffffff81111561182e57600080fd5b6020830191508360208260051b8501011115610c2357600080fd5b60008060006040848603121561185e57600080fd5b833567ffffffffffffffff81111561187557600080fd5b61188186828701611804565b909790965060209590950135949350505050565b6000806000604084860312156118aa57600080fd5b83359250602084013567ffffffffffffffff8111156118c857600080fd5b6118d486828701611804565b9497909650939450505050565b6001600160a01b0381168114610b9457600080fd5b60006020828403121561190857600080fd5b8135611913816118e1565b9392505050565b60006020828403121561192c57600080fd5b813560ff8116811461191357600080fd5b803561ffff8116811461194f57600080fd5b919050565b6000806040838503121561196757600080fd5b823591506119776020840161193d565b90509250929050565b6000806040838503121561199357600080fd5b50508035926020909101359150565b6000602082840312156119b457600080fd5b6119138261193d565b600080602083850312156119d057600080fd5b823567ffffffffffffffff8111156119e757600080fd5b6119f385828601611804565b90969095509350505050565b80356002811061194f57600080fd5b600080600060608486031215611a2357600080fd5b83359250611a33602085016119ff565b9150604084013590509250925092565b600060208284031215611a5557600080fd5b8135801515811461191357600080fd5b60008060008060808587031215611a7b57600080fd5b611a848561193d565b935060208501359250611a99604086016119ff565b9396929550929360600135925050565b634e487b7160e01b600052603260045260246000fd5b83815260608101611ad360208301856117e2565b611ae060408301846117e2565b949350505050565b6000808335601e19843603018112611aff57600080fd5b83018035915067ffffffffffffffff821115611b1a57600080fd5b602001915036819003821315610c2357600080fd5b634e487b7160e01b600052601160045260246000fd5b61ffff818116838216019080821115611b6057611b60611b2f565b5092915050565b8183823760009101908152919050565b600060208284031215611b8957600080fd5b5051919050565b60008060408385031215611ba357600080fd5b82357fffffffffffffffffffffffffffffffff0000000000000000000000000000000081168114611bd357600080fd5b915060208301357fffffffffffffffff00000000000000000000000000000000000000000000000081168114611c0857600080fd5b809150509250929050565b60208152816020820152818360408301376000818301604090810191909152601f909201601f19160101919050565b600281106117f2576117f26117cc565b60408101611c608285611c42565b8260208301529392505050565b8082028115828204841417610bbe57610bbe611b2f565b600082611ca157634e487b7160e01b600052601260045260246000fd5b500490565b81810381811115610bbe57610bbe611b2f565b600060018201611ccb57611ccb611b2f565b5060010190565b61ffff828116828216039080821115611b6057611b60611b2f565b60208101610bbe8284611c42565b6080808252855190820181905260009060209060a0840190828901845b82811015611d3d5781516001600160a01b031684529284019290840190600101611d18565b505050602084019690965250506001600160a01b03929092166040830152606090910152919050565b600061ffff808316818103611d7d57611d7d611b2f565b600101939250505056fea2646970667358221220d363d071b6b05c2cc137dc1f1877e4a6af93ba33f09724288bcc861a7036a17c64736f6c63430008190033",
  "devdoc": {
    "errors": {
      "OwnableInvalidOwner(address)": [
        {
          "details": "The owner is not a valid owner account."
        }
      ]
    },
    "kind": "dev",
    "methods": {
      "createGame(uint16,uint256,uint8,bytes32)": {
        "params": {
          "coinSide": "predicted coin side by you, the creator",
          "expiryTimestamp": "Expiry timestamp of the game",
          "numberOfPlayers": "number of participating players",
          "proofOfChance": "SHA256 hash of your chance (lucky word[s]) and a random salt combined"
        }
      },
      "getServiceProviderWallet()": {
        "details": "Returns the service provider wallet address"
      },
      "getSplitAndServiceChargeAmounts(uint256,uint256)": {
        "details": "Returns the `splitAmount` for each `place` and the `serviceChargeAmount`"
      },
      "owner()": {
        "details": "Returns the address of the current owner."
      },
      "playGame(uint256,uint8,bytes32)": {
        "params": {
          "coinSide": "coin side outcome prediction",
          "gameID": "already created game ID",
          "proofOfChance": "SHA256 hash of your chance (lucky word[s]) and a random salt combined"
        }
      },
      "refundExpiredGamePlayers(uint256)": {
        "params": {
          "gameID": "game ID of expired game"
        }
      },
      "refundExpiredGamePlayersForGames(uint256[])": {
        "details": "Everyone's authorized to remove the possibility of locking wagers forever if an owner loses access to their private keys",
        "params": {
          "gameIDs": "game IDs of expired games"
        }
      },
      "revealChancesAndCreditWinners(uint256,bytes[])": {
        "params": {
          "chanceAndSalts": "list of the chance and salts combined in the order of their respecitive play IDs",
          "gameID": "already created game ID"
        }
      },
      "setIsOperational(bool)": {
        "details": "Sets contract operations on/off When isOperational is false, all affected write transactions except for this one will fail"
      },
      "transferOwnership(address)": {
        "details": "Transfers ownership of the contract to a new account (`newOwner`). Can only be called by the current owner."
      },
      "updateServiceChargePercent(uint8)": {
        "details": "Allows owner update service charge percent"
      }
    },
    "version": 1
  },
  "userdoc": {
    "errors": {
      "OwnableUnauthorizedAccount(address)": [
        {
          "notice": "The caller account is not authorized to perform an operation."
        }
      ]
    },
    "kind": "user",
    "methods": {
      "createGame(uint16,uint256,uint8,bytes32)": {
        "notice": "Creates a new game"
      },
      "getSplitAndServiceChargeAmounts(uint256,uint256)": {
        "notice": "Made public to allow auditing games transparently"
      },
      "getTotalBalance()": {
        "notice": "returns the ether balance of this contract i.e. total wagers staked"
      },
      "playGame(uint256,uint8,bytes32)": {
        "notice": "Allows playing an already created game"
      },
      "refundExpiredGamePlayers(uint256)": {
        "notice": "Refund wagers of an expired game to its players"
      },
      "refundExpiredGamePlayersForGames(uint256[])": {
        "notice": "Batch refunds expired game players"
      },
      "revealChancesAndCreditWinners(uint256,bytes[])": {
        "notice": "Reveals the chances (lucky words) of all plays for a given game. After, it computes and stores the coinflip outcome for the given game. Then, it credits players that predicted the coinflip outcome correctly with the combined wager shared equally (after service charge deduction)"
      },
      "updateMaxNumberOfPlayers(uint16)": {
        "notice": "Updates max number of players to avoid concluding games with very high gas fee"
      },
      "updateMinWager(uint256)": {
        "notice": "Updates min wager allowed"
      },
      "updateWallets(address)": {
        "notice": "Allow updating Wallets contract in case a PPV is ever discovered"
      }
    },
    "version": 1
  },
  "storageLayout": {
    "storage": [
      {
        "astId": 788,
        "contract": "src/Coinflip.sol:Coinflip",
        "label": "proofOfChances",
        "offset": 0,
        "slot": "0",
        "type": "t_mapping(t_uint256,t_mapping(t_uint16,t_bytes32))"
      },
      {
        "astId": 792,
        "contract": "src/Coinflip.sol:Coinflip",
        "label": "playCountsSoFar",
        "offset": 0,
        "slot": "1",
        "type": "t_mapping(t_uint256,t_uint16)"
      },
      {
        "astId": 796,
        "contract": "src/Coinflip.sol:Coinflip",
        "label": "numberOfPlayersForGameWith",
        "offset": 0,
        "slot": "2",
        "type": "t_mapping(t_uint256,t_uint16)"
      },
      {
        "astId": 804,
        "contract": "src/Coinflip.sol:Coinflip",
        "label": "players",
        "offset": 0,
        "slot": "3",
        "type": "t_mapping(t_uint256,t_mapping(t_enum(Side)762,t_array(t_address)dyn_storage))"
      },
      {
        "astId": 809,
        "contract": "src/Coinflip.sol:Coinflip",
        "label": "allPlayers",
        "offset": 0,
        "slot": "4",
        "type": "t_mapping(t_uint256,t_array(t_address)dyn_storage)"
      },
      {
        "astId": 815,
        "contract": "src/Coinflip.sol:Coinflip",
        "label": "playRecord",
        "offset": 0,
        "slot": "5",
        "type": "t_mapping(t_uint256,t_mapping(t_address,t_uint16))"
      },
      {
        "astId": 822,
        "contract": "src/Coinflip.sol:Coinflip",
        "label": "coinSideCounts",
        "offset": 0,
        "slot": "6",
        "type": "t_mapping(t_uint256,t_mapping(t_enum(Side)762,t_uint16))"
      },
      {
        "astId": 1051,
        "contract": "src/Coinflip.sol:Coinflip",
        "label": "expiryTimestamps",
        "offset": 0,
        "slot": "7",
        "type": "t_mapping(t_uint256,t_uint256)"
      },
      {
        "astId": 1056,
        "contract": "src/Coinflip.sol:Coinflip",
        "label": "statuses",
        "offset": 0,
        "slot": "8",
        "type": "t_mapping(t_uint256,t_enum(Status)775)"
      },
      {
        "astId": 1230,
        "contract": "src/Coinflip.sol:Coinflip",
        "label": "_owner",
        "offset": 0,
        "slot": "9",
        "type": "t_address"
      },
      {
        "astId": 1198,
        "contract": "src/Coinflip.sol:Coinflip",
        "label": "isOperational",
        "offset": 20,
        "slot": "9",
        "type": "t_bool"
      },
      {
        "astId": 1333,
        "contract": "src/Coinflip.sol:Coinflip",
        "label": "serviceChargePercent",
        "offset": 21,
        "slot": "9",
        "type": "t_uint8"
      },
      {
        "astId": 29,
        "contract": "src/Coinflip.sol:Coinflip",
        "label": "minWager",
        "offset": 0,
        "slot": "10",
        "type": "t_uint256"
      },
      {
        "astId": 33,
        "contract": "src/Coinflip.sol:Coinflip",
        "label": "wagers",
        "offset": 0,
        "slot": "11",
        "type": "t_mapping(t_uint256,t_uint256)"
      },
      {
        "astId": 35,
        "contract": "src/Coinflip.sol:Coinflip",
        "label": "maxNumberOfPlayers",
        "offset": 0,
        "slot": "12",
        "type": "t_uint16"
      },
      {
        "astId": 37,
        "contract": "src/Coinflip.sol:Coinflip",
        "label": "gamesCount",
        "offset": 0,
        "slot": "13",
        "type": "t_uint256"
      },
      {
        "astId": 40,
        "contract": "src/Coinflip.sol:Coinflip",
        "label": "wallets",
        "offset": 0,
        "slot": "14",
        "type": "t_contract(Wallets)1747"
      }
    ],
    "types": {
      "t_address": {
        "encoding": "inplace",
        "label": "address",
        "numberOfBytes": "20"
      },
      "t_array(t_address)dyn_storage": {
        "base": "t_address",
        "encoding": "dynamic_array",
        "label": "address[]",
        "numberOfBytes": "32"
      },
      "t_bool": {
        "encoding": "inplace",
        "label": "bool",
        "numberOfBytes": "1"
      },
      "t_bytes32": {
        "encoding": "inplace",
        "label": "bytes32",
        "numberOfBytes": "32"
      },
      "t_contract(Wallets)1747": {
        "encoding": "inplace",
        "label": "contract Wallets",
        "numberOfBytes": "20"
      },
      "t_enum(Side)762": {
        "encoding": "inplace",
        "label": "enum Coin.Side",
        "numberOfBytes": "1"
      },
      "t_enum(Status)775": {
        "encoding": "inplace",
        "label": "enum Game.Status",
        "numberOfBytes": "1"
      },
      "t_mapping(t_address,t_uint16)": {
        "encoding": "mapping",
        "key": "t_address",
        "label": "mapping(address => uint16)",
        "numberOfBytes": "32",
        "value": "t_uint16"
      },
      "t_mapping(t_enum(Side)762,t_array(t_address)dyn_storage)": {
        "encoding": "mapping",
        "key": "t_enum(Side)762",
        "label": "mapping(enum Coin.Side => address[])",
        "numberOfBytes": "32",
        "value": "t_array(t_address)dyn_storage"
      },
      "t_mapping(t_enum(Side)762,t_uint16)": {
        "encoding": "mapping",
        "key": "t_enum(Side)762",
        "label": "mapping(enum Coin.Side => uint16)",
        "numberOfBytes": "32",
        "value": "t_uint16"
      },
      "t_mapping(t_uint16,t_bytes32)": {
        "encoding": "mapping",
        "key": "t_uint16",
        "label": "mapping(uint16 => bytes32)",
        "numberOfBytes": "32",
        "value": "t_bytes32"
      },
      "t_mapping(t_uint256,t_array(t_address)dyn_storage)": {
        "encoding": "mapping",
        "key": "t_uint256",
        "label": "mapping(uint256 => address[])",
        "numberOfBytes": "32",
        "value": "t_array(t_address)dyn_storage"
      },
      "t_mapping(t_uint256,t_enum(Status)775)": {
        "encoding": "mapping",
        "key": "t_uint256",
        "label": "mapping(uint256 => enum Game.Status)",
        "numberOfBytes": "32",
        "value": "t_enum(Status)775"
      },
      "t_mapping(t_uint256,t_mapping(t_address,t_uint16))": {
        "encoding": "mapping",
        "key": "t_uint256",
        "label": "mapping(uint256 => mapping(address => uint16))",
        "numberOfBytes": "32",
        "value": "t_mapping(t_address,t_uint16)"
      },
      "t_mapping(t_uint256,t_mapping(t_enum(Side)762,t_array(t_address)dyn_storage))": {
        "encoding": "mapping",
        "key": "t_uint256",
        "label": "mapping(uint256 => mapping(enum Coin.Side => address[]))",
        "numberOfBytes": "32",
        "value": "t_mapping(t_enum(Side)762,t_array(t_address)dyn_storage)"
      },
      "t_mapping(t_uint256,t_mapping(t_enum(Side)762,t_uint16))": {
        "encoding": "mapping",
        "key": "t_uint256",
        "label": "mapping(uint256 => mapping(enum Coin.Side => uint16))",
        "numberOfBytes": "32",
        "value": "t_mapping(t_enum(Side)762,t_uint16)"
      },
      "t_mapping(t_uint256,t_mapping(t_uint16,t_bytes32))": {
        "encoding": "mapping",
        "key": "t_uint256",
        "label": "mapping(uint256 => mapping(uint16 => bytes32))",
        "numberOfBytes": "32",
        "value": "t_mapping(t_uint16,t_bytes32)"
      },
      "t_mapping(t_uint256,t_uint16)": {
        "encoding": "mapping",
        "key": "t_uint256",
        "label": "mapping(uint256 => uint16)",
        "numberOfBytes": "32",
        "value": "t_uint16"
      },
      "t_mapping(t_uint256,t_uint256)": {
        "encoding": "mapping",
        "key": "t_uint256",
        "label": "mapping(uint256 => uint256)",
        "numberOfBytes": "32",
        "value": "t_uint256"
      },
      "t_uint16": {
        "encoding": "inplace",
        "label": "uint16",
        "numberOfBytes": "2"
      },
      "t_uint256": {
        "encoding": "inplace",
        "label": "uint256",
        "numberOfBytes": "32"
      },
      "t_uint8": {
        "encoding": "inplace",
        "label": "uint8",
        "numberOfBytes": "1"
      }
    }
  }
}