{
  "address": "0x5FbDB2315678afecb367f032d93F642f64180aa3",
  "abi": [
    {
      "inputs": [],
      "name": "InsufficientFunds",
      "type": "error"
    },
    {
      "inputs": [],
      "name": "ReentrancyGuardReentrantCall",
      "type": "error"
    },
    {
      "anonymous": false,
      "inputs": [
        {
          "indexed": true,
          "internalType": "address",
          "name": "account",
          "type": "address"
        },
        {
          "indexed": false,
          "internalType": "uint256",
          "name": "amount",
          "type": "uint256"
        }
      ],
      "name": "Credit",
      "type": "event"
    },
    {
      "anonymous": false,
      "inputs": [
        {
          "indexed": true,
          "internalType": "address",
          "name": "account",
          "type": "address"
        },
        {
          "indexed": false,
          "internalType": "uint256",
          "name": "amount",
          "type": "uint256"
        }
      ],
      "name": "Debit",
      "type": "event"
    },
    {
      "inputs": [],
      "name": "credit",
      "outputs": [],
      "stateMutability": "payable",
      "type": "function"
    },
    {
      "inputs": [
        {
          "internalType": "address",
          "name": "account",
          "type": "address"
        }
      ],
      "name": "creditAccount",
      "outputs": [],
      "stateMutability": "payable",
      "type": "function"
    },
    {
      "inputs": [
        {
          "internalType": "address[]",
          "name": "accounts",
          "type": "address[]"
        }
      ],
      "name": "creditAccounts",
      "outputs": [],
      "stateMutability": "payable",
      "type": "function"
    },
    {
      "inputs": [
        {
          "internalType": "address[]",
          "name": "manyAccounts",
          "type": "address[]"
        },
        {
          "internalType": "uint256",
          "name": "amountForEachManyAccount",
          "type": "uint256"
        },
        {
          "internalType": "address",
          "name": "oneAccount",
          "type": "address"
        },
        {
          "internalType": "uint256",
          "name": "amountForOneAccount",
          "type": "uint256"
        }
      ],
      "name": "creditManyAndOne",
      "outputs": [],
      "stateMutability": "payable",
      "type": "function"
    },
    {
      "inputs": [
        {
          "internalType": "address",
          "name": "account",
          "type": "address"
        }
      ],
      "name": "getBalance",
      "outputs": [
        {
          "internalType": "uint256",
          "name": "",
          "type": "uint256"
        }
      ],
      "stateMutability": "view",
      "type": "function"
    },
    {
      "inputs": [],
      "name": "getTotalBalance",
      "outputs": [
        {
          "internalType": "uint256",
          "name": "",
          "type": "uint256"
        }
      ],
      "stateMutability": "view",
      "type": "function"
    },
    {
      "inputs": [
        {
          "internalType": "uint256",
          "name": "amount",
          "type": "uint256"
        }
      ],
      "name": "withdraw",
      "outputs": [],
      "stateMutability": "nonpayable",
      "type": "function"
    },
    {
      "inputs": [],
      "name": "withdrawAll",
      "outputs": [],
      "stateMutability": "nonpayable",
      "type": "function"
    },
    {
      "stateMutability": "payable",
      "type": "receive"
    }
  ],
  "transactionHash": "0xcfd08e7bcc583fe63d3c3e7361a818e9bb76b938143aa961743c556f5cec1be8",
  "args": [],
  "numDeployments": 1,
  "solcInputHash": "f8e00c5d06c81eb41275c53199b657d6",
  "bytecode": "0x608060405234801561001057600080fd5b506001600055610718806100256000396000f3fe60806040526004361061007f5760003560e01c8063a06d083c1161004e578063a06d083c146100fe578063caa8cbcb14610106578063dca5d1f814610119578063f8b2cb4f1461012c57600080fd5b806312b58349146100955780632e1a7d4d146100b65780634d4b298e146100d6578063853828b6146100e957600080fd5b366100905761008e3334610162565b005b600080fd5b3480156100a157600080fd5b50475b60405190815260200160405180910390f35b3480156100c257600080fd5b5061008e6100d13660046104eb565b6101d1565b61008e6100e4366004610520565b610294565b3480156100f557600080fd5b5061008e61029e565b61008e61034b565b61008e61011436600461058e565b610355565b61008e6101273660046105d0565b6103c4565b34801561013857600080fd5b506100a4610147366004610520565b6001600160a01b031660009081526001602052604090205490565b6001600160a01b0382166000908152600160205260408120805483929061018a90849061064b565b90915550506040518181526001600160a01b038316907f1bbf55d483639f8103dc4e035af71a4fbdb16c80be740fa3eef81198acefa0949060200160405180910390a25050565b6101d9610443565b336000818152600160205260409020548281101561020a5760405163356680b760e01b815260040160405180910390fd5b6001600160a01b03821660009081526001602052604081208054859290610232908490610664565b9091555061024290508284610486565b816001600160a01b03167f59c79d79be0fadf59fe689b6952b7ebe90201a3a1f00d4a31982377890bc60468460405161027d91815260200190565b60405180910390a250506102916001600055565b50565b6102918134610162565b6102a6610443565b33600081815260016020526040812054908190036102d75760405163356680b760e01b815260040160405180910390fd5b6001600160a01b0382166000908152600160205260408120556102fa8282610486565b816001600160a01b03167f59c79d79be0fadf59fe689b6952b7ebe90201a3a1f00d4a31982377890bc60468260405161033591815260200190565b60405180910390a250506103496001600055565b565b6103493334610162565b3481610361818361068d565b1561036b57600080fd5b600061037782846106a1565b905060005b828110156103bc576103b4868683818110610399576103996106b5565b90506020020160208101906103ae9190610520565b83610162565b60010161037c565b505050505050565b8334826103d561ffff8416876106cb565b6103df919061064b565b146103e957600080fd5b60005b8161ffff168161ffff1610156104385761043087878361ffff16818110610415576104156106b5565b905060200201602081019061042a9190610520565b86610162565b6001016103ec565b506103bc8383610162565b60026000540361047f576040517f3ee5aeb500000000000000000000000000000000000000000000000000000000815260040160405180910390fd5b6002600055565b6000826001600160a01b03168260405160006040518083038185875af1925050503d80600081146104d3576040519150601f19603f3d011682016040523d82523d6000602084013e6104d8565b606091505b50509050806104e657600080fd5b505050565b6000602082840312156104fd57600080fd5b5035919050565b80356001600160a01b038116811461051b57600080fd5b919050565b60006020828403121561053257600080fd5b61053b82610504565b9392505050565b60008083601f84011261055457600080fd5b50813567ffffffffffffffff81111561056c57600080fd5b6020830191508360208260051b850101111561058757600080fd5b9250929050565b600080602083850312156105a157600080fd5b823567ffffffffffffffff8111156105b857600080fd5b6105c485828601610542565b90969095509350505050565b6000806000806000608086880312156105e857600080fd5b853567ffffffffffffffff8111156105ff57600080fd5b61060b88828901610542565b9096509450506020860135925061062460408701610504565b949793965091946060013592915050565b634e487b7160e01b600052601160045260246000fd5b8082018082111561065e5761065e610635565b92915050565b8181038181111561065e5761065e610635565b634e487b7160e01b600052601260045260246000fd5b60008261069c5761069c610677565b500690565b6000826106b0576106b0610677565b500490565b634e487b7160e01b600052603260045260246000fd5b808202811582820484141761065e5761065e61063556fea26469706673582212203afd555cf496838dbc6f85102ee53b3a52c12178e855f847345e040ec68927c964736f6c63430008180033",
  "devdoc": {
    "errors": {
      "ReentrancyGuardReentrantCall()": [
        {
          "details": "Unauthorized reentrant call."
        }
      ]
    },
    "kind": "dev",
    "methods": {
      "creditAccount(address)": {
        "details": "Credits account. You could credit yourself or someone using this."
      },
      "creditAccounts(address[])": {
        "details": "Credits player as though player manually credits themselves."
      }
    },
    "version": 1
  },
  "userdoc": {
    "kind": "user",
    "methods": {
      "getBalance(address)": {
        "notice": "returns the balance of a wallet account"
      },
      "getTotalBalance()": {
        "notice": "returns the ether balance of this wallet contract"
      },
      "withdraw(uint256)": {
        "notice": "Allows you to withdraw a specified amount of your wallet balance"
      },
      "withdrawAll()": {
        "notice": "Allows you to withdraw all your wallet balance"
      }
    },
    "notice": "TODO: Move to orisirisi-contracts since it could be globally scoped",
    "version": 1
  },
  "storageLayout": {
    "storage": [
      {
        "astId": 1690,
        "contract": "src/Wallets.sol:Wallets",
        "label": "_status",
        "offset": 0,
        "slot": "0",
        "type": "t_uint256"
      },
      {
        "astId": 1369,
        "contract": "src/Wallets.sol:Wallets",
        "label": "balances",
        "offset": 0,
        "slot": "1",
        "type": "t_mapping(t_address,t_uint256)"
      }
    ],
    "types": {
      "t_address": {
        "encoding": "inplace",
        "label": "address",
        "numberOfBytes": "20"
      },
      "t_mapping(t_address,t_uint256)": {
        "encoding": "mapping",
        "key": "t_address",
        "label": "mapping(address => uint256)",
        "numberOfBytes": "32",
        "value": "t_uint256"
      },
      "t_uint256": {
        "encoding": "inplace",
        "label": "uint256",
        "numberOfBytes": "32"
      }
    }
  }
}