{
  "address": "0x5FbDB2315678afecb367f032d93F642f64180aa3",
  "abi": [
    {
      "inputs": [],
      "name": "InsufficientFunds",
      "type": "error"
    },
    {
      "inputs": [
        {
          "internalType": "address",
          "name": "owner",
          "type": "address"
        }
      ],
      "name": "OwnableInvalidOwner",
      "type": "error"
    },
    {
      "inputs": [
        {
          "internalType": "address",
          "name": "account",
          "type": "address"
        }
      ],
      "name": "OwnableUnauthorizedAccount",
      "type": "error"
    },
    {
      "inputs": [],
      "name": "ReentrancyGuardReentrantCall",
      "type": "error"
    },
    {
      "inputs": [],
      "name": "UnAuthorizedApp",
      "type": "error"
    },
    {
      "anonymous": false,
      "inputs": [
        {
          "indexed": true,
          "internalType": "address",
          "name": "owner",
          "type": "address"
        },
        {
          "indexed": false,
          "internalType": "uint256",
          "name": "amount",
          "type": "uint256"
        }
      ],
      "name": "Credit",
      "type": "event"
    },
    {
      "anonymous": false,
      "inputs": [
        {
          "indexed": true,
          "internalType": "address",
          "name": "app",
          "type": "address"
        },
        {
          "indexed": true,
          "internalType": "uint256",
          "name": "gameID",
          "type": "uint256"
        },
        {
          "indexed": true,
          "internalType": "address",
          "name": "owner",
          "type": "address"
        },
        {
          "indexed": false,
          "internalType": "uint256",
          "name": "amount",
          "type": "uint256"
        }
      ],
      "name": "CreditFromGame",
      "type": "event"
    },
    {
      "anonymous": false,
      "inputs": [
        {
          "indexed": true,
          "internalType": "address",
          "name": "owner",
          "type": "address"
        },
        {
          "indexed": false,
          "internalType": "uint256",
          "name": "amount",
          "type": "uint256"
        }
      ],
      "name": "Debit",
      "type": "event"
    },
    {
      "anonymous": false,
      "inputs": [
        {
          "indexed": true,
          "internalType": "address",
          "name": "app",
          "type": "address"
        },
        {
          "indexed": true,
          "internalType": "uint256",
          "name": "gameID",
          "type": "uint256"
        },
        {
          "indexed": true,
          "internalType": "address",
          "name": "owner",
          "type": "address"
        },
        {
          "indexed": false,
          "internalType": "uint256",
          "name": "amount",
          "type": "uint256"
        }
      ],
      "name": "DebitForGame",
      "type": "event"
    },
    {
      "anonymous": false,
      "inputs": [
        {
          "indexed": true,
          "internalType": "address",
          "name": "previousOwner",
          "type": "address"
        },
        {
          "indexed": true,
          "internalType": "address",
          "name": "newOwner",
          "type": "address"
        }
      ],
      "name": "OwnershipTransferred",
      "type": "event"
    },
    {
      "inputs": [
        {
          "internalType": "address",
          "name": "app",
          "type": "address"
        }
      ],
      "name": "addApp",
      "outputs": [],
      "stateMutability": "nonpayable",
      "type": "function"
    },
    {
      "inputs": [],
      "name": "credit",
      "outputs": [],
      "stateMutability": "payable",
      "type": "function"
    },
    {
      "inputs": [
        {
          "internalType": "address",
          "name": "player",
          "type": "address"
        }
      ],
      "name": "creditPlayer",
      "outputs": [],
      "stateMutability": "payable",
      "type": "function"
    },
    {
      "inputs": [
        {
          "internalType": "address[]",
          "name": "players",
          "type": "address[]"
        }
      ],
      "name": "creditPlayers",
      "outputs": [],
      "stateMutability": "payable",
      "type": "function"
    },
    {
      "inputs": [
        {
          "internalType": "uint256",
          "name": "gameID",
          "type": "uint256"
        },
        {
          "internalType": "address[]",
          "name": "players",
          "type": "address[]"
        },
        {
          "internalType": "uint256",
          "name": "amount",
          "type": "uint256"
        }
      ],
      "name": "creditPlayersAndCreditAppOwnerTheRest",
      "outputs": [],
      "stateMutability": "nonpayable",
      "type": "function"
    },
    {
      "inputs": [
        {
          "internalType": "uint256",
          "name": "gameID",
          "type": "uint256"
        },
        {
          "internalType": "address",
          "name": "player",
          "type": "address"
        },
        {
          "internalType": "uint256",
          "name": "amount",
          "type": "uint256"
        }
      ],
      "name": "debitForGame",
      "outputs": [],
      "stateMutability": "nonpayable",
      "type": "function"
    },
    {
      "inputs": [
        {
          "internalType": "address",
          "name": "owner",
          "type": "address"
        }
      ],
      "name": "getBalance",
      "outputs": [
        {
          "internalType": "uint256",
          "name": "",
          "type": "uint256"
        }
      ],
      "stateMutability": "view",
      "type": "function"
    },
    {
      "inputs": [
        {
          "internalType": "address",
          "name": "app",
          "type": "address"
        },
        {
          "internalType": "uint256",
          "name": "gameID",
          "type": "uint256"
        }
      ],
      "name": "getGameBalance",
      "outputs": [
        {
          "internalType": "uint256",
          "name": "",
          "type": "uint256"
        }
      ],
      "stateMutability": "view",
      "type": "function"
    },
    {
      "inputs": [],
      "name": "getTotalBalance",
      "outputs": [
        {
          "internalType": "uint256",
          "name": "",
          "type": "uint256"
        }
      ],
      "stateMutability": "view",
      "type": "function"
    },
    {
      "inputs": [],
      "name": "owner",
      "outputs": [
        {
          "internalType": "address",
          "name": "",
          "type": "address"
        }
      ],
      "stateMutability": "view",
      "type": "function"
    },
    {
      "inputs": [
        {
          "internalType": "address",
          "name": "app",
          "type": "address"
        }
      ],
      "name": "removeApp",
      "outputs": [],
      "stateMutability": "nonpayable",
      "type": "function"
    },
    {
      "inputs": [
        {
          "internalType": "address",
          "name": "newOwner",
          "type": "address"
        }
      ],
      "name": "transferOwnership",
      "outputs": [],
      "stateMutability": "nonpayable",
      "type": "function"
    },
    {
      "inputs": [
        {
          "internalType": "uint256",
          "name": "amount",
          "type": "uint256"
        }
      ],
      "name": "withdraw",
      "outputs": [],
      "stateMutability": "nonpayable",
      "type": "function"
    },
    {
      "inputs": [],
      "name": "withdrawAll",
      "outputs": [],
      "stateMutability": "nonpayable",
      "type": "function"
    },
    {
      "stateMutability": "payable",
      "type": "receive"
    }
  ],
  "transactionHash": "0x219d590dec22ae2b51fc6b83e6b34f6504f76a0e7ee50ad0cd090891e007811f",
  "args": [],
  "numDeployments": 1,
  "solcInputHash": "5310a8d7fcb63e3505d00ec8ea0aa876",
  "bytecode": "0x608060405234801561001057600080fd5b50600160005561001f33610024565b610076565b600180546001600160a01b038381166001600160a01b0319831681179093556040519116919082907f8be0079c531659141344cd1fd0a4f28419497f9722a3daafe3b4186f6b6457e090600090a35050565b610ced806100856000396000f3fe6080604052600436106100e15760003560e01c806393ac9b161161007f578063c288e40411610059578063c288e40414610202578063d0c6fdb714610222578063f2fde38b14610242578063f8b2cb4f1461026257600080fd5b806393ac9b16146101c7578063a06d083c146101e7578063b820af4c146101ef57600080fd5b80632e1a7d4d116100bb5780632e1a7d4d1461014a57806356ceece21461016a578063853828b61461018a5780638da5cb5b1461019f57600080fd5b8063037e34e5146100f557806312314e971461011557806312b583491461012857600080fd5b366100f0576100ee610298565b005b600080fd5b34801561010157600080fd5b506100ee610110366004610a95565b610300565b6100ee610123366004610aca565b61041b565b34801561013457600080fd5b50475b6040519081526020015b60405180910390f35b34801561015657600080fd5b506100ee610165366004610aec565b610445565b34801561017657600080fd5b50610137610185366004610b05565b610508565b34801561019657600080fd5b506100ee610533565b3480156101ab57600080fd5b506001546040516001600160a01b039091168152602001610141565b3480156101d357600080fd5b506100ee6101e2366004610aca565b6105e0565b6100ee61060c565b6100ee6101fd366004610b7b565b610614565b34801561020e57600080fd5b506100ee61021d366004610bbd565b6106b3565b34801561022e57600080fd5b506100ee61023d366004610aca565b61073a565b34801561024e57600080fd5b506100ee61025d366004610aca565b610763565b34801561026e57600080fd5b5061013761027d366004610aca565b6001600160a01b031660009081526004602052604090205490565b336000818152600460205260408120805434928392916102b9908490610c26565b90915550506040518181526001600160a01b038316907f1bbf55d483639f8103dc4e035af71a4fbdb16c80be740fa3eef81198acefa0949060200160405180910390a25050565b3360009081526002602052604090205460ff1661033057604051630f78199760e11b815260040160405180910390fd5b6001600160a01b0382166000908152600460205260409020548111156103695760405163356680b760e01b815260040160405180910390fd5b6001600160a01b03821660009081526004602052604081208054839290610391908490610c39565b9091555050336000818152600360209081526040808320878452909152812080548492906103c0908490610c26565b92505081905550826001600160a01b031684826001600160a01b03167f41a1d93164b85ee22290546a8988d6cea30a2fce0a7d4ac0694467f73cba35b18560405161040d91815260200190565b60405180910390a450505050565b6001600160a01b0381166000908152600460205260408120805434928392916102b9908490610c26565b61044d610774565b336000818152600460205260409020548281101561047e5760405163356680b760e01b815260040160405180910390fd5b6001600160a01b038216600090815260046020526040812080548592906104a6908490610c39565b909155506104b6905082846107b7565b816001600160a01b03167f59c79d79be0fadf59fe689b6952b7ebe90201a3a1f00d4a31982377890bc6046846040516104f191815260200190565b60405180910390a250506105056001600055565b50565b6001600160a01b03821660009081526003602090815260408083208484529091529020545b92915050565b61053b610774565b336000818152600460205260408120549081900361056c5760405163356680b760e01b815260040160405180910390fd5b6001600160a01b03821660009081526004602052604081205561058f82826107b7565b816001600160a01b03167f59c79d79be0fadf59fe689b6952b7ebe90201a3a1f00d4a31982377890bc6046826040516105ca91815260200190565b60405180910390a250506105de6001600055565b565b6105e861081c565b6001600160a01b03166000908152600260205260409020805460ff19166001179055565b6105de610298565b34816106208183610c62565b1561062a57600080fd5b60006106368284610c76565b905060005b828110156106ab57816004600088888581811061065a5761065a610c8a565b905060200201602081019061066f9190610aca565b6001600160a01b03166001600160a01b03168152602001908152602001600020600082825461069e9190610c26565b909155505060010161063b565b505050505050565b3360009081526002602052604090205460ff166106e357604051630f78199760e11b815260040160405180910390fd5b336106ee8284610ca0565b6001600160a01b03821660009081526003602090815260408083208984529091529020541161071c57600080fd5b6107298186868686610875565b610733818661096c565b5050505050565b61074261081c565b6001600160a01b03166000908152600260205260409020805460ff19169055565b61076b61081c565b61050581610a0f565b6002600054036107b0576040517f3ee5aeb500000000000000000000000000000000000000000000000000000000815260040160405180910390fd5b6002600055565b6000826001600160a01b03168260405160006040518083038185875af1925050503d8060008114610804576040519150601f19603f3d011682016040523d82523d6000602084013e610809565b606091505b505090508061081757600080fd5b505050565b3361082f6001546001600160a01b031690565b6001600160a01b0316146105de576040517f118cdaa700000000000000000000000000000000000000000000000000000000815233600482015260240160405180910390fd5b60005b828110156106ab57600084848381811061089457610894610c8a565b90506020020160208101906108a99190610aca565b6001600160a01b03881660009081526003602090815260408083208a84529091528120805492935085929091906108e1908490610c39565b90915550506001600160a01b0381166000908152600460205260408120805485929061090e908490610c26565b92505081905550806001600160a01b031686886001600160a01b03167f66146bebca25df9b39213211f3772ec0db2654a806515a04a19a5494cbd3e2cc8660405161095b91815260200190565b60405180910390a450600101610878565b6001600160a01b0382166000908152600360209081526040808320848452909152812054906109a36001546001600160a01b031690565b6001600160a01b038181166000818152600460209081526040808320889055938916808352600382528483208984528252848320929092559251868152939450909286927f66146bebca25df9b39213211f3772ec0db2654a806515a04a19a5494cbd3e2cc910161040d565b600180546001600160a01b038381167fffffffffffffffffffffffff0000000000000000000000000000000000000000831681179093556040519116919082907f8be0079c531659141344cd1fd0a4f28419497f9722a3daafe3b4186f6b6457e090600090a35050565b80356001600160a01b0381168114610a9057600080fd5b919050565b600080600060608486031215610aaa57600080fd5b83359250610aba60208501610a79565b9150604084013590509250925092565b600060208284031215610adc57600080fd5b610ae582610a79565b9392505050565b600060208284031215610afe57600080fd5b5035919050565b60008060408385031215610b1857600080fd5b610b2183610a79565b946020939093013593505050565b60008083601f840112610b4157600080fd5b50813567ffffffffffffffff811115610b5957600080fd5b6020830191508360208260051b8501011115610b7457600080fd5b9250929050565b60008060208385031215610b8e57600080fd5b823567ffffffffffffffff811115610ba557600080fd5b610bb185828601610b2f565b90969095509350505050565b60008060008060608587031215610bd357600080fd5b84359350602085013567ffffffffffffffff811115610bf157600080fd5b610bfd87828801610b2f565b9598909750949560400135949350505050565b634e487b7160e01b600052601160045260246000fd5b8082018082111561052d5761052d610c10565b8181038181111561052d5761052d610c10565b634e487b7160e01b600052601260045260246000fd5b600082610c7157610c71610c4c565b500690565b600082610c8557610c85610c4c565b500490565b634e487b7160e01b600052603260045260246000fd5b808202811582820484141761052d5761052d610c1056fea26469706673582212207355af0bb5b7717f43d5842a25f636a2151e59c92a6aef286dcaeba4e8e1e36864736f6c63430008140033",
  "devdoc": {
    "details": "ProofOfChance Wallets supports only coinflip at the time of deployment It acts as a regular wallet that can be 'Credited' and 'Debited' More importantly, it allows ProofOfChance apps to 'CreditFromGame` or `DebitForGame` in the context of a given game",
    "errors": {
      "OwnableInvalidOwner(address)": [
        {
          "details": "The owner is not a valid owner account."
        }
      ],
      "ReentrancyGuardReentrantCall()": [
        {
          "details": "Unauthorized reentrant call."
        }
      ]
    },
    "kind": "dev",
    "methods": {
      "creditPlayer(address)": {
        "details": "Credits player as though player manually credits themselves."
      },
      "creditPlayers(address[])": {
        "details": "Credits player as though player manually credits themselves."
      },
      "owner()": {
        "details": "Returns the address of the current owner."
      },
      "transferOwnership(address)": {
        "details": "Transfers ownership of the contract to a new account (`newOwner`). Can only be called by the current owner."
      }
    },
    "version": 1
  },
  "userdoc": {
    "errors": {
      "OwnableUnauthorizedAccount(address)": [
        {
          "notice": "The caller account is not authorized to perform an operation."
        }
      ]
    },
    "kind": "user",
    "methods": {
      "getBalance(address)": {
        "notice": "returns the balance of a wallet owner it does not include the balances deposited in games"
      },
      "getGameBalance(address,uint256)": {
        "notice": "Returns the wallet balance of an app's game"
      },
      "getTotalBalance()": {
        "notice": "returns the ether balance of this wallet contract"
      },
      "withdraw(uint256)": {
        "notice": "Allows you to withdraw a specified amount of your wallet balance"
      },
      "withdrawAll()": {
        "notice": "Allows you to withdraw all your wallet balance"
      }
    },
    "version": 1
  },
  "storageLayout": {
    "storage": [
      {
        "astId": 1960,
        "contract": "src/Wallets.sol:Wallets",
        "label": "_status",
        "offset": 0,
        "slot": "0",
        "type": "t_uint256"
      },
      {
        "astId": 1214,
        "contract": "src/Wallets.sol:Wallets",
        "label": "_owner",
        "offset": 0,
        "slot": "1",
        "type": "t_address"
      },
      {
        "astId": 1410,
        "contract": "src/Wallets.sol:Wallets",
        "label": "apps",
        "offset": 0,
        "slot": "2",
        "type": "t_mapping(t_address,t_bool)"
      },
      {
        "astId": 1416,
        "contract": "src/Wallets.sol:Wallets",
        "label": "gameBalances",
        "offset": 0,
        "slot": "3",
        "type": "t_mapping(t_address,t_mapping(t_uint256,t_uint256))"
      },
      {
        "astId": 1420,
        "contract": "src/Wallets.sol:Wallets",
        "label": "balances",
        "offset": 0,
        "slot": "4",
        "type": "t_mapping(t_address,t_uint256)"
      }
    ],
    "types": {
      "t_address": {
        "encoding": "inplace",
        "label": "address",
        "numberOfBytes": "20"
      },
      "t_bool": {
        "encoding": "inplace",
        "label": "bool",
        "numberOfBytes": "1"
      },
      "t_mapping(t_address,t_bool)": {
        "encoding": "mapping",
        "key": "t_address",
        "label": "mapping(address => bool)",
        "numberOfBytes": "32",
        "value": "t_bool"
      },
      "t_mapping(t_address,t_mapping(t_uint256,t_uint256))": {
        "encoding": "mapping",
        "key": "t_address",
        "label": "mapping(address => mapping(uint256 => uint256))",
        "numberOfBytes": "32",
        "value": "t_mapping(t_uint256,t_uint256)"
      },
      "t_mapping(t_address,t_uint256)": {
        "encoding": "mapping",
        "key": "t_address",
        "label": "mapping(address => uint256)",
        "numberOfBytes": "32",
        "value": "t_uint256"
      },
      "t_mapping(t_uint256,t_uint256)": {
        "encoding": "mapping",
        "key": "t_uint256",
        "label": "mapping(uint256 => uint256)",
        "numberOfBytes": "32",
        "value": "t_uint256"
      },
      "t_uint256": {
        "encoding": "inplace",
        "label": "uint256",
        "numberOfBytes": "32"
      }
    }
  }
}